:10000000A00700202D170000D3400000E5160000D7
:10001000E5160000E5160000E516000000000000EF
:10002000000000000000000000000000811300003C
:10003000E51600000000000029130000E51600008E
:100040006D1400006D1400006D1400006D140000AC
:100050006D1400006D1400006D1400006D1400009C
:100060006D1400006D1400006D1400006D1400008C
:100070006D1400006D1400006D1400006D1400007C
:100080006D1400006D1400006D1400006D1400006C
:100090006D1400006D1400006D1400006D1400005C
:1000A0006D1400006D1400006D1400006D1400004C
:0800B0006D1400006D14000046
:1000B80053B94AB9002908BF00281CBF4FF0FF31C7
:1000C8004FF0FF3000F06CB9ADF1080C6DE904CECB
:1000D80000F006F8DDF804E0DDE9022304B070471B
:1000E8002DE9F047089E0D4604468E46002B40F049
:1000F80082808A42174646D9B2FA82F24AB1C2F1E0
:10010800200105FA02F320FA01F1974041EA030EB3
:1001180094404FEA1748230CBEFBF8FCB9B208FB21
:100128001CEE43EA0E430CFB01F098420AD9FB1877
:100138000CF1FF3580F01681984240F21381ACF142
:10014800020C3B441B1AA4B2B3FBF8F008FB1033B3
:1001580044EA034400FB01F1A14209D93C1900F12A
:10016800FF3380F00181A14240F2FE8002383C4416
:10017800641A40EA0C4000211EB1D4400023C6E9AD
:100188000043BDE8F08702B9FFDEB2FA82F2002A26
:100198004FD1CB1B4FEA174E1FFA87F80121B3FB4B
:1001A800FEFC250C0EFB1C3345EA034508FB0CF34B
:1001B800AB4207D97D190CF1FF3002D2AB4200F2F5
:1001C800E7808446ED1AA3B2B5FBFEF00EFB10558E
:1001D80043EA054408FB00F8A04507D93C1900F19B
:1001E800FF3302D2A04500F2D7801846A4EB0804DA
:1001F80040EA0C40C0E78B4208D9002E00F0AF80DF
:100208000021C6E900050846BDE8F087B3FA83F186
:1002180000294BD1AB4202D3824200F2B780841A44
:1002280065EB030301209E46002EAAD0C6E9004EC6
:10023800A7E7C2F1200C01FA02F3974020FA0CF06C
:100248004FEA174E21FA0CFC1843BCFBFEF1050CD3
:100258000EFB11CC1FFA87F845EA0C4501FB08F3A1
:10026800AB4204FA02F409D97D1901F1FF3C80F090
:100278008B80AB4240F2888002393D44EB1A85B24C
:10028800B3FBFEF00EFB103345EA034500FB08F311
:10029800AB4207D97D1900F1FF3C71D2AB426FD94F
:1002A80002383D44EB1A40EA014178E7C1F1200CDD
:1002B8008B4022FA0CF71F4320FA0CF405FA01F3DD
:1002C8004FEA174E25FA0CF51C43230CB5FBFEF933
:1002D8001FFA87F80EFB195543EA054509FB08FA8A
:1002E800AA4502FA01F200FA01F308D97D1909F1C9
:1002F800FF3047D2AA4545D9A9F102093D44A5EBEB
:100308000A05A4B2B5FBFEF00EFB105544EA0544FD
:1003180000FB08F8A04507D93C1900F1FF352DD29C
:10032800A0452BD902383C4440EA0940A4EB080414
:10033800A0FB02894C45C6464D4619D316D05EB17E
:10034800B3EB0E0264EB050404FA0CFCCA404CEA59
:100358000202CC40C6E900240021BDE8F0873146FE
:1003680030460EE7AC46EDE6184601E74345E6D2CF
:10037800B8EB020E69EB07050138E0E72846D3E73A
:1003880060468FE78146BAE7614677E708464BE75C
:10039800ACF1020C3D4415E702383C4426E700BFA7
:1003A800704700BF00B585B00C4B6C460FCB07C437
:1003B80023800B4804F070FE00F01AF8094B186807
:1003C80083685C6842F210730E226946A0470648AB
:1003D80003F055FC054804F05FFEEFE7E85600001F
:1003E80040420F00B4020020D856000080841E004E
:1003F80010B50E4802F0C4FB0D4B186090B183682D
:100408001B6863B100220B49984738B9084B186834
:100418008368DC68322314220749A04710BD6FF0B7
:100428005700FBE76FF00500F8E700BFF85600003B
:10043800B4020020093C00009C02002008B50B68AB
:1004480001330B60014B1B68984708BD0000002072
:1004580000B583B002460B460021019101A903486B
:1004680000F0C8F803B05DF804FB00BF45040000C5
:1004780010B584B00446019002910021039101A9AE
:10048800054800F0B7F8039B029A934201DA00226C
:10049800E254039804B010BD573C00002DE9F04326
:1004A80083B0044608461546238B13F0080F05D180
:1004B80003F0070600230093019369E0012909D09E
:1004C80043F02003238385F31188BFF36F8F03B0B4
:1004D800BDE8F08343F010032383F4E7204603F0DC
:1004E80011FC57E0D4F814904A466946204603F0B8
:1004F80022FC00275AE023691F680621204603F0E2
:10050800DAFB4FF0000951E023695F6804212046B7
:1005180003F0D1FB4FF0000948E023699F680521EB
:10052800204603F0C8FB4FF000093FE0002246E0F8
:10053800002244E043F00803238385F31188BFF3C6
:100548006F8F002944D1009B2BB14B464246694628
:10055800204603F066FC17B125492046B8474FF0FE
:100568002003EFF3118583F31288BFF36F8F238B7A
:1005780023F008032383238B13F0100F2ED023F0CE
:10058800100323830120268B06F0070600289AD043
:100598000228A3D0002896D00128A3D00328AAD0E7
:1005A8000428B1D00528B8D00027B946238B03F01A
:1005B8000708B045BAD0A268002AB9D0012211466E
:1005C800002AB7D1009A002AB4D1002FB2D1D2E7BD
:1005D8004A464146204603F076FBB4E713F0200F65
:1005E80004D023F0200323830220CCE70020CAE7AD
:1005F800593E00002DE9F04F93B006460D4692464D
:10060800039300249AF80000002800F0D6842528D7
:1006180008D00AF1010A2946B0470028C0F2CE8462
:100628000134EFE70023069307930B93089309938C
:100638000A930AF101089AF80130252B01D0012705
:100648002CE00AF102088DF82330A8E19DF820304B
:1006580043F004038DF82030FFB108F101081CE0D5
:100668009DF8203043F008038DF82030F4E79DF81A
:10067800203043F010038DF82030EDE79DF820304E
:1006880043F020038DF82030E6E79DF8203043F052
:1006980040038DF82030DFE700274FB398F800308B
:1006A800203B102BF8D801A252F823F0770600005F
:1006B800A1060000A106000085060000A1060000B2
:1006C800A1060000A1060000A1060000A106000086
:1006D800A1060000A106000069060000A1060000AE
:1006E80055060000A1060000A106000093060000C0
:1006F8009DF8203003F04403442B6DD0CDF81480CE
:100708009DF8203043F080038DF8203098F80030B1
:100718002A2B68D005A803F02BFC059B984512D01E
:100728009DF8203043F080038DF820300990C3F302
:100738004003002860DB002213439DF8202063F368
:1007480041028DF82020059B05931B782E2B14BFA2
:10075800002301239DF8212063F341028DF8212015
:10076800002B4BD0059B5A1C05925B782A2B48D04E
:1007780005A803F0FDFB0A909DF82030C3F3400361
:10078800002847DB002213439DF8202063F3410231
:100798008DF82020DDF8148098F800304C3B2E2B83
:1007A80000F2DC80DFE803F0CADADADADADADADA79
:1007B800DADADADADADADADADADADADADADADADA91
:1007C800DADADADA38DA6ADA51DADADADADADADA1C
:1007D800C0DADADADADAB6009DF820306FF3861379
:1007E8008DF820308AE79DF8213043F001038DF819
:1007F800213043460133A7E701229DE7DDF8148045
:10080800CAE79DF8213043F004038DF8213002F146
:100818000108C1E70122B6E708F1010298F80130A2
:10082800682B08D09DF82130022161F3C6038DF8AA
:10083800213090462BE09DF82130012262F3C60357
:100848008DF8213008F1020821E008F1010298F83A
:1008580001306C2B08D09DF82130032161F3C603C9
:100868008DF82130904612E09DF82130042262F381
:10087800C6038DF8213008F1020808E09DF8213000
:10088800052262F3C6038DF8213008F1010818F833
:10089800013B8DF82330A3F14102372A00F2508141
:1008A800DFE812F026014E014E014E012601260115
:1008B80026014E014E014E014E014E014E014E01E0
:1008C8004E014E014E014E014E014E014E014E01A8
:1008D8004E0113014E014E014E014E014E014E01D3
:1008E8004E014E0126014E01130163002601260127
:1008F80026014E0163004E014E014E014E012F01AB
:1009080013013F014E014E013F014E0113014E01FB
:100918004E0113019DF82130062262F3C6038DF8BB
:10092800213008F10108B2E79DF82130072262F36F
:10093800C6038DF8213008F10108A8E79DF8213099
:10094800082262F3C6038DF8213008F101089DF8EA
:10095800203043F002038DF8203098E79DF82130CD
:100968006FF3C6038DF8213091E79DF8222001210D
:1009780061F302028DF822209DF8212002F078020E
:10098800402A00F0AA80632B00F0AE809DF820304A
:10099800C3F34002174367F341038DF820309DF8F5
:1009A800213013F0010F00F0DA80039B1A1D039227
:1009B8001F68002FC0F2CB809DF8213013F0040F80
:1009C80000F0DF80039B1A1D0392D3F800B0BBF13F
:1009D800000FC0F2CD80002309930A939DF82230BE
:1009E80003F007039DF82110C1F3C301012B00F0A8
:1009F800D180022B00F01681042B00F06781032BB5
:100A080000F07E819DF8209019F00303029340F0D6
:100A18007D819DF82330253B532B00F23382DFE89C
:100A280013F0810131023102310231023102310207
:100A38003102310231023102310231023102310216
:100A48003102310231023102310231023102310206
:100A580031023102310231023102310231023102F6
:100A680031023102310231023102310231023102E6
:100A780031023102310231023102310231023102D6
:100A88003102310231023102C70131023102310231
:100A98003102310231023102310231023102A10147
:100AA800AB013102310231023102AB0131023102B4
:100AB800310231020802C701EA01310231028F0115
:100AC8003102C70131023102C7019DF822200221FB
:100AD80061F302028DF822204EE79DF8201041F0C4
:100AE80001018DF820104EE7171E18BF01274DE7AA
:100AF8009DF82230042262F302038DF82230012788
:100B080044E79DF82230032262F302038DF8223075
:100B18009DF8213003F07803402B7FF437AF01278D
:100B280034E79DF82230032262F302038DF8223065
:100B38009DF8213013F0780F3FF428AF012725E7FF
:100B48009DF8203043F001038DF820301EE79DF812
:100B5800203043F004038DF820307F422CE79DF9C4
:100B68002030002B02DB4FF0FF3725E7099F23E7F2
:100B78009DF821306FF341038DF821304FF0FF3B92
:100B880029E713F0020F02D0DDF828B023E74FF071
:100B9800FF3B20E7CB1E042B04D8DFE803F00B1D36
:100BA80029353500039B1A1D03921A68D317CDE91E
:100BB800062306E0039B1A1D03921A68D317CDE992
:100BC8000623012928D002297FF41CAFBDF918207B
:100BD800D317CDE9062315E7039B073323F0070353
:100BE80003F108020392D3E90023CDE90623E8E7DD
:100BF800039B073323F0070303F108020392D3E9A9
:100C08000023CDE90623DCE7039B1A1D03921A682B
:100C1800D317CDE90623D4E79DF8183006930023AF
:100C28000793EFE6CB1E042B04D8DFE803F00B1F75
:100C380035414100039B1A1D03921B68069300234C
:100C480007931EE09DF82330632B07D0039B1A1DE2
:100C580003921B6806930023079312E0039B1A1D57
:100C680003921B680693002307930AE0039B07334C
:100C780023F0070303F108020392D3E90023CDE927
:100C8800062301291CD002297FF4BCAEBDF8183018
:100C9800069300230793B5E6039B073323F0070366
:100CA80003F108020392D3E90023CDE90623E8E71C
:100CB800039B1A1D03921B68069300230793E0E722
:100CC8009DF818300693002307939BE608290BD05C
:100CD800039B073323F0070303F108020392D3E9C8
:100CE8000023CDE906238DE6039B073323F0070392
:100CF80003F108020392D3E90023CDE9062381E634
:100D0800039B1A1D03921B6806937BE643465246D3
:100D18002946304603F0A9F90028C0F24F8104445F
:100D2800C2466FE429462520B0470028C0F2468114
:100D38000134DDF808900DF1460B4FF0000AA7E0EA
:100D4800DDF818A0BBF1000F08DB5946504603F048
:100D580077FA0AEB000BDDF8089099E0504603F0AB
:100D680067FAF6E7069B8DF83030DDF808900DF14C
:100D7800310B0DF1300A8BE019F0080F05D119F08D
:100D8800100904D04FF0200901E04FF02B09DDE9EC
:100D98000623002A73F1000102DBCDE9062309E0EE
:100DA800524263EB4303CDE906234FF02D0901E0DE
:100DB800DDF808900DF1460300930CAB08AADDE9B5
:100DC800060103F0E8F88246BBF1000FC0F29080FC
:100DD8000DF14603A3EB0A039DF820206FF386125A
:100DE8008DF820209B4540F28680ABEB03030993E6
:100DF8000DF1460B4CE0069830B9DDF80890DFF8A5
:100E0800C4B1ABF1050A43E00DF1460300930CAB06
:100E180008AA002103F0BFF882469DF8223043F06B
:100E280010038DF8223078238DF82330DDF80890F0
:100E3800CAE7069A9DF82130C3F3C303072B06D8E7
:100E4800DFE803F0040C0E1012171C1E1460DDF806
:100E580008900DF1460B4FF0000A19E01470F6E700
:100E68001480F4E71460F2E72046E117C2E90001B4
:100E7800EDE72046E117C2E90001E8E71460E6E77C
:100E88001460E4E7DDF808900DF1460B4FF0000A16
:100E9800BAF1000F00F08E80ABEB0A02B9F1000F37
:100EA80000D001329DF8221011F0100F26D0023226
:100EB800099B134411F0400F01D00A9A1344002FE4
:100EC80032DDFF1A9DF8203013F0040F2CD113F0F7
:100ED800400F18D0B9F1000F18D029464846B0473E
:100EE80000286BDB0134DDF80890302302930FE013
:100EF8000DF1460BCCE70DF1460BC9E711F0080FD1
:100F0800D6D00132D4E72023029301E030230293A4
:100F18003B465F1E002B07DD29460298B047002894
:100F28004CDB01343B46F4E7B9F1000F05D0294604
:100F38004846B047002841DB01349DF82230C3F30E
:100F48000012C3F3C003134305D029463020B0472D
:100F5800002833DB01349DF8223013F0100F06D03F
:100F680029469DF82300B047002827DB0134099B58
:100F780003F1FF39002B07DD29463020B047002850
:100F88001CDB01344B46F3E75B46524629463046A4
:100F980003F06BF8002811DB0444002F07DD294615
:100FA8002020B047002809DB0134013FF5E7C2469D
:100FB800FFF728BBC246FFF725BB204613B0BDE8A4
:100FC800F08F00BF0557000070B584B02C4B1C7D16
:100FD80004F01F0301229A4061092A4B03EB8103A5
:100FE800D043BFF35B8F53E8001F01EA000543E8D5
:100FF8000056002EF7D1BFF35B8F0A423DD004EBB9
:1010080044039A00204B134493E8070004AB03E918
:1010180007001E4B63B103F089F94FF02003EFF38B
:10102800118683F31288BFF36F8F194B1D680AE08E
:10103800002383F31188BFF36F8FEEE72B460DB1C2
:101048002B686BB11D465DB1AA68002AF6D00C4B1F
:101058001B7D03EB430399000B4B585C9047EDE76E
:1010680086F31188BFF36F8F074804EB4404A2008E
:101078008118002383504B608B6004B070BD00BFA3
:101088005C030020C0020020C40200203543000099
:10109800B8020020F0B589B00546554B1C7D04F018
:1010A8001F0301229A406109524B03EB8103BFF3EE
:1010B8005B8F53E8001F41EA020043E80006002E58
:1010C800F7D1BFF35B8F0A4217D004EB44034A4AB7
:1010D80012F82330002B00F08880B5F1FF3F1CD1B7
:1010E80002F03AF84FF02003EFF3118683F31288E9
:1010F800BFF36F8F414B1D682AE004EB44063E4B5B
:1011080003EB86066F462A462146384602F0C8FF9A
:1011180097E8070086E80700D7E704EB440302EBEB
:1011280083039B68590CD803354E364A002380192F
:101138004FF0000646EB0101FEF7BAFF0121281A1D
:1011480004F098F9CCE72B460DB12B686BB11D461E
:101158005DB16A68002AF6D0254B1B7D03EB43037B
:10116800254911F823009047EDE786F31188BFF36E
:101178006F8F04F01F03012199406309224A02EB93
:101188008303BFF35B8F53E8002F0A4343E8002033
:101198000028F8D1BFF35B8F04EB4403164A02EB37
:1011A800830393E8070008AB03E90700174B0BB16B
:1011B80003F0A9F8FFF708FF02F06CF9012004F02A
:1011C8001F020123934064090A4A02EB8404DB43AB
:1011D800BFF35B8F54E8002F1A4044E80021002930
:1011E800F8D1BFF35B8F09B0F0BD0020E7E700BF7F
:1011F8005C030020D0020020C4020020B8020020B6
:101208003F420F0040420F00C00200200F43000081
:10121800014910220A60704710ED00E072B64040A4
:1012280080F31188BFF36F8FBFF34F8F30BF62B663
:10123800BFF36F8F704700BF72B6494081F31188C2
:1012480020BF80F3118862B6704700BF43B2002BFD
:1012580008DB00F01F005B09012202FA00F0024AD5
:1012680042F82300704700BF00E100E04209054B47
:1012780053F8222000F01F00012303FA00F0104069
:10128800704700BF00E100E0013143B2002B08DBEA
:101298004901C9B203F1604303F5614383F80013C0
:1012A800704700F00F004901C9B2014B195470474B
:1012B80014ED00E030BFFFF7FDBF00BF08B5084BD5
:1012C80023F07F03074A9360BFF34F8FBFF36F8FFD
:1012D80001F02EFD02F04CFA00F00AFA01F034FD9C
:1012E8000000000000ED00E00A4A9368C3F8A80077
:1012F80009490968C3F8AC1008494B6843F08053A2
:101308004B60002383F31188BFF36F8F9368D3F882
:10131800AC0070475C030020E857000000ED00E0D7
:1013280013498A684FF030001044EFF3098C80E8C5
:10133800F01F202080F31288BFF36F8F0D4F4FF0FE
:101348000066CA698A603E60D2F8A8000023C2F825
:10135800A83080F3118804B5104600F06BFABDE898
:10136800044002F1300090E8F01F8CF309887047C0
:101378005C03002004ED00E01EF0040F0CBFEFF347
:101388000880EFF30980816911F8021C0229FFD057
:1013980001B502F08EFE01BD10B4A2F120040D4982
:1013A80021F0010142F8081C42F8203C019B42F858
:1013B8001C3C029B42F8183C039B42F8143C4FF03B
:1013C800807342F8043C04650023C0F8A83010BCC0
:1013D800704700BF653F0000164B9A68DAB110F1FC
:1013E800160F1AD010B4D2F89830A3F12004844212
:1013F80005D8834208D98B4208D8002100E0002193
:1014080031B9002010BC70470021F9E70121F7E746
:10141800D2F89800F6E700207047D2F898308B424F
:1014280094BF0021012109B900207047D2F8980023
:10143800704700BF5C03002008B50D461446084BF2
:10144800986000F0F7F9204685F30988002163B613
:1014580081F31188BFF36F8F0022002302F07EFD15
:101468005C03002001B572B60B4A906900281EBFC4
:101478000021916103F06BFE62B6EFF30580A0F1E5
:1014880010004FEAC0000549014409C99847BDE862
:1014980001400349084700005C0300209455000000
:1014A800AD140000044B9968D869884203D00349F9
:1014B8004FF080520A6070475C03002004ED00E0A2
:1014C80010B514460F4B9A6A9A6A9B6A13F4007F08
:1014D8000BD00C4B9A6B9B6A13F4004F05D021B1CB
:1014E800084A936A23F400439362064B9A6A9A6AFD
:1014F8009A6A42F47F429A62012102F0ECFD207060
:10150800002010BD00ED00E0074B9A6A9A6A9A6ABB
:101518009A6A9A6A9A6A9A6A6FEA02426FEA124269
:101528009A620020704700BF00ED00E070B50546E4
:1015380016461F4B9A6A9A6A9B6A13F0020F0CD0E0
:101548001B4B586B9B6A13F0800F24D039B1184A93
:10155800936A23F08003936201E06FF01500144B47
:101568009A6A9B6A13F0100F04D1114B9C6A14F00D
:10157800020404D00E4B5C6814F400640ED10C4ACB
:10158800936A43F0FF0393620121284602F0A3FD0A
:101598003070204670BD6FF01500E0E72946FFF770
:1015A8001BFF04460028EAD080F309880224E6E7F6
:1015B80000ED00E010B5044600230B701B4BD86A01
:1015C80010F002002DD1DB6A002B2BDB174BDB6AF6
:1015D80013F0804327D0A36933F8022C4DF6027329
:1015E8009A4210D003F1604303F626631B7863B96F
:1015F8000F4B1B787BB90F4B1B889BB293B12046CE
:10160800FFF782FF0EE020680CE00A460121204621
:10161800FFF78CFF06E00A4601212046FFF750FF3E
:1016280000E0002010BD1846FCE700BF00ED00E018
:1016380029ED00E02AED00E070B58AB00C46224B97
:101648005968C1F30801002383F31188BFF36F8F32
:1016580002F07F43B3F17F4F15D102F00C03082B42
:1016680014D012F0080F0BD000260DF127022046E7
:1016780002F036FD05469DF8273053B10AB070BD1B
:1016880004460126F1E700263446EEE700263446F4
:10169800EBE72022214601A802F0E6FD4EB1089BA7
:1016A800C3F308025AB96FEA53236FEA4323089336
:1016B80005E0089B23F4FF7323F00103089301A9B5
:1016C800284602F0F2FCD9E700ED00E0024A53692F
:1016D80043F010035361704700ED00E0EFF308801A
:1016E800EFF3098101B57246FFF7A6FF01BD00BF00
:1016F800002206E002F00F01094B0B442021197665
:1017080001321D2A0ADC53B2002BF3DB03F16043DC
:1017180003F56143202183F80013F1E7704700BF08
:10172800FCEC00E0002080F31488BFF36F8F03F017
:10173800FFFE00200D490860BFF34F8F0C4880F36F
:10174800088800F029F8202080F3118809484FF410
:101758000261401880F30988EFF3148002210843DE
:1017680080F31488BFF36F8FFFF7A8FD94ED00E0B6
:10177800A0070020E0080020064B1868C0F30720E7
:101788000023834205DA034A936000211161013383
:10179800F7E7704790ED00E010B572B6002484F3C7
:1017A8001388FFF7E9FF234608E003F120010E4AFA
:1017B8004FF0FF3042F821000133DBB2072BF4D998
:1017C800002308E003F16001074A4FF0FF3042F8B8
:1017D80021000133DBB2072BF4D962B6BFF34F8F78
:1017E800BFF36F8F10BD00BF00E100E008B5084BE4
:1017F8009B68834202D001F093FF08BDEFF3058395
:10180800002BF8D0034A536843F080535360F2E743
:101818005C03002000ED00E008B5034B034A0121FA
:10182800034802F0E3FC08BD00600020000000202F
:101838000857000008B5D0F89830203B04480360EA
:1018480020234360034B8360012102F0D3FC08BDD1
:10185800D402002000000B15064A90600B6823F0A4
:101868001F03034343F01003D3608B6843F0010365
:101878001361704790ED00E010B5034C0123227806
:1018880002F08CFC207010BD9803002008B50023DE
:10189800084A127802F082FC10F1160F08D00346AD
:1018A800072B05DC044A9360002111610133F7E737
:1018B80008BD00BF9803002090ED00E0034B05220F
:1018C8005A60BFF34F8FBFF36F8F704790ED00E002
:1018D800BFF35F8F014B00225A60704790ED00E024
:1018E80038B50E4B1D68082D15D8FFF7F1FF0024F9
:1018F800A5420AD9094B596804EB440293001944DC
:101908002046FFF7A9FF0134F2E7054B1D70FFF7EA
:10191800D5FF002038BD4FF0FF30FBE7245700000B
:1019280098030020C0B24FF08043C3F81C05BFF3F2
:101938004F8F0549CA6802F4E062044B1343CB6039
:10194800BFF34F8F00BFFDE700ED00E00400FA058C
:1019580030B108B58001034B43F00103984708BD37
:10196800704700BFD0560000004870473003002081
:10197800034BC01A8010034B03FB00F0704700BFF5
:10198800F0020020B76DDBB638B505460C46FFF708
:10199800EFFF01464022034802F04AFD014628466F
:1019A800A04738BD6455000030B583B005460C46E5
:1019B800FFF7DEFF0146402300932346054A064809
:1019C80002F050FD011E01DB03B030BD2846A047E0
:1019D800FAE700BFB54400006455000008B510B12F
:1019E80001280DD008BD0021084802F0AAFC836830
:1019F80013F0070FF6D10021044802F007FDF1E7C4
:101A08000121024802F002FDECE700BF6455000026
:101A180010B54FF02003EFF3118483F31288BFF35E
:101A28006F8F134A136843F00203136013F0010F1A
:101A380008D1002384F31188BFF36F8F9BB902F09C
:101A48003DFD10BD4FF08043D3F80C24D3F80C347F
:101A580012F0010F01D10023ECE7FFF785FF02F038
:101A6800C2FC0123E6E70021024802F0CFFCE8E7C8
:101A7800400300206455000008B50A4BBFF35B8F94
:101A880053E8002F22F0020143E800100028F7D1A4
:101A9800BFF35B8F12F0010F00D008BD02F018FDF4
:101AA800FBE700BF4003002000B585B0CDF800D0AB
:101AB800CDF804D000230293012303936B46074A11
:101AC80002F0ECFC002805DB4FF480420023684656
:101AD80001F09AFA05B05DF804FB00BFED44000080
:101AE80070B50646002201211046FFF7CDFB002005
:101AF800FFF7ACFB114800F0FFFE114B98421AD1DA
:101B080003F0CEFA002403E00123AB601C44E4B2E6
:101B1800012C0ED82146304602F013FC054621461A
:101B2800304602F019FC074902F0A0F90028EBDA68
:101B380000E0002070BD6FF00400FBE7E51900002D
:101B48000000AD0B7457000070B50546012807D199
:101B58004FF08043D3F81C3403F00303012B58D013
:101B680003F0E0FA28B92E4B1B78002B41D0002354
:101B780000E001231C46002B3DD04FF02003EFF37B
:101B8800118683F31288BFF36F8F24B94FF0804317
:101B98000222C3F808234FF08042D2F8183403F029
:101BA8000303D2F8182412F4803F2BD100221AB173
:101BB800012B29D0012D27D0FCB13046FFF73CFB83
:101BC8004FF08043D3F81835002BE4D1154B1B6830
:101BD800002BE0D0134B00221A601B6801234FF042
:101BE8008042C2F81835104AC2F880310F4A136093
:101BF800D1E70123BEE70026C7E72120002101F035
:101C08005DFDDDE70122D2E724B186F31188BFF339
:101C18006F8F70BD4FF080430222C3F80423F8E7AA
:101C2800990300200401004000E100E008000040A2
:101C380010B50446104B0121BFF35B8F53E8002F0A
:101C480043E800100028F9D1BFF35B8F1AB1631E77
:101C5800012B0CD910BD094802F07EFB084900236E
:101C68004B60CB6001238B6002F01CF9EFE7204644
:101C7800FFF76AFFEEE700BF440300206455000049
:101C8800E002002043681A68B1F5164F6FD03AD8C1
:101C9800B1F5165F6ED00AD9B1F5E14F75D024D9E8
:101CA80047F6122399422BD14FF4000313E0B1F504
:101CB800966F61D007D9B1F5166F63D0B1F5965F0D
:101CC80010D13C4B07E0B1F5967F58D0B1F5167F9F
:101CD80005D14FF41C33C2F82435002070476FF04B
:101CE800150070476FF015007047B1F5615F4ED071
:101CF800B1F5964F01D1304BEDE76FF01500704705
:101D08006FF015007047B1F5613F42D009D9B1F5C0
:101D1800612F46D01FD9294B994248D14FF08053A3
:101D2800D9E7B1F5963F37D005D9B1F5E13F0FD1E5
:101D38004FF0EB73CFE74DF6C02399422ED0B1F5A3
:101D4800614F02D14FF46B03C5E76FF01500704780
:101D58006FF0150070471A4B994225D0B1F5E12F65
:101D680002D14FF0E863B6E76FF0150070474FF403
:101D78001D03B0E7134BAEE74FF49E23ABE74FF4D8
:101D8800A033A8E74FF41D23A5E70F4BA3E70F4B9C
:101D9800A1E74FF06C739EE70D4B9CE74FF465038A
:101DA80099E74FF0706396E74FF0806393E76FF021
:101DB8001500704700B0130000A04E0040420F000D
:101DC80090D003000050270000C0750000F03A00D2
:101DD80000903A012DE9F04105468846076903F06D
:101DE800A1F920B91D4B1B78ABB1002300E00123FA
:101DF80013B34FF02003EFF3118483F31288BFF37A
:101E08006F8F2646284602F083FC30B984F3118888
:101E1800BFF36F8FEDE70123EAE7FB6883B1DA6868
:101E280072B1D3F8C420002A0ADA6A681268D2F8B4
:101E38004C25C3F8C42003E0284602F06BFD064693
:101E4800394601F8148F0122284602F083FC86F3F4
:101E58001188BFF36F8FBDE8F08100BF99030020A0
:101E68002DE9F843164604694268D2F80080127AD0
:101E7800002A78D105460F46E26892F8D210002968
:101E880074D1D367B3F5E87F06DD3A4A82FB0312C3
:101E9800DB17C3EB620300E05C23E268C2F8803022
:101EA800E3681F66E3685E66E26800239366E2689B
:101EB800D366E26813676B685B6813F0100F03D092
:101EC800E16891F8D120DAB9C8F83475C8F83865EE
:101ED8000023C8F81031D8F81021C8F84C31D8F8C8
:101EE8004C31E368012283F8D2206B685B6813F0F9
:101EF800100F27D10123C8F800300020BDE8F8836F
:101F0800B24228BF32469146CC31384602F0ACF98D
:101F18004F44B6EB0906D7D1E26892F8D130A3EB6B
:101F2800090382F8D1304946284602F063FCE1688B
:101F380001226031284602F075FC284602F08BFC2D
:101F48000020DBE74FF02003EFF3118483F31288BE
:101F5800BFF36F8F0221284602F0EEFB84F311884D
:101F6800BFF36F8FC6E76FF08500C7E76FF00F000C
:101F7800C4E700BF676666662DE9F04182B0054692
:101F88001F460469406803684FF02000EFF311888A
:101F980080F31288BFF36F8FE068C668F6B9C26035
:101FA800E06881604FF48000C3F8040301F06043E7
:101FB800B3F1005F19D1E3681961E3685A612146FA
:101FC800284602F0F4FB88F31188BFF36F8FE37A99
:101FD800012B11D0002002B0BDE8F08188F31188F0
:101FE800BFF36F8F6FF00F00F5E7E36800221A6206
:101FF800204602F0CFFDE2E7B7F1FF3F01D1002014
:10200800E9E7E468283427EAE773DF17F90341EAC8
:102018005341D8030A4D0B4A002340194FF00005DD
:1020280045EB0101FEF744F802460B46002000216B
:10203800CDE90001204601F073FD2846CBE700BF3B
:102048003F420F0040420F00F0B589B004690023F9
:102058000393049305930693079303238DF80C3099
:1020680003A902F0BFFBE368DA6FB2F1FF3F01D1C9
:1020780009B0F0BDC3F88420E36803F18804D3F8FD
:10208800803023EAE373DF17F90341EA5341D803A9
:10209800084D094A002340194FF0000545EB01019E
:1020A800FEF706F802460B4600900191204601F023
:1020B80037FDDDE73F420F0040420F0038B50446C8
:1020C8000D4601F1160000F01FFD0C4B984211D18E
:1020D800AB7D04F590710C34094AA23342F83310F1
:1020E80002EBC3035C60A97D01238B40C2F8043571
:1020F800002038BD6FF00400FBE700BF0000AD0B07
:1021080000F0014070B5056943681C6802F048FB9F
:10211800064690BBEB680122C3F8C820184BC4F8E8
:1021280004330823C4F80035D4F84C31A3B16260F5
:10213800D4F844311BB9D4F82431002BF8D000234B
:10214800C4F84C31D4F84C21C4F81031D4F810211B
:10215800C4F84431D4F84431E86800220949883089
:1021680003F0BDF9EB68C3F8BC50E86800220649E3
:10217800283003F0B4F9EB68DD65304670BD00BF68
:1021880010020A00FD4A0000354A000021F07F4194
:1021980000F5A870014B43F820107047001001406B
:1021A80000F5A870014B53F820007047001001405B
:1021B8004FF480338340024AC2F84433704700BF6B
:1021C800001001404FF480338340024AC2F848337C
:1021D800704700BF00100140014BD3F80405704759
:1021E8000010014010B501238340DC43104ABFF3BF
:1021F8005B8F52E8001F01EA040C42E800CEBEF1F2
:10220800000FF6D1BFF35B8F4FF4803202FA00F073
:1022180002F1804202F58052C2F80803BFF35F8FD3
:10222800BFF36F8F0B4214BF0120002010BD00BF09
:102238004C03002070B5044602F0C5FE05464FF475
:102248008033A340174AD2F80423134205D100264D
:10225800284602F0C1FE304670BD0123A340DB438F
:10226800114ABFF35B8F52E8001F01EA030042E8FE
:102278000006002EF7D1BFF35B8F59B904F1500364
:102288009B009BB203F1804303F588331B6813B1AD
:10229800012300E001231E46002BD9D0204602F07E
:1022A80083FED5E7001001404803002001B97047BC
:1022B80001238340114ABFF35B8F52E8001F194383
:1022C80042E8001CBCF1000FF7D1BFF35B8F4FF45D
:1022D800803383400A4AC2F80433BFF35B8F094B4B
:1022E8001B68BFF35B8F23FA00F010F0010FDED0FC
:1022F800054B4FF40032C3F80021D8E74C03002007
:10230800001001404803002000E100E0F8B507464E
:1023180014461E461046194602F052FE0546154B55
:102328001A68A01A1C605E60A5F50013B3F5400F8B
:1023380008D3002401F028FB3846FFF731FFA842F4
:102348000CD0F8BD0C4B19680B0A0A06521943F158
:1023580000030A49C1E900230124EBE71CB1384610
:10236800FFF726FFEDE74FF400013846FFF70EFFB1
:10237800F5E700BF280100205003002010010020CD
:1023880038B50D4B1B681D0A1C06BFF35F8FFFF79E
:1023980023FF0346201845F10001B3F5801F0AD238
:1023A800064BD3E90023994208BF904203D210F1AB
:1023B800807041F1000138BD500300201001002059
:1023C8002DE9F843064614461D461046194602F004
:1023D800F7FD0746FFF7D4FFA94208BFA0421ED267
:1023E800B4EB000865EB01094FF0807200234B4500
:1023F80008BF42452ED3194B03EB0613D3E902233A
:10240800AB4208BFA24218D03946304602F0E9FD77
:10241800394602F0C5FD241845F100050DE00123F9
:10242800B3400F4ABFF35B8F52E8001F194342E8DD
:1024380000100028F8D1BFF35B8F084B320103EB83
:102448000616C6E9024508999950099B7360002051
:10245800BDE8F8836FF01500FAE700BF1801002007
:102468004803002030B583B000231E4AC2F808355F
:10247800002B25DD1B4C0225C4F804531A4B4FF4DE
:102488000032C3F88021002201211120FEF7FCFE52
:102498001120FEF7DBFE0123144A13602360144A5F
:1024A800136000240194134B0093134A0023204621
:1024B80002F0D2FD2846FFF7BBFB204603B030BD33
:1024C8000E4A02EB03124FF0FF304FF0FF31C2E922
:1024D80002014FF480329A400249C1F804230133C3
:1024E800C6E700BF0010014000E100E0081001400D
:1024F8004C03002015230000FFFF7F001801002077
:102508002DE9F04782B00446FFF794FE10B902B0F7
:10251800BDE8F087FFF734FF06460F4602F053FD8B
:102528008246134B03EB0413D3E902894F4508BFD6
:1025380046450BD20026504602F04EFD002EE6D04E
:10254800009542464B462046B047E0E7084A23013B
:1025580002EB0411D6584D680020D0504FF0FF32DE
:102568004FF0FF33C1E902232046FFF72BFEE2E7D5
:102578001801002010B50D4BD3F8043313F0020FE7
:102588000AD00B4B1B683BB1094B00221A601B6831
:10259800084A1368013313600024002C00DD10BDC5
:1025A8002046FFF7ADFF0134F7E700BF00100140F8
:1025B800041101405003002010B582B0B0F1FF3F74
:1025C80007D0441E002C07DD114B9C4205DD114C41
:1025D80003E000F50000F4E70024FFF7D1FE0E4BFE
:1025E800D3E90023801AB0F5000F00D30024044477
:1025F8000134B4F5000F00D3064C002001900749C0
:102608000091121943F1000302F026FD02B010BD3B
:10261800FEFF7F00FFFF7F00280100201523000038
:1026280008B5FFF7ADFE024B1B68C01A08BD00BF16
:1026380028010020034B1B680E2B01D00020704797
:102648000120704730010010034B1B680E2B01D08E
:10265800002070470120704730010010034B1B68B1
:102668000E2B01D000207047012070473001001068
:10267800034B1B680E2B01D00020704701207047C8
:1026880030010010034B1B680E2B01D0002070474F
:102698000120704730010010064B1B68064A12687B
:1026A8000E2B01D0002070470AB10120704700208E
:1026B800704700BF3001001034010010024BD3F8FE
:1026C8000034002BFAD0704700E0014008B5034BF6
:1026D800C3F80405FFF7F2FF08BD00BF00E00140A2
:1026E800014B024A1A6070471C0000200090D0037A
:1026F80038B5FFF79FFF28B1674B1B68C3F3423318
:10270800664A1360FFF7A0FF40B14FF080430022F4
:10271800C3F80C21C3F81021C3F83825FFF79EFF32
:10272800002846D04FF08052D2F804145C4BC3F80E
:102738002015D2F80814C3F82415D2F80C14C3F8DD
:102748002815D2F81014C3F82C15D2F81414C3F8AD
:102758003015D2F81814C3F83415D2F81C14C3F87D
:102768004015D2F82014C3F84415D2F82414C3F83D
:102778004815D2F82814C3F84C15D2F82C14C3F80D
:102788005015D2F83014C3F85415D2F83414C3F8DD
:102798006015D2F83814C3F86415D2F83C14C3F89D
:1027A8006815D2F84014C3F86C15D2F84424C3F85D
:1027B8007025FFF75DFF60B14FF08043D3F8003418
:1027C80013F0010F05D04FF080436FF00102C3F8FA
:1027D8000024FFF757FF20B1324A136843F00F0374
:1027E8001360FFF759FF38B14FF01023D3F80822D0
:1027F8004FF08043C3F85825FFF74EFF68B14FF0FC
:102808001023D3F80031B3F1FF3F15D04FF0102358
:10281800D3F80431B3F1FF3F0ED04FF01023D3F8B3
:102828000032002B1ADB4FF01023D3F80432002BB0
:1028380014DBFFF755FF38BD0120FFF747FF4FF0C6
:1028480010250024C5F80041FFF738FFC5F80441FA
:10285800FFF734FF2046FFF739FFDEE70120FFF7D7
:1028680035FF4FF010241525C4F80052FFF726FF56
:10287800C4F80452FFF722FF0020FFF727FFBFF339
:102888004F8F0949CA6802F4E062084B1343CB60D2
:10289800BFF34F8F00BFFDE7440200103C05004026
:1028A80000C00040E40E004000ED00E00400FA051E
:1028B80030B40468B4FA84F3D3F11F0315D40122A9
:1028C8009A4024EA0202BFF35B8F50E8005FA542FA
:1028D80004D140E8002CBCF1000FF6D1BFF35B8FA8
:1028E800E7D10B70024830BC70470248FBE700BFD5
:1028F8000000AD0B0200AD0B054B1B792BB9044B47
:10290800186001221A71034870470348704700BFD6
:10291800540300200000AD0B0C00AD0B10B10128D2
:1029280025D070474FF08042D2F8183403F00303E3
:10293800D2F8182412F4803F11D14FF080430022BE
:10294800C3F818250F4B00221A601B684FF080430C
:102958000222C3F80423083301221A607047012BAE
:10296800EBD14FF080430122C3F81825EAE7064B64
:1029780000221A601B684FF080430122C3F8042329
:102988001A607047040100400001004030B583B070
:10299800044618B1012813D003B030BD4FF080436E
:1029A8000222C3F8082303F5827300221A601B6809
:1029B800374B01221A60012C0FD042F2107553E0F8
:1029C80001234FF08042C2F8083302F580720021DB
:1029D800116012682F4A1360EDE701238DF8073064
:1029E80042F2107518E04FF08042D2F8183403F024
:1029F8000303CDF80730D2F8183413F4803F20D100
:102A08000023002BC8D09DF80730012BC4D101202A
:102A180002F042FB013DBFD0002CE4D0012C01D0D4
:102A28000023EEE74FF08042D2F80C3403F00103A4
:102A38008DF80730D2F80C3413F4803F03D100230B
:102A4800DFE70123DDE70123DBE74FF08043D3F81D
:102A5800183413F4803F16D10023002B9CD001209A
:102A680002F01AFB013D97D0002CEED0012C01D0CA
:102A78000023F2E74FF08043D3F80C3413F4803F7F
:102A880003D10023E9E70123E7E70123E5E700BFD6
:102A98000C0000400400004008B5184B1B685BB1EF
:102AA800164B002018601B684FF080430122C3F8C2
:102AB8000823134B1B689847124B1B689BB1114B9B
:102AC80000221A601B684FF08043D3F81824D3F80B
:102AD800183412F0030F07D101234FF08042C2F8D7
:102AE80018350832136008BD4FF080430222C3F83E
:102AF8000823034B1B6801209847F4E700010040B6
:102B0800540300200401004008B501460148FFF7BE
:102B1800CFFE08BD20000020034B044A934201D297
:102B28001833FAE7704700BF645500009455000059
:102B380070B50646114B53F8204009E0404217E0B3
:102B4800EB681870EA68537843F00103537008344F
:102B5800731C0A4A52F82330A3420DD965682368CA
:102B680028469847002DF2D00028EBD00028E5DB56
:102B7800FF28E5DDFF20E3E770BD00BFD457000064
:102B880038B5054628B303782BB3144C00E0183445
:102B9800134B9C4208D0204602F08BFA0028F6D04E
:102BA8002368AB42F3D112E00C4C00E018340C4B14
:102BB8009C420BD0204602F07CFA0028F6D021680F
:102BC800284601F047FB0028F0D100E00024204609
:102BD80038BD0446FBE70024F9E700BF6455000050
:102BE80094550000F0B589B00446154BB02505FB97
:102BF800003500EBC003134E06EB431606AF034641
:102C0800114A0821384601F048F804EB44040F48FB
:102C180000EBC4040597012304930F2303930023B7
:102C28000293019300940A4B4FF480723146284670
:102C380000F0FCF86B7B23F004036B7309B0F0BD64
:102C480030010020C0070020EC5700005C03002082
:102C5800992F000070B586B000F090FC1B4D1C4BFE
:102C6800DD611C4B05930123049300240394029413
:102C780001940094184B4FF480621849284600F0DC
:102C8800D5F806466B7B23F004036B73284602F0E5
:102C9800B5FA002C02DD304606B070BD2046FFF7BD
:102CA800A1FF0F4BB02202FB043204EB4401084B96
:102CB80003EBC103DA601C7504EB8411094A02EBCB
:102CC800411202F502625A600134E2E7E001002095
:102CD8005C030020F8570000F12C0000A00300203E
:102CE80030010020E008002008B50A4B01221A70C4
:102CF8000220FFF71DFF02F019FC0320FFF718FF61
:102D080000F0F8F8FDF74EFB034A137B23F00103AC
:102D1800137308BD99030020E001002008B501469F
:102D2800014A0248FEF788FBF12C0000E001002070
:102D380008B50348034A121A002101F0B9FA08BD80
:102D4800380000209C03002000B5ADB01B4B83F376
:102D580008881B4C636943F400736361E02384F8BB
:102D680022300025E57725766576A576636A43F4F3
:102D7800E023636284F82350FEF7A8FCFEF748FAC4
:102D88004FF0FF33A362E362FEF7AAFDFEF744FDAE
:102D980001248DF80D408DF80C4026952795094B98
:102DA800C3F808D0FFF7B8FE2846FFF7C1FE204653
:102DB800FFF7BEFEFFF74EFFFFF7B0FF0011002040
:102DC80000ED00E05C0300204FF02003EFF31181D9
:102DD80083F31288BFF36F8F0A4B9B6A834204D137
:102DE8001A6F084B9A6207E0134613B11A6F8242B2
:102DF800FAD10BB1026F1A6781F31188BFF36F8F95
:102E0800704700BF5C03002038B514461D4654EADD
:102E1800050302D102F08CF938BD2B46024918305F
:102E280000F008FDF8E700BF3D5200002DE9F04F23
:102E380085B004460F4615461E46DDF838A0DDF875
:102E48003C90DDF84080DDF84CB000F15803836514
:102E5800C365129B0422119902F06EF92A4639467D
:102E6800204602F04DF90546CDF80880CDF80490CB
:102E7800CDF800A03346024639462046FEF78CFAC4
:102E8800002363652666C4F864A0C4F86890C4F893
:102E98006C804FF02003EFF3118283F31288BFF3A5
:102EA8006F8F134B996A21679C6282F31188BFF375
:102EB8006F8FBBF1000F13D01F22594604F1740025
:102EC80001F09CF9002384F89330094B9B685BB1AF
:102ED800D3F8A430C4F8A430284605B0BDE8F08F74
:102EE800002384F87430F0E7C4F8A430F4E700BF96
:102EF8005C0300202DE9704386B0234C234B9C4291
:102F080015D2E36A0593236A0493E3690393A369DB
:102F180002936369019323690093E368A268616877
:102F28002068FFF783FF23685C653034E6E700F02C
:102F380013F9154C1BE0266823EAE3734FEAE3799B
:102F48004FEAC93141EA5341D80340F2E7354FF41B
:102F58007A72002340194FF0000545EB0101FDF797
:102F6800A7F802460B463046FFF74EFF3034074BB2
:102F78009C4204D2636AB3F1FF3FF7D0DBE700F06D
:102F880089FA06B0BDE870833400002034000020C0
:102F980008B501E0FEF742F94FF02002EFF3118384
:102FA80082F31288BFF36F8F02F04EFA034B9861D9
:102FB800FEF770F80028EFD1ECE700BF5C030020B3
:102FC80038B504464FF02003EFF3118583F31288D8
:102FD800BFF36F8F02F0D4F948B10022C0F8AC20DB
:102FE80002F00CF92946074800F09AF838BDA368A2
:102FF800E268934203D001221344A360F2E700225F
:10300800FAE700BF8803002030B583B01D464FF0B3
:103018002003EFF3118183F31288BFF36F8F836866
:1030280043B1013B836081F31188BFF36F8F0020A8
:1030380003B030BD144654EA050306D0CDE9004577
:103048000246054800F0D0F9F2E781F31188BFF392
:103058006F8F6FF00F00EBE78803002038B5B3F1EE
:10306800FF3F08BFB2F1FF3F00D138BD0249183019
:1030780000F0E0FBF9E700BF3D52000008B5084B3F
:103088001B6803B908BDFFF7CBFA0346044A10686A
:103098000344044A1361002102F0ECF9F2E700BF8F
:1030A800900300205C0300202DE9F0410646884685
:1030B80000234FF02002EFF3118782F31288BFF349
:1030C8006F8F09E0134BC3F80080FFF7D7FF87F332
:1030D8001188BFF36F8F0123CBB900230E4A136108
:1030E800750CF40340F2E7304FF47A72002320188D
:1030F8004FF0000145EB0101FCF7DAFF074B1860C0
:10310800002EDFDD0228B8BF02201860DAE7BDE82C
:10311800F08100BF8C0300205C0300209003002096
:1031280008B5084621B9EFF3058313B9012100E07A
:10313800002111F0010F07D0064BDA699B689A420B
:1031480002D0FEF7D1F803E080F31188BFF36F8F48
:1031580008BD00BF5C03002000234FF02002EFF3FE
:10316800118182F31288BFF36F8F53B9054B9A68A8
:10317800D37B013BD37381F31188BFF36F8F012396
:10318800F3E770475C03002038B504460F4802F0A7
:103198002EF8054670B184B90D4B9B685A7B12F026
:1031A8001F0F0AD1AA6942B9DA897F2A05D9084AC4
:1031B800D3610AE0064BDD68EDE7054B9B68AB423F
:1031C80001D0FFF75BFF024BDD6138BD7C030020B7
:1031D8005C03002038B50546427B90F90D30002B82
:1031E80028DB6B7B63F07F036B731A4B53F8204F1C
:1031F8009C422DD06CB12146284601F0B2FF002830
:1032080020DC34B1134B5B6A9C4202D02468002C4A
:10321800F0D1104B5A6A03F1200129606A601560E9
:103228005D620C4B9868A84214BF00200120FFF78C
:10323800ABFF38BD02F07F0242730146064801F039
:10324800CEFFCEE763686B602C601D606560E8E7C1
:103258000024CFE75C0300207C03002010B54FF06A
:103268002003EFF3118483F31288BFF36F8F1C4B95
:103278009B681C4A126893421DD01A4A00211160AB
:10328800194A126822B3DA897F2A21D85A7B12F0A8
:103298001F0F1DD193F90E10144A1268914217DBC3
:1032A800134A934214D00E4A126982420ADD101A58
:1032B8000B4B18610FE0FFF7E1FE84F31188BFF3B1
:1032C8006F8F0CE01846FFF785FFFFF7D7FE02E087
:1032D800034B00221A6184F31188BFF36F8F10BD6E
:1032E8005C03002088030020900300208C0300204A
:1032F8003001002038B5437B90F90D20002A2DDBE2
:10330800044613F01F0F05D182690AB1002202E0BA
:10331800012200E000220AB363F07F036373144BB9
:1033280053F8205F9D4220D06DB12946204601F018
:1033380018FF002813DC35B10D4B5B6A9D4202D0A3
:103348002D68002DF0D10A4B5A6A03F12001216043
:10335800626014605C620020FFF716FF38BD6B687E
:10336800636025601C606C60F5E70025DCE700BF42
:103378005C03002010B54FF02003EFF3118483F3B2
:103388001288BFF36F8F437B13F0040F04D184F3CB
:103398001188BFF36F8F10BD23F004034373FFF749
:1033A800A9FF21460148FFF7BBFEF4E78C03002084
:1033B80010B50446427B90F90D30002B08DB084B12
:1033C8009868A04214BF00200120FFF7DDFE10BD61
:1033D80002F07F0242730146024801F000FFEEE767
:1033E8005C0300207C03002010B50C461146064BF8
:1033F8009868064B1860DDE9022301F079FF204642
:10340800FDF772FF10BD00BF5C0300208803002099
:1034180038B50446183001F0F9FF00234FF02002B8
:10342800EFF3118582F31288BFF36F8F10E0637B8F
:1034380043F010036373154B9868A04214BF002033
:103448000120FFF7A1FE85F31188BFF36F8F0123D9
:1034580063B9627B94F90D30002BE8DA02F07F0241
:10346800627321460A4801F0BAFEE0E7074B9B6801
:10347800A34200D038BD4FF02003EFF3118083F34F
:103488001288BFF36F8F01F095FEF3E75C0300200D
:103498007C03002010B500234FF02002EFF31184C5
:1034A80082F31288BFF36F8F6BB90C4B9A68D37B8A
:1034B8000133D3730020FFF767FE84F31188BFF34D
:1034C8006F8F0123F0E74FF02003EFF3118083F3B0
:1034D8001288BFF36F8F01F06DFE10BD5C030020F2
:1034E800F8B5437B13F0080F45D1054643F00803B0
:1034F80003F0DF03437313F0800F14D1AB685BB1A3
:10350800284601F02CFE294601F069FE6B7B23F06A
:1035180002036B730023AB6005F1180001F076FF1E
:1035280005F158071CE003F07F0343730146124876
:1035380001F055FEE2E7204601F011FE214601F0B8
:103548004EFE637B23F0020363730026A66004F13A
:10355800180001F05BFFC4F8AC602046FFF7CAFE14
:103568003C68BC4201D0002CE5D10120FFF70CFEDD
:103578002846FFF729FCF8BD7C03002008B504485D
:1035880001F029FF00210846FFF78EFD08BD00BFA6
:1035980078030020F8B54FF02003EFF3118683F38A
:1035A8001288BFF36F8F1C4CA1684B7B03F07F031D
:1035B8004B7304F12007384601F011FEA5686B7BB8
:1035C80063F07F036B73246ABC4223D06CB121463D
:1035D800284601F0C6FD002816DC34B10E4B5B6AA4
:1035E8009C4202D02468002CF0D10B4B5A6A03F19C
:1035F800200129606A6015605D620120FFF7C4FD43
:103608003046FDF771FEF8BD63686B602C601D6085
:103618006560F2E70024D9E75C0300202DE9F0415A
:1036280004460D4654EA050137D06FF001010A1A25
:103638004FF0FF3161EB0503012A73F1000330DB22
:103648006FF00106361A4FF02003EFF3118883F369
:103658001288BFF36F8F164FB868164B1860FFF7C4
:10366800A7FEB86822462B461349183000F0E2F846
:10367800BA68537B43F0100353734046FDF734FE9A
:10368800002501F022FF341A65F10005012C75F1BF
:1036980000030ADA0020BDE8F081FFF77BFF002075
:1036A800F9E701F012FF0619CDE72046F3E700BF5E
:1036B8005C030020880300203D52000038B5B1F1BA
:1036C800FF3F08BFB0F1FF3F1AD0FFF7A7FF04463E
:1036D800C5176901430141EAD062181A62EB050374
:1036E8009A0042EA907281001346081945EB0303D9
:1036F800DA0042EA5072C100C80B40EA424038BDC5
:10370800034B9868FFF784FE4FF0FF30F7E700BFE0
:103718005C030020014B9868704700BF5C030020E1
:1037280038B54FF02003EFF3118583F31288BFF308
:103738006F8F437B13F0080F04D085F31188BFF314
:103748006F8F38BD0446FFF7CBFE084B9B68A3423A
:1037580004D085F31188BFF36F8FF2E7EFF3058389
:10376800002BF6D12846FDF7BFFDF2E75C030020E9
:1037780008B50648064A121A064900F075FD064AB9
:103788000649074800F070FD08BD00BF0000002092
:10379800340000200058000000000000005800001D
:1037A80000000020034B1868984200D070470020A2
:1037B800FCE700BF2400002030B1044A5268904260
:1037C80001D0006870470020704700BF2400002027
:1037D80008B5044B1B680BB1002008BDFEF720FF9D
:1037E800FBE700BF9403002010B5FFF7DBFF04469A
:1037F800FFF7EEFF8CB1D4E90423121A63EBE073F0
:10380800012A73F1000111DB1046B2F1004F73F188
:10381800000304DB6FF0004001E06FF00040044B50
:103828001B6913B1834200DA184610BD0020F6E781
:103838005C0300202DE9F04F83B0B3F1FF3F08BFD0
:10384800B2F1FF3F00F09680824614461D46816023
:1038580000234FF02002EFF3118B82F31288BFF39D
:103868006F8F2EE0012200234BE0FFF7B1FF2218F3
:1038780045EBE073013243F10003CAF81020CAF89F
:10388800143042E0009BC21A019B61EB0303CCF8A1
:103898001020CCF81430DCF80430CAF80430CAF828
:1038A80000C0C3F800A0CCF804A0BCF1000F49D0B8
:1038B800FFF778FF824550D08BF31188BFF36F8FE5
:1038C8000123002B56D16FF00103B3EB04084FF02E
:1038D800FF3060EB0509B8F1000F79F10003C4DB94
:1038E800264A13685268E31845EB02026FF001019B
:1038F800CE1A60EB020732463B46012E77F10001F3
:10390800B0DBCAF81020CAF81430FFF74BFF844622
:10391800BCF1000FC9D0DCE90401DAE90423CDE9E0
:10392800002382428B41ADDB009B1A1A019B63EB9B
:103938000103CAF81020CAF814306046FFF73CFFAC
:103948008446E5E70E4B5A68CAF80030CAF80420E6
:10395800C2F800A0C3F804A0AAE7FFF745FF034692
:1039680018B1084A12698242A6D000211846FEF70B
:1039780023FEA1E703B0BDE8F08F00BF900200204E
:10398800240000205C030020F8B50446FFF766FC1D
:103998004FF02003EFF3118583F31288BFF36F8F85
:1039A800284B1C60FFF7FEFE044650B3D0E90467BD
:1039B800244B1B68D917B34271EB070221DB224A5B
:1039C800D2E90001801941EBE671C2E900019B1BB5
:1039D8001C4A136000220023C4E90423204601F096
:1039E800FEFC85F31188BFF36F8FA36820469847C4
:1039F8004FF02003EFF3118583F31288BFF36F8F25
:103A0800D0E744B10F4B1968D4E90423521A63EB89
:103A1800E173C4E904230C480A490C68D0E900237F
:103A2800121943EBE473C0E9002300240C60FFF78C
:103A3800DBFE2146FEF7C0FD85F31188BFF36F8FCB
:103A4800F8BD00BF940300209002002010B50021AB
:103A58004FF02003EFF3118483F31288BFF36F8FC5
:103A68000022002369B9FEF7DBFD074BD3E90023E9
:103A7800121843F1000384F31188BFF36F8F0121FB
:103A8800F0E71046194610BD9002002070B50446B4
:103A98004FF02003EFF3118683F31288BFF36F8F83
:103AA8003546D0E90A2352EA030105D0B3F1FF3FB6
:103AB80008BFB2F1FF3F27D1236B01332363236A89
:103AC80073B186F31188BFF36F8F236A2046984736
:103AD8004FF02003EFF3118583F31288BFF36F8F44
:103AE80004F11803A469A34212D08CB1204601F056
:103AF80042FB0023C4F8AC3085F31188BFF36F8F05
:103B0800204601F07BFB70BD0449FFF793FED3E725
:103B180085F31188BFF36F8FF5E700BF953A000072
:103B28002DE9F04F87B014461D46DDE91089B3F141
:103B3800FF3F08BFB2F1FF3F35D0064613462A467D
:103B4800B9F1FF3F08BFB8F1FF3F12D058EA0901A9
:103B58000FD06FF00107B7EB080702974FF0FF315E
:103B680061EB09070397DDE90201002871F1000103
:103B78001CDB6FF00101B1EB030A4FF0FF3161EB81
:103B8800020BBAF1000F7BF1000123DB304601F094
:103B98003DFCC6E90A890023336322462B461749B0
:103BA8003046FFF747FE07B0BDE8F08F18F1FF3148
:103BB800049149F1FF310591DDE904783846414621
:103BC800012F78F1000702DB80468946D1E7012002
:103BD8000021F9E713F1FF33009342F1FF3301931A
:103BE800DDE9000102460B46002871F1000102DB05
:103BF80014461D46CAE700221346F9E7953A000025
:103C08007047024658B1436803F00303012B03D001
:103C1800032B07D1036843B10020906070476FF011
:103C2800150070476FF0150070476FF0150070476A
:103C38000346426802F003028160032A03D1006848
:103C480000225A6070470020FAE70020704710B43D
:103C58000C6854B18A684B689A4206DA013B9A426A
:103C680008D0531C8B60A05402E08B6801338B6032
:103C780010BC7047531C8B600023A354F8E70FB4A3
:103C880000B583B004A951F8040B0191FCF7E0FBDF
:103C980003B05DF804EB04B070470CB400B583B012
:103CA80004AB53F8042B0193FCF7E2FB03B05DF877
:103CB80004EB02B0704701F00703018B21F0070104
:103CC8001943018370472DE9F04106460F46904697
:103CD800816819B10C4631B10C6804E00C4602E069
:103CE800234621461C4659B14D6843463A4630465C
:103CF800A847002CF4D02346002CF2D02368F0E724
:103D0800BDE8F081038B13F0070303D102680AB101
:103D180003207047022B03D0012B06D000207047E8
:103D2800428B002AF8D10420704703680BB10520A4
:103D380070470020704738B504460D46038B002AAB
:103D480007DB03F007035A1F012A0ED9042B32D0D0
:103D580038BDD0E9000185E80300002323606360D3
:103D680001212046FFF7A7FFF2E7D0E9000185E827
:103D78000300002222606260062B17D12B683BB13A
:103D8800628B01326283002BF9D01B68002BF6D1BD
:103D980002212046FFF78FFF2046FFF7B3FF0028D8
:103DA800D6D0238B43F020032383D1E7002120467C
:103DB800FFF781FFF0E70021FFF77DFF2046FFF7BF
:103DC800A1FF0028C4D0238B43F020032383BFE73F
:103DD80058B110B50C4659B1081DFFF712FF18B9B4
:103DE800A36833F0030306D110BD6FF015007047C8
:103DF8006FF01500F8E76FF01500F5E72DE9F041D1
:103E080007460C4616461D461946201DFFF710FFAB
:103E180028B180462B46324621463846C047BDE881
:103E2800F0812DE9F84381460C4690461F4605E08F
:103E380065603B4642464846FFF7E0FF216829B1E6
:103E48000D68256066688E42F3D1F1E7BDE8F88316
:103E580010B54FF02004EFF3118284F31288BFF3FA
:103E68006F8F41610121FCF719FB10BD034668B152
:103E780079B10A6882B14A688AB10020186058602E
:103E88009860D86058619861196170476FF01500A3
:103E980070476FF0150070476FF0150070476FF0AE
:103EA80015007047F8B504460F46FFF791FF061E48
:103EB80037DB4FF02003EFF3118283F31288BFF34F
:103EC8006F8F258B05F00705638B4FF6FF718B42CB
:103ED8002FD02E46022D0CD08DB1042D0FD0062DDB
:103EE8000DD0052D1FD06FF0040600210B460846A3
:103EF8000AE00133638301210023184604E0B5FA80
:103F080085F35B090021012028B100203860606832
:103F1800A8B107606760ABB982F31188BFF36F8FF0
:103F2800A9B93046F8BD6FF0850600210B46084652
:103F3800EAE76FF00A0600210B460846E4E76760E7
:103F48002760E8E702212046FCF7A8FAE9E7002302
:103F58002A4639462046FFF751FFE2E708B50446EE
:103F6800084611461A46A047FFF7D4FBFDF73EFC6A
:103F780010B40446026800201378A3F1300109291F
:103F880006D800EB8000013203EB40003038F3E73D
:103F9800226010BC70472DE9F04F83B004460D46EF
:103FA80001929A46DDF83080D378A3F1410B6F2B4C
:103FB8000FD006D9702B0FD0782B10D14FF01009E5
:103FC80026E0582B02D04FF00A0921E04FF01009E3
:103FD8001EE04FF008091BE04FF0100918E04FF001
:103FE8000A0915E0BBF1190F20D8D2B23732D2B284
:103FF80008F8012D32463B4620462946FCF758F87A
:10400800BD4208BFB44215D3D04513D904460D4666
:104018004E4600274A463B4620462946FCF748F8C4
:10402800092ADFD8D2B23032D2B2E1E7D2B257325F
:10403800D2B2DDE7019B1B7813F0200F05D0B9F150
:10404800080F06D0B9F1100F09D0404603B0BDE8FB
:10405800F08F019A937843F008039370F5E7019A7B
:10406800937843F010039370EFE72DE9F04107468A
:104078000E4614469846002506E0314614F8010B12
:10408800B847002809DB01354445F6D3B8F1000FDD
:1040980002D12378002BF0D12846BDE8F081704783
:1040A8000022026042608260704708B501F00EF895
:1040B80008BD08B501460068FFF7F7FF08BD08B559
:1040C80000210120FFF7F1FF08BD08B5FDF7F2F860
:1040D800FDF7E8F908BD0020704700230B70704712
:1040E80008B500231370CB1E092B1AD8DFE803F09C
:1040F80005090D111919191919141146FDF75AFA5C
:1041080010E00021FDF712FA0CE00021FDF7D8F9C4
:1041180008E0FDF7F9F905E01146FFF7DEFF00209A
:1041280000E0002008BD43685A1E134206D11F2B29
:1041380006D903681A4205D000207047002070474E
:104148000020704701207047072805D810B504469D
:10415800FDF782FB204610BD6FF01500704700B5D3
:1041680085B00B6801934B688A68202B12D9B3F18C
:10417800004F11D8013BB3FA83F3C3F11F035B006F
:1041880003F03E031343039301A9FFF7DDFF05B0D6
:104198005DF804FB0823F5E73E23F3E72DE9F84330
:1041A80080460F4699461646002509E02146F0B29A
:1041B800FFF7D5FF064610F1160F14D0013601356A
:1041C800BD4210DA05EB450408EB84046268002A56
:1041D800F5D0B9F1000FE9D02046FFF7A4FF002879
:1041E800E4D16FF015063046BDE8F88308B5FDF751
:1041F80043FB08BD08B5FDF749FB08BD0346A2B15E
:1042080010B40C782CB103F8014B0131013A002AA3
:10421800F7D122B1002103F8011B013AF9E710BCDC
:104228007047002103F8011B013A002AF9D17047B1
:10423800034600201A7812B101330130FAE77047BB
:10424800034600201A7822B1884202D20133013095
:10425800F8E7704703780A78934203D113B1013025
:104268000131F7E7981A704710B480EA010313F098
:10427800030F01D0034617E0034613F0030F0BD0DA
:10428800A2B111F8014B03F8014B013AF5E751F8D7
:10429800044B43F8044B043A032AF8D804E011F815
:1042A800014B03F8014B013A002AF8D110BC7047C2
:1042B80010B4CCB2034613F0030F04D09AB103F83C
:1042C800014B013AF7E7C9B241EA012141EA01414C
:1042D800032A06D943F8041B043AF9E703F8014B0B
:1042E800013A002AFAD110BC70474FF02002EFF3D0
:1042F800118382F31288BFF36F8F83F31188BFF3A2
:104308006F8F0020704784B004AB03E907009DF865
:104318000430062B01D004B070474FF080430122CF
:10432800C3F80025BFF34F8F20BFFDE784B004AB6F
:1043380003E90700002383F31188BFF36F8F04B0EC
:104348007047006901EB4101890038310844704722
:10435800406800EBC10070470069C1EBC10100EB88
:104368008100704708B5C9B2FFF7EBFF806800F01D
:10437800070008BD4FF02003EFF3118283F3128882
:10438800BFF36F8F036813F0C00301D08B4207D1CE
:1043980001230360002082F31188BFF36F8F7047F9
:1043A8004FF0FF30F7E710B44FF02003EFF311821E
:1043B80083F31288BFF36F8F036803F0C00403F020
:1043C8000703012B09D08C420AD04FF0FF3082F34B
:1043D8001188BFF36F8F10BC704701600020F6E7AB
:1043E8006FF07700F3E74FF02003EFF3118283F3C8
:1043F8001288BFF36F8F036803F0C00343F0020312
:10440800036082F31188BFF36F8F7047F8B50646D3
:104418000C46FFF796FF05684768002340F8083BFD
:10442800FFF7E1FF1DB13A4621463046A847F8BDDF
:1044380070B506461546CCB22146FFF782FF2946DD
:104448000830FFF797FF002806DB21463046FFF7C4
:104458007FFF43689847002070BD08B58022FFF7AA
:10446800E7FF08BD2DE9F041064690461F46CDB24C
:104478002946FFF766FF044606990830FFF793FFC1
:10448800002809DBC4F80080676029463046FFF73A
:104498005FFF036898470020BDE8F08110B582B03F
:1044A80080240094FFF7DEFF02B010BD10B514465B
:1044B800C9B2FFF751FF0021A04710BD08B5012080
:1044C800FEF72CFA08BD08B50020FEF727FA08BD4C
:1044D80008B50120FEF75AFA08BD08B50020FEF716
:1044E80055FA08BD08B51046FEF76AFD08BD4368D1
:1044F80000295DD1DA68B2F1FF3F10D002F01F0247
:10450800012101FA02F24FF0A041C1F80825DA684A
:1045180002F01F0202F5E072032041F822001A6936
:10452800B2F1FF3F0CD0197F00293DD0032102F0E2
:104538001F02890002F5E0724FF0A04040F82210F7
:104548005A69B2F1FF3F10D002F01F02012101FAAF
:1045580002F24FF0A041C1F808255A6902F01F0283
:1045680002F5E072032041F822009A69B2F1FF3F98
:104578000BD0597FD1B1032102F01F02890002F547
:10458800E0724FF0A04040F822101A68D868196904
:10459800C2F80C05C2F814151A6859699B69C2F863
:1045A8000815C2F8103570470021C0E70021E3E77D
:1045B800DA68B2F1FF3F08D002F01F0202F5E0729C
:1045C8004FF0A041022041F822001A69B2F1FF3FE2
:1045D80008D002F01F0202F5E0724FF0A04102205D
:1045E80041F822005A69B2F1FF3F08D002F01F02D9
:1045F80002F5E0724FF0A041022041F822009A69CA
:10460800B2F1FF3FC1D002F01F0202F5E0724FF095
:10461800A041022041F82200B7E743681B684FF029
:104628002001EFF3118281F31288BFF36F8FD3F863
:10463800201131B10021C3F82011D3F82011012134
:10464800D96082F31188BFF36F8F704770B582B05D
:1046580005460C464B79012B06D0032B11D06FF081
:104668008503184602B070BD00238DF80630A37983
:10467800032B38D1E37943B1012B10D06FF08503B8
:10468800EFE710238DF80630F1E700238DF80430AA
:10469800237943B1022B22D06FF08503E1E7012390
:1046A8008DF80430F4E700238DF80530216828469A
:1046B800FDF7E8FA0346C8B96A6810689DF805105E
:1046C8009DF806609DF8042031430A43C0F86C2524
:1046D8002A69043294E8030082E80300C1E70E2344
:1046E8008DF80530E2E76FF08503BAE76FF08503D0
:1046F800B7E70B4602699168506883E80300002019
:10470800704743681B68D3F88004C3F88004704777
:1047180043681A685B6803F00203D2F8581129B994
:1047280033B9D2F820312BB90020704701207047E7
:1047380000207047012070470369DB6823B1D3F874
:10474800C8201143C3F8C81043681B680822C3F87F
:104758000025704710B543681C68C4F84415C4F8B0
:1047680048250023C4F82031D4F82021C4F8583152
:10477800D4F8583143685B6813F0100F02D1012355
:10478800A36010BD0121FFF7D7FF4FF48003C4F8E1
:104798000433F4E743681B680022C3F80025704718
:1047A80043681B680422C3F804230020704738B507
:1047B80005460C46FFF7ACFF20B9E368012283F8F1
:1047C800D42038BDE368002283F8D420E3684FF092
:1047D800FF32C3F8C420E3685A6919692846FFF70D
:1047E800B9FFEEE708B50369DA6813680BB15268D8
:1047F800984708BD00B587B002690023019302936A
:1048080003930493059302238DF80430D3681A6E3A
:1048180002929B6E0393049101A9FFF7E3FF07B08F
:104828005DF804FB0B68ABB130B587B00C46154694
:104838000023019303930493059304238DF8043014
:104848000B68029301A9FFF7CDFF0DB10023236088
:1048580007B030BD704700B587B0002301930293BD
:1048680003930493059305238DF8043001A9FFF7FA
:10487800B9FF07B05DF804FB70B4046943681B68AE
:104888004FF02000EFF3118580F31288BFF36F8F8C
:10489800E068066EAEB1C66EB6B9C166E06802677A
:1048A800C3F83415C3F83825D3F8002242F02002A3
:1048B800C3F80022002085F31188BFF36F8F70BC06
:1048C80070476FF00C00F6E76FF00F00F3E703692D
:1048D800D86820B10160DB685A60002070476FF02B
:1048E80085007047026943681B68D06860B9D3F8CF
:1048F800100160B1527D0A700020C3F81001D3F88E
:10490800102101221A6070476FF0850070474FF040
:10491800FF30704770B5064614E07DB14FF02003B4
:10492800EFF3118483F31288BFF36F8F3046FFF7DC
:10493800EFFEA0B984F31188BFF36F8F2120002107
:10494800FEF7BCFE64243046FFF7E2FE0546002869
:10495800E3D1012000F0A0FB013CF4D1DDE72046C3
:1049680070BD38B5056943681C68EB681A6EBAB142
:10497800DB6E53B1D4F8003223F02003C4F80032C0
:104988000023C4F84C31D4F84C31E868883000F082
:10499800B2FDEB68002083F8D2000123636038BDC4
:1049A8006FF00D00FBE710B586B0044643681B683E
:1049B800D3F88024C3F8802400230193029303933F
:1049C8000493059306238DF8043012F0010F08D1E3
:1049D80012F0020F11D112F0040F10D102F00802E8
:1049E80000E001228DF8082001A92046FFF7FAFE11
:1049F8002046FFF7B6FF06B010BD0222F2E70422F8
:104A0800F0E738B5036942681568DA68916851B10A
:104A1800002482F8D440D868283000F06CFD0123C7
:104A2800EB60204638BD6FF00D00FBE708B5436B1F
:104A38001868FFF7E6FF08BD70B5054604694368C6
:104A48001E68E368012283F8D520E068883000F00A
:104A580052FDD6F83C25E36893F8D11011440022A2
:104A680083F8D120E3689A6E891A0BD49A6F0A44A6
:104A78009A67002908DCE16891F8D23043B981F8D7
:104A8800D53070BD0021F1E72846FFF7B3FEF2E705
:104A9800002260312846FFF7C5FE4FF02003EFF3F0
:104AA800118183F31288BFF36F8FE368DA6EF2B176
:104AB8001A66E3681A6F5A66E2680023D366E268EA
:104AC8001367E2689366D6F84C310BB9012333605B
:104AD800D6F8003223F02003C6F8003281F311889B
:104AE800BFF36F8FE368002283F8D520C9E701235D
:104AF8007360F3E7F8B5446B26687268E36893F867
:104B0800D530002B38D103F0FF0713681022C3F803
:104B18000823E368D3F8C020596F914204D05A673C
:104B2800E368DA6FC3F88420E3685D6F9A6FAD1AA3
:104B380023D4E3689A6EA818596E884201D98D1A51
:104B48000127002D13DD2FB9D3F88420D3F8801066
:104B58008A4216DA29463046FFF74CFEE268936E21
:104B68002B449366E268936F1D4495676FB9736829
:104B78001B681022C3F80423F8BDC3F8C020002521
:104B8800D7E7521AC3F88420F0E7E068883000F0CD
:104B9800B2FCECE708B5C368DA68196A521A01D1A1
:104BA800002008BD082A28BF08225A61C36803F1FB
:104BB80018011961C0688168036A19441830FFF741
:104BC80053FB0120EDE72DE9F041044647683D68B5
:104BD80006690021C5F800153060FFF788FC2169D7
:104BE80004312046FFF732FD804618BB7B6813F07E
:104BF800020F22D1F36843B32046FDF783FA002859
:104C080036DB7B6813F0020F03D14FF48073C5F8CD
:104C180004337B6813F0100F03D04FF48003C5F8FA
:104C280004331436C5F844650023C5F84835012314
:104C3800AB60EB604046BDE8F08131462846FDF7A1
:104C48003DFA0028D6DA8046F4E70823C5F800358F
:104C58003B7A002BD5D1C5F81031D5F8103106F1C3
:104C68001503C5F834350123C5F838352B60C8E776
:104C78008046DFE710B50446002201210220FCF738
:104C880003FB0220FCF7E2FA00212046FFF79BFF16
:104C980010BDF0B583B043681C68D4F83C750D4668
:104CA80011B3164615B300212846FFF701FB2B4622
:104CB800C4F83435C4F838650023C4F81031D4F882
:104CC80010310123E362D4F81031002BFBD000230C
:104CD800C4F81031D4F8103155B1D4F83C058742E6
:104CE8000CD0C0B203B0F0BD0526DBE76B46DFE7AA
:104CF800D4F83C05C0B2F5E7C0B2F3E70023B342ED
:104D080004D2EA5C002AF7D10133F8E70020E9E78A
:104D180070B5044602694FF02003EFF3118683F360
:104D28001288BFF36F8FD068D0F8C83023EA010328
:104D3800C0F8C830D568D5F8C83023B9022907D0DB
:104D48002046FFF727FD86F31188BFF36F8F70BDEC
:104D5800052205F1CC012046FFF79BFF85F8D1001D
:104D6800EEE7F0B587B00546046943681F685B68DD
:104D780013F0100F47D1E3689B68002B41D04FF028
:104D88002003EFF3118283F31288BFF36F8FE36878
:104D9800D3F8C410002942DBD3F8C46082F3118829
:104DA800BFF36F8FE36893F8D420002A3AD199684B
:104DB8001A69914204D05A69B24244D01B6A1E440F
:104DC800E068283000F097FB0023019302930393D7
:104DD80004930593E3689A6802920396DB68B342EA
:104DE8004CD001238DF804304FF48003C7F8083302
:104DF800E26800239360E268D36001A92846FFF7C0
:104E0800F1FC07B0F0BD4FF48003C7F80833012167
:104E1800FFF77EFFE368DB68002BACD1F1E7D7F83A
:104E28004C65BBE74FF02003EFF3118683F312883C
:104E3800BFF36F8F21462846FFF7B9FC86F3118828
:104E4800BFF36F8FDDE71A6A16441E622046FFF72C
:104E5800A1FE10B9E3681E6AB2E74FF02003EFF332
:104E6800118683F31288BFF36F8F21462846FFF718
:104E78009EFC86F31188BFF36F8FC2E700238DF87D
:104E88000430B1E738B504460569E96801226031A4
:104E9800FFF7C8FCE96801226C312046FFF7C2FC25
:104EA800EB6893F8D2205AB1002283F8D2206368C5
:104EB8005B6813F0100F09D12046FFF7CCFC38BD12
:104EC800002211462046FFF7E4FEF0E702212046C3
:104ED800FFF71EFFF0E738B543681C680269D4F88D
:104EE80008315BBB0546D4F824319BBBD4F810319C
:104EF80023B1D4F8043313F0100F33D1D4F84C3164
:104F080013B1D4F81031B3B3D4F8443113B1D4F891
:104F18001031C3B3D4F8203123B1D4F8043313F4D7
:104F2800807F38D1D4F858319BB1D4F8043313F4C6
:104F3800800F0ED02846FFF714FF0AE00023C4F8BC
:104F48000831D4F80831D268D2F8C0300133C2F839
:104F5800C03038BD0023C4F82431D4F82431FFF719
:104F680022FDC3E70023C4F81031D4F810312846D5
:104F7800FFF762FDC2E7C4F84C31D4F84C3128463B
:104F8800FDF762F8C0E7C4F84431D4F84431284644
:104F9800FFF778FFBEE72846FFF73FFBC2E77047F9
:104FA800401A20F07F40704700F150039B009BB2ED
:104FB80003F1804303F5883300221A601B687047A9
:104FC80020F07F4070474FF02003EFF3118083F308
:104FD8001288BFF36F8F704780F31188BFF36F8F0C
:104FE8007047F8B5064621F07F45FDF7D9F8074622
:104FF80019E0132000F06DFA22E03046FFF7D4FFE5
:105008003046FDF7D5F829463046FDF7BFF8FDF7DD
:10501800E3F884421ED0811C2846FFF7C1FFB0F593
:10502800000F17D92F46FDF7D7F80446014630463A
:10503800FDF7ACF821463846FFF7B2FF0128D8D073
:10504800A71C39462846FFF7ABFFB0F5000FD4D9A7
:105058003D46D2E72846F8BDF0B583B0044617466A
:105068001D46FDF7BFF80646099B0193089B009370
:105078003A462B462046FDF7A3F905463146204619
:10508800FDF714F9284603B0F0BD08B50020FCF779
:1050980049FC08B5804708BD08B500F01AFA08BDF4
:1050A80008B50020FCF7E2F800B108BDFCF7CEF81F
:1050B800FBE748B1C3681888C0F30800B0F5807FE3
:1050C80014BF00200120704700207047F8B505463E
:1050D8000E464FF02003EFF3118783F31288BFF3D6
:1050E8006F8FFEF717FB044631462846FFF7CDFFC2
:1050F80087F31188BFF36F8F2046FCF777FBF8BD65
:1051080010B4073222F0070202F1200301F1200453
:10511800C0F89840C0F89C200022C0F8A020C81809
:1051280010BC7047EFF30580003818BF01207047A6
:1051380008B5FEF71FF908BD10B400248460037396
:1051480042738173C4738461C46110BC704708B52D
:10515800FBF73AFFFFF723FF08BD00207047806880
:10516800704790F90E3091F90E00834201D0C01AB1
:1051780070470020704738B5044600234FF02002DE
:10518800EFF3118582F31288BFF36F8F8BB9204636
:10519800FFF7E5FF214600F022F8637B23F00203C6
:1051A80063730023A36085F31188BFF36F8F012316
:1051B800ECE738BD08B5034620B9EFF3058242B9DC
:1051C800012200E0002232B983F31188BFF36F8F08
:1051D80008BD0022F7E71846FCF786F8F8E74A68A2
:1051E8000B6813605A6000230B604B6070470346DE
:1051F8000068834200D070470020FCE738B50446B9
:1052080000234FF02002EFF3118582F31288BFF3D9
:105218006F8F07E02046FEF76DF885F31188BFF31E
:105228006F8F01232BB92046FFF797FF0028F4D191
:10523800F0E738BD70B50446A0F1180500234FF01B
:105248002002EFF3118682F31288BFF36F8F19E003
:105258002846FFF784FF2946FFF7C1FF6B7B23F041
:1052680002036B730023AB6014F80B3C03F0EB03F1
:1052780004F80B3C2846FEF73DF886F31188BFF387
:105288006F8F01234BB914F80B3C13F0280FF4D19E
:1052980054F8103C002BDBD1E6E770BD70B505462D
:1052A8000E46FEF785F86B7B43F002036B73B6B1CD
:1052B800AE603468A64219D064B121462846FFF78B
:1052C80050FF00280CDC2CB173689C4202D0246883
:1052D800002CF1D173682E606B601D60756070BD25
:1052E80063686B602C601D606560F8E70024E3E785
:1052F8002DE9F84305460F469146984600244FF09D
:105308002003EFF3118683F31288BFF36F8F4CB934
:1053180039462846FFF7C2FF86F31188BFF36F8F1F
:105328000124F4E74A4643462846FDF797FEBDE8C0
:10533800F88370B5064600234FF02002EFF311857D
:1053480082F31288BFF36F8F1C460FE0FFF707FF49
:105358002146FFF744FF637B23F0020363730023B6
:10536800A36085F31188BFF36F8F012333B93046EB
:10537800FFF73DFF04460028E8D1F2E7204670BD5C
:1053880070B5064600234FF02002EFF3118582F333
:105398001288BFF36F8F1C4613E0FFF7E0FE21462B
:1053A800FFF71DFF637B23F0020363730023A360F1
:1053B80004F1180000F02AF885F31188BFF36F8F05
:1053C800012333B93046FFF712FF04460028E4D121
:1053D800F2E7204670BD031D43608360704738B50F
:1053E8000446FEF7E9F948B1024620696569136980
:1053F80051691B1845EB010113615161626823680B
:1054080013605A6000232360636038BD70B504469A
:1054180000234FF02002EFF3118682F31288BFF3C6
:105428006F8F6FF0150008E02046FFF7D8FF284679
:1054380086F31188BFF36F8F01231D461BB92368BC
:10544800002BF1D1F4E770BD10B500234FF0200216
:10545800EFF3118482F31288BFF36F8F4FF0FF30A0
:105468003BB9FEF7C1F984F31188BFF36F8F0123AD
:10547800F6E710BDF8B506460F4600234FF02002A8
:10548800EFF3118582F31288BFF36F8F0AE00124CE
:1054980004F00104012800DD7CB985F31188BFF30D
:1054A8006F8F01231C467BB9FEF79EF9B0F1FF3FD1
:1054B800EDD0B042ECDB0124EAE73946B042A8BFA0
:1054C8003046FDF779F8E8E7F8BD08B5FEF7BEFA0B
:1054D80008BD00B9704708B5FCF73AFA08BD016283
:1054E80042620023036300F118028261C261036013
:1054F80043604363704710B50446FFF787FFA0B9C0
:10550800636A0BB12046984704F11800FFF711FFB2
:1055180058B1FFF773FE4FF02003EFF3118083F3C8
:105528001288BFF36F8FFFF745FE10BD70477047B5
:04553800FDF7DEB8E5
:08553C00ACABFF7F0100000091
:10554400F342000000000000E91A00006455000066
:105554007D4C00007C5500006D240000000000001C
:1055640044570000645700004C5700002C000020F2
:10557400F0020020C6560000F8560000AC570000A8
:10558400805700003000002004000020C0560000B6
:10559400A12A00009B50000000000000C74000004A
:1055A4007C550000DF4E000000000000C7400000F2
:1055B40000000000C740000000000000C7400000D9
:1055C40000000000C740000000000000C7400000C9
:1055D40000000000C740000000000000C7400000B9
:1055E40000000000C740000000000000C7400000A9
:1055F40000000000C740000000000000C740000099
:1056040000000000C740000000000000C740000088
:1056140000000000C7400000000000007D250000DD
:1056240000000000C740000000000000C740000068
:1056340000000000C740000000000000C740000058
:1056440000000000C740000000000000C740000048
:1056540000000000C740000000000000C740000038
:1056640000000000C740000000000000C740000028
:1056740000000000C740000000000000C740000018
:10568400040000000D0000000100000008000000FC
:105694002800000060000000700000000D00000001
:1056A4000C0000000E000000500000007400000018
:0C56B400A8000000FFFFFFFFFFFFFFFF4A
:0C56C00000800080FF7F00800080FF7FE2
:0456CC00FFFFFFFFDE
:1056D0000738FDD87047000068656C6C6F20776FE5
:1056E000726C64210D0A000068656C6C6F20776F26
:1056F000726C640D0A000000554152545F30000086
:10570000286E696C290000000000002000000000E5
:1057100000000B06464C4153485F30005352414D48
:105720005F300000020000002C5700000000000065
:105730001457000022000207000000201C57000040
:105740001C000B11434C4F434B000000B11A0000EA
:1057500063440000A5440000000000006D43000009
:1057600000000000191A0000811A0000CF44000058
:10577000E3440000B119000091190000000000008E
:10578000D7480000811F00000B4A0000691E00007E
:10579000814800006B490000ED480000DD1D00005D
:1057A0000B47000055460000FB460000002000406B
:1057B00002000000000000001D0000001E000000AC
:1057C000FFFFFFFFFFFFFFFF0100000000000000E0
:1057D00000000000445500005C55000064550000C6
:1057E0006455000064550000F5FFFFFF69646C65B7
:1057F00020253032640000006D61696E00000000F9
:10580000533C00000000000000C201000001030042
:105810003800002000000000000000000090D003CD
:0C582000FFFF0F002400002024000020E7
:08582C00000000000000000074
:040000030000172DB5
:00000001FF
