:020000040800F2
:100000000865012085030008DF380008A9320008D0
:10001000DD38000831190008E13F00080000000049
:10002000000000000000000000000000C502000801
:10003000331900080000000021030008C939000836
:100040009F0300089F0300089F0300089F03000808
:100050009F0300089F0300089F0300089F030008F8
:100060009F0300089F0300089F0300089F030008E8
:100070009F0300089F0300089F0300089F030008D8
:100080009F0300089F0300089F0300089F030008C8
:100090009F0300089F0300089F0300089F030008B8
:1000A0009F030008853A00089F0300089F0300088B
:1000B0009F0300089F0300089F0300089F03000898
:1000C0009F0300089F0300089F0300089F03000888
:1000D0009F030008D53F00089F0300089F03000806
:1000E0009F0300089F0300089F0300089F03000868
:1000F0009F0300089F0300089F0300089F03000858
:10010000000000009F0300089F0300089F030008F1
:1001100000000000000000009F0300089F0300088B
:100120009F0300089F0300089F0300089F03000827
:100130009F0300089F0300089F0300089F03000817
:100140009F0300089F0300089F0300089F03000807
:100150009F0300089F0300089F0300089F030008F7
:100160009F0300089F03000800000000000000003B
:10017000000000000000000000000000000000007F
:100180009F0300089F03000800000000000000001B
:100190009F0300089F03000800000000000000000B
:1001A000000000000000000000000000000000004F
:1001B0009F03000800000000000000009F030008EB
:1001C0009F03000800F002F800F06CF80AA090E825
:1001D000000C82448344AAF10107DA4501D100F002
:1001E00061F8AFF2090EBAE80F0013F0010F18BF63
:1001F000FB1A43F001031847C84D0400E84D040002
:100200000A444FF0000C10F8013B13F0070408BF3C
:1002100010F8014B1D1108BF10F8015B641E05D0DA
:1002200010F8016B641E01F8016BF9D113F0080F8F
:100230001EBF10F8014BAD1C0C1B09D16D1E58BF21
:1002400001F801CBFAD505E014F8016B01F8016B58
:100250006D1EF9D59142D6D37047000000230024CB
:1002600000250026103A28BF78C1FBD8520728BFC6
:1002700030C148BF0B60704766292BF0EC816429C0
:1002800000F02481002070471FB52BF0DAF900F050
:10029000A9FD0400002000212AF01EFDE0601FBD22
:1002A00010B510BD00F0BAFE1146FFF7EDFF22F0C9
:1002B00039FF00F0D8FE03B4FFF7F2FF03BC04F0EF
:1002C000D6FF00002C4B19680868B0E8F04F80F3A7
:1002D0000988BFF36F8F4FF0000080F311887047DB
:1002E0000000000008480068006880F308884FF0AC
:1002F000000080F3148862B661B6BFF34F8FBFF37E
:100300006F8F00DF00BF00BF08ED00E0DFF80C00DA
:10031000016841F470010160704700BF88ED00E0A2
:10032000EFF30980BFF36F8F134B1A681EF0100FA5
:1003300008BF20ED108A20E9F04F106009B44FF09B
:10034000500080F31188BFF34F8FBFF36F8F29F0F8
:1003500015FF4FF0000080F3118809BC1968086888
:10036000B0E8F04F1EF0100F08BFB0EC108A80F319
:100370000988BFF36F8F70472C000020EFF30580D2
:10038000704700000948804709480047FEE7FEE73C
:10039000FEE7FEE7FEE7FEE7FEE7FEE7FEE7FEE735
:1003A00004480549054A064B70470000753A0008A5
:1003B000C5010008085F01200865012008610120CF
:1003C00008610120704753EA020C00F069802DE9B2
:1003D000F04B4FF00006002B1FBFB3FA83F503FA72
:1003E00005F424FA05F65E4012BF1643B2FA82F510
:1003F00002FA05F4C5F120051EBF22FA05FC44EA05
:100400000C04203556EA044C4FEA144418BF641C0F
:100410004FF000084FF00009904271EB030C39D304
:10042000002919BFB1FA81F701FA07F6B0FA80F78F
:1004300000FA07F6C7F120071EBF20FA07FC46EABC
:100440000C062037B6FBF4FCA7EB0507103F07F0BE
:100450001F0BCBF120060CFA0BFB2CFA06F644BF5F
:10046000B3460026202FA4BF5E464FF0000B5BEA88
:10047000060C08BF4FF0010B19EB0B09ABFB027C1C
:1004800048EB0608C01B06FB02CC0BFB03CC71EB50
:100490000C01C1E70B46024641464846BDE8F08BD9
:1004A00013B54FF000004FF00001AFF30080BDE83E
:1004B0001C4070470FB4044910B503AA029800F01D
:1004C0005DFC10BC5DF814FB180000202DE9F04124
:1004D0000646002410687529314616A510D0AFF3E2
:1004E0000080002802DA404213A507E031688A073D
:1004F00001D512A502E0490704D511A5012401E0A8
:10050000AFF3008000210A2206F1240709E0B0FBC6
:10051000F2FCB0FBF2F302FB1C00303078541846BA
:10052000491C0028F3D123462A463046BDE8F04155
:1005300000F0BCB9000000002D0000002B000000FE
:10054000200000002DE9F0474FF0000A89460446DC
:10055000C0F820A02046E1688847002876D02528EA
:1005600006D0D4E901219047206A401C2062F1E7BF
:10057000E168204600258847C4F81CA006460027ED
:10058000C4F818A02A2E09D0304603F070FD38B305
:1005900004EB8708303EC8F8186019E059F8041BCE
:1005A000204604EB87029161E1688847012F0646E7
:1005B00018D1E069002820DA25F020051DE0D8F8E0
:1005C000180000EB800006EB40003038C8F8180037
:1005D0002046E1688847064603F049FD0028EED131
:1005E000012F0AD02E2E08D12046E16888477F1CB3
:1005F0000646022F45F02005C4DBA069002803DA77
:10060000404245F00105A061E80701D025F0100542
:10061000B6B1A6F14100192802D8203645F400658C
:100620004A463146204625604D46FFF725FE58B123
:10063000012806D0ED1D25F0070000F1080989E723
:1006400004E005F1040985E730468AE7206ABDE841
:10065000F08740EA0103024630B59B0710D14FF006
:10066000013400E008C208C91D1B9D4315EAC41FE0
:10067000F8D013F0FF0102F8011B0DD01B0AF8E7B8
:1006800011F8013B002B02F8013B05D011F8013BAA
:10069000002B02F8013BF3D130BD10B5431C02E042
:1006A00010F8011B71B18107FAD14FF0013202C875
:1006B0008C1A8C4314EAC211F9D0C01A0A0603D06E
:1006C000C01E10BDC01A10BD0A0401D0801E10BD8E
:1006D0000902FCD0401E10BD032A40F2308010F009
:1006E000030C00F0158011F8013BBCF1020F6244CD
:1006F00098BF11F801CB00F8013B38BF11F8013B5E
:10070000A2F1040298BF00F801CB38BF00F8013B0A
:1007100011F0030300F02580083AC0F0088051F87A
:10072000043B083A51F804CBA0E80810F5E7121D85
:100730005CBF51F8043B40F8043BAFF30080D207A4
:1007400024BF11F8013B11F801CB48BF11F8012B70
:1007500024BF00F8013B00F801CB48BF00F8012B93
:10076000704710B5203AC0F00B80B1E81850203A1D
:10077000A0E81850B1E81850A0E81850BFF4F5AF41
:100780005FEA027C24BFB1E81850A0E8185044BFCB
:1007900018C918C0BDE810405FEA827C24BF51F838
:1007A000043B40F8043B08BF7047D20728BF31F82C
:1007B000023B48BF11F8012B28BF20F8023B48BF7D
:1007C00000F8012B704702F0FF0343EA032242EADC
:1007D000024200F0E7BA4FF0000200B5134694461B
:1007E0009646203922BFA0E80C50A0E80C50B1F189
:1007F0002001BFF4F7AF090728BFA0E80C5048BF9D
:100800000CC05DF804EB890028BF40F8042B08BF3A
:10081000704748BF20F8022B11F0804F18BF00F836
:10082000012B70474FF0013C50F8042B51F8043B6A
:100830009A4221D1A2EB0C03934313EACC1317D1B4
:1008400050F8042B51F8043B9A4215D1A2EB0C034B
:10085000934313EACC130BD150F8042B51F8043B0B
:100860009A4209D1A2EB0C03934313EACC13DBD0D9
:100870004FF00000704700BFD01A01BAB1FA81F101
:1008800001F0180122FA01F0CB40C1F12001DBB2E6
:10089000C0B2C01A2CFA01F3D11A914311EAC31164
:1008A000E6D1704770477047704770472DE9F047B1
:1008B0000D4699469246044600F1240801688806D0
:1008C00004D5E06921F01001216000E00120A84278
:1008D00001DD471B00E00027A1697A1902EB09003E
:1008E000081AA0612078C00602D42046AFF3008029
:1008F000002608E0D4E901211AF806009047206A92
:10090000401C761C20624E45F4DB2078C0060AD5D8
:100910002046AFF3008006E0D4E901213020904763
:10092000206A401C2062381EA7F10107F4DC07E0B2
:10093000D4E9012118F805009047206A401C206284
:10094000281EA5F10105F3DC2046AFF300802078D6
:10095000000602D50220BDE8F0870120FBE77047C2
:100960002DE9FF4F0C461E464FF0FF378BB0D2E902
:100970000001DDF860800A908A46C1F30A5505B986
:100980003D46002108464FF00000BAF1000F00F488
:10099000400005DA00EB80004FF4400101EA50000E
:1009A0004FEA9059B9F1010F00DDB9460A9850EAB3
:1009B0004A000ED044F61050A5F2FF3545432F14DF
:1009C000B8F1000F1ED07542291E1EDDC9F10002CC
:1009D0001CE0B8F1010F4FF0000001D0302103E01E
:1009E000F24305E02154401CB042FBDB30460022BC
:1009F000002121540B99C1F80880C1E900200FB0F3
:100A0000BDE8F08FBD1B6D1CDEE74A4600DA694287
:100A100006A800F089FA06AB93E8070003AB83E869
:100A2000070050460A9900F027FB8DE80700A0F563
:100A300000501F3800900398002D0ADD42F21F017C
:100A40004A460844002303A90390684600F090FD3D
:100A500009E0A0F500504A461F38002303A903907F
:100A6000684600F09AFD8DE807000004000C03D0F2
:100A70004FF0FF30410800E01046B8F1000F03D0FE
:100A80000022009215461EE0751E05D400F0AEF956
:100A9000303262556D1EF9D5B3460122084302D0AB
:100AA00000227F1C04E02078302801D100227F1E24
:100AB000002A099784D01DE0112D07DA00F096F97D
:100AC000303262556D1C50EA0102F5D1084302D064
:100AD0000098C8B10EE00021681E05E0235C625C4E
:100AE00063542254401E491C8142F7DBAB46A81BCD
:100AF000401E0990002004F80B000B98099AC0F8DA
:100B00000880C0E9002B7AE711264FF0000857E76C
:100B10002DE9F04F88460446D21D22F0070191B01E
:100B2000D1E90001CDE90A0103F05BFA02460B9816
:100B3000C00F01D02D2007E02068810701D52B20B0
:100B400002E0202101EAC000032A099001D0072A0F
:100B500005DB03464146204600F0A6F90BE120786C
:100B6000800601D5E06900E00620B8F1650F8146F6
:100B700006D0B8F1660F18D0B8F1670F70D131E028
:100B80000020B9F1110F009001DB112301E009F100
:100B900001030AAA01A90CA8FFF7E2FEDDE90C7027
:100BA000002609F10105834647E001204B460090ED
:100BB0004FF000470AAA01A90CA8FFF7D1FEDDE912
:100BC0000DB00C995D46002610B909F101000D1811
:100BD000B9EB050003D4C0F1FF3609F10105A5EB1F
:100BE00009002BE0B9F1010F01DA4FF001090020F3
:100BF000B9F1110F0090484601DD112300E00346D2
:100C00000AAA01A90CA8FFF7ABFEDDE90C704D465E
:100C100000268346207800070AD4AB4500DA5D46FB
:100C200001A8012D04DD411911F8011C302907D05C
:100C30004F4502DA17F1040F04DA012082460FE073
:100C40006D1EEEE7002F02DCED1B3E4403E0781C36
:100C5000A84200DD7D1CB81B00F1010A4FF00047DF
:100C60002078000703D4AA4501DB4FF0FF3A0021AA
:100C7000B7F1004F0DF143088DF8431024D0022046
:100C80002B23002F01DA7F422D230A21021EA0F11F
:100C9000010000DC5FB197FBF1FC97FBF1F201FB77
:100CA0001C7C17460CF1300C08F801CDEEE7A8F1DA
:100CB000010003702188090501D5452100E0652167
:100CC000A0F1010800F8011C09980FA9A1EB080781
:100CD000FF1D00B10120411901EBEA70A169384400
:100CE000081A401EA0612078C00602D42046AFF347
:100CF0000080099828B1D4E901219047206A401C5E
:100D000020622078C00622D52046AFF300801EE086
:100D1000002E04DBB34502DD01A8805D00E0302039
:100D2000D4E901219047206A401C2062761CAAF178
:100D300001005FEA000A0AD100F054F8C0680168B7
:100D4000405CD4E901219047206A401C2062281EA3
:100D5000A5F10105DCDC07E0D4E9012118F8010B5D
:100D60009047206A401C2062381EA7F10107F3DC7F
:100D70002046AFF30080032011B041E6074B70B569
:100D80000D467B4400F07DF80446284600F03EF90D
:100D900010B14FF0FF3070BD204670BDA7F70000C6
:100DA0004FF000020429C0F0128010F0030C3FF451
:100DB00014ADCCF1040CBCF1020F18BF00F8012BEC
:100DC000A8BF20F8022BA1EB0C01FFF706BD5FEADC
:100DD000C17C24BF00F8012B00F8012B48BF00F8AC
:100DE000012B704700487047C45E012030B5B0F158
:100DF0000A024FEA900E71F100034EEA817EB0EBD9
:100E00000E0061EB91014FEA101E4EEA017E10EBDD
:100E10000E0041EB11114FEA102E4EEA016E10EB5D
:100E20000E0041EB11214FEA104E4EEA014E10EB3D
:100E30000E0041EB1141401841F100014FEAD00092
:100E400040EA41704FEAD10110EB80054FEA81047E
:100E500044EA907444EB01046D1944EB0404521B02
:100E6000A3414FF0000348BF0A3200D530BD401CFB
:100E700041F1000130BD000001694A1C026108789F
:100E8000704700B58FB0CDE90131002105910549CA
:100E90007944CDE9031011466846FFF753FB0FB0C4
:100EA00000BD0000E5FFFFFF2DE9F0411F460446AD
:100EB00003260168072A01F4006004DB08B116A5C7
:100EC00005E016A503E008B115A500E015A521F081
:100ED00010002060A069C01EA0610FB1401EA0617B
:100EE0002046AFF300804FB1D4E901213846904746
:100EF000206A401C2062C01C206206E0206AFAE7DB
:100F0000D4E9012115F8010B9047761EF8D220464E
:100F1000AFF30080BDE8F0814E414E006E616E007F
:100F2000494E4600696E66002DE9F0478146164637
:100F30008AB0354878440DC88DE80D0032487844B1
:100F4000801C03AC0DC884E80D0041F69B300844BA
:100F5000372190FBF1F290FBF1F5A5F1800501FB43
:100F600012041B3C02D56442012000E00020DFF89F
:100F700098A080460027FA44AAF1BE0A0EE0E007D6
:100F80000AD03246684607EB470101230AEB81018C
:100F900000F003FB8DE8070064107F1C002CEED1ED
:100FA000194F7F44AE3F19E0E80715D007EB041056
:100FB0000DF1180A90E80E008AE80E00C068F042B1
:100FC00001D1981908903246012306A903A800F020
:100FD000E4FA03AB83E807006D10641C002DE3D135
:100FE0004FF0010332466946B8F1000F03A802D062
:100FF00000F0BEFA01E000F0D0FAC9E90001C9F83A
:1010000008200AB0BDE8F087143B0400007B00F024
:101010008000704700487047A45E01207546FFF7C6
:10102000F9FFAE4605006946534620F007008546A5
:1010300018B020B5FFF7B4F9BDE820404FF0000626
:101040004FF000074FF000084FF0000B21F00701B0
:10105000AC46ACE8C009ACE8C009ACE8C009ACE8F3
:10106000C0098D46704710B50446AFF30080204696
:10107000BDE81040FFF71FB95FEA400C08BF91F0D0
:10108000000F4FEA8C234FEAC12243EA51514FEA45
:101090001C5018BF00F5F0404FEA300018BF41F077
:1010A00000415FEA6C5C00F02980BCF1FF3F08BFA3
:1010B00040F080407047130C06BF12044FF0100C34
:1010C0004FF0000C130E04BF12020CF1080C130FAA
:1010D00004BF12010CF1040C930F04BF92000CF139
:1010E000020CD30F04BF52000CF1010C11464FF05B
:1010F0000002A0F11F00A0EB0C00704711F0004FA0
:1011000008BF704731F000413FF4D5AF0B0C06BF6C
:1011100009044FF0100C4FF0000C0B0E04BF090235
:101120000CF1080C0B0F04BF09010CF1040C8B0F20
:1011300004BF89000CF1020CCB0F04BF49000CF175
:10114000010CCCF12003A0EB0C0022FA03F302FA0D
:101150000CF241EA030100F10100704720F07F4CDE
:1011600080EA030023F07F47ACEB070303F57C53D1
:1011700000F0004003F1FF032DE980494FEA154BD1
:1011800009B44FEA144325EA0B4E24EA03480FF250
:10119000042606EB132749083E785FEA320203FB78
:1011A0000667C7F5000707FB06F64FEA54374FEA14
:1011B000D64606F1020607FB066CCCF1005C4FEA4E
:1011C0001C472CEA074C07FB06F40CFB06F504EB66
:1011D00015464FEA961634BF00204FF000404FEA04
:1011E000D13706FB07FC4FEA1C4C0CFB0BF7D21B5C
:1011F00003FB0CF761EB07010CFB0EF7B0EB0740AC
:1012000072EB17420CFB08F734BFA2EB0742B2EBBC
:10121000074261EB17414FEA0C444FEA910706FB86
:1012200007FC4FEA1C4C0CFB0BF7B0EBC74072EB12
:10123000573203FB0CF734BFA2EBC742B2EBC742F5
:1012400061EB57310CFB0EF7B0EBC70072EB577236
:101250000CFB08F734BFA2EBC702B2EBC70261EB8D
:101260005771039F4FEA816141EA921104EBCC046C
:101270004FEAD1374FEA826206FB07FC42EA90123E
:101280004FEA80604FEA1C4C0CFB0BF7D21B03FBB0
:101290000CF761EB07010CFB0EF7B0EB074072EBAC
:1012A00017420CFB08F734BFA2EB0742B2EB074230
:1012B00061EB17414FEA8C554FEA910704EB9C24F0
:1012C00006FB07FC4FEA1C4C0CFB0BF7B0EBC740CE
:1012D00072EB573203FB0CF734BFA2EBC742B2EB01
:1012E000C74261EB57310CFB0EF7B0EBC70072EB56
:1012F00057720CFB08F734BFA2EBC702B2EBC70270
:1013000061EB577115EB4C254FEA816141EA92116F
:101310004FEA82624FEAD13742EA901206FB07FC9D
:1013200044F100044FEA80604FEA1C4C0CFB0BF7C1
:10133000D21B03FB0CF761EB07010CFB0EF7B0EBC4
:10134000074072EB17420CFB08F734BFA2EB0742D1
:10135000B2EB074261EB174115EB1C154FEA8131E7
:1013600041EA92414FEA823242EA90424FEA8030AB
:101370004FEA0C7644F1000448EA03434EEA0B4876
:101380004FF0000EB2EB080C71EB030724BF62466E
:1013900039464EEB0E0E4FF0000B001852414941FA
:1013A0004BEB0B0BB2EB080C71EB03077BF1000B63
:1013B00024BF624639464EEB0E0E4FF0000B00186C
:1013C000524149414BEB0B0BB2EB080C71EB03079D
:1013D0007BF1000B24BF624639464EEB0E0E51EAFC
:1013E000020718BF46F0010616EB0E7655F1000213
:1013F00054F1000103D5BDE88901BDE80088BDE8CE
:101400008901BDE80048B619524141EB0101A3F141
:101410000103704780807F7E7D7C7B7A7978777648
:1014200076757473727171706F6E6E6D6C6C6B6AC1
:101430006A6968686766666564646363626161605F
:10144000605F5F5E5E5D5D5C5C5B5B5A5A595958DC
:101450005857575656555555545453535252525146
:10146000515050504F4F4F4E4E4D4D4D4C4C4C4B9C
:101470004B4B4A4A4A4949494848484747474746E3
:10148000464645454544444444434343434242421F
:1014900042414141002B9C4630D477002BD01CB5F3
:1014A0004FEA370703B44FF010004FF01001BAF1C4
:1014B000000F06D0BCF1000FDCBF40F0080040F088
:1014C00008014FF000000FBCBDE810400BF1010B0C
:1014D000BBF1010F08BF5FEA170722BF12F101023B
:1014E00011F101014FF0004143F1000300F0004011
:1014F00043EA00007047F9D35708D0E746EA0646AA
:1015000013F1400F4FEA16461FDD13F1200FDFBF26
:1015100016430A46002120335B42BED0C3F12007A8
:1015200046EA064602FA07F74FEA164646EA070673
:10153000C3F1200722FA03F201FA07F721FA03F1B7
:101540004FF0000342EA0702A7E746EA020646EA2E
:1015500006464FEA164646EA0106BCBF46EA06467C
:10156000360C4FF000034FF000024FF0000194E7FB
:101570002DE9804C9A46934670B491E8380007C82C
:1015800031EA400C48BF34EA430C03D5FFF7E6FDCF
:10159000FFF780FFF0BCBDE8008C2DE9804C9A4637
:1015A000934670B491E8380007C810F0804F08BF28
:1015B00013F0804F03D100F005F8FFF76BFFF0BC8C
:1015C000BDE8008C20F07F4780EA030023F07F4CC9
:1015D00007EB0C03A3F57C5300F00040A3F1FE03DE
:1015E00092F0000F00F0B38095F0000F00F07780CC
:1015F0002DE901494FEA11404FEA144621EA00481B
:1016000000FB06FC24EA064708FB06F607FB08F881
:1016100000FB07F718EB06484CEB164C4FEA124B51
:1016200018EB07484FEA15464CEB174022EA0B4EE1
:101630000BFB06FC25EA06470EFB06F607FB0EFE33
:101640000BFB07F71EEB064E4CEB164C4FF000065B
:101650001EEB074E4CEB174B18EB0B0840F100004C
:1016600018EB0E0B58EB000840F100008F1A4FF0FA
:1016700000013CBFC943661B14BFB5EB040C00213D
:101680003CBFC943F61B4FEA17444EEA8E0E27EAC9
:1016900004454FEA1C4704FB07622CEA074C05FB94
:1016A00007F70CFB05F604FB0CFC16EB074642EBB8
:1016B000174216EB0C4642EB1C421BEB060658EB9E
:1016C0000202414146EA9E0601D5BDE80189B619EC
:1016D000524141EB0101A3F10103BDE801894FEA49
:1016E00014454FEA114724EA054621EA074C05FB59
:1016F00007F406FB07F70CFB06F105FB0CFC11EBEE
:10170000074144EB17444FEA124711EB0C4144EBFD
:101710001C4422EA074C05FB07F206FB07F70CFB0B
:1017200006F605FB0CFC16EB074642EB174216EBE0
:101730000C4642EB1C456A1854F1000148BF704743
:10174000B619524141EB0101A3F10103704795F035
:10175000000F37D04FEA11424FEA144721EA024600
:1017600024EA074C02FB07F106FB07F70CFB06F423
:1017700002FB0CFC14EB074441EB17414FEA154701
:1017800014EB0C4441EB1C4125EA074C02FB07F526
:1017900006FB07F70CFB06F602FB0CFC16EB0746F4
:1017A00045EB174516EB0C4645EB1C42121951F15F
:1017B000000148BF7047B619524141EB0101A3F146
:1017C000010370474FEA14454FEA114724EA0546E2
:1017D00021EA074C05FB07F106FB07F70CFB06F2B5
:1017E0004FF0000605FB0CFC12EB074241EB1741E2
:1017F00012EB0C4251EB1C4148BF7047921841EB71
:101800000101A3F101037047464910B54A6822F46B
:1018100040324A604A6843681A434A6001684A682D
:1018200022F480724A6001684A68036942EA03222E
:101830004A6001684A6822F040724A6001684A685A
:1018400083681A434A6001688A6822F400628A60E9
:1018500001688A68C3681A438A60816A6FF070629F
:10186000D14201688A6822F070628A6001688A68E1
:101870000CD0836A1A438A6001688A6822F0405259
:101880008A6001688A68C36A1A4301E022F0405204
:101890008A6001688A6822F002028A6001688A68A8
:1018A000037E42EA43028A6090F820100029016812
:1018B0004A680FD042F400624A6001684A6822F424
:1018C00060424A6001684A68174C436A04EB43333C
:1018D0001A4301E022F400624A600168CA6A22F4F5
:1018E0007002CA620168CA6A838B104C04EB03530E
:1018F0001A43CA6201688A6822F400728A60016829
:101900008A6890F8303042EA43228A6001688A6827
:1019100022F480628A6001688A68406942EA802015
:10192000886010BD0023014000E0FFFF0000F0FFD1
:10193000FEE7704772B6FEE770B5B3F5804F05D08D
:101940006FF0704140F82210002070BD50F8224026
:10195000084B8E891C40D1E9003543EA05138D6898
:1019600089692D0245EA06452B430B43234340F882
:101970002230E9E70000F0CFF0B50C6850F82430D1
:101980001A4A1340D1E90125D1E903672A433E43AE
:1019900032434E693243CE6932430E6A32434E6A55
:1019A00032438E6A3243CE6A32430E6B32434E6B01
:1019B0003243CE6B32438E6B32431A43082D01D132
:1019C00042F0400240F824204A6BB2F5801F05D156
:1019D0000A684AB1026842F4801202600A681AB1C9
:1019E0000268896B0A4302600020F0BD8004C0FFDA
:1019F000F0B500EB8204626802F04045D1E90023B3
:101A000042EA03128B688E891B0243EA06431A439B
:101A10000E8A0D4B03EB065632430E7D5F0107EB3A
:101A2000066632438E6932432A4362600268D202FC
:101A300007D54268098A22F4700203EB0151114371
:101A400041600020F0BD00000000F0FF78B50024E8
:101A5000009490F83C20012A19D0012280F83C2003
:101A60000A6807230568092A13D9EE680A3A02EBC7
:101A7000420293409E43EE600B788A680A3B03EB78
:101A800043039A400368DD682A43DA6010E00220CD
:101A900078BD2E6902EB420293409E432E610B7883
:101AA0008A6803EB43039A4003681D692A431A615D
:101AB0004A681F23072A13D205686E6B521E02EB79
:101AC000820293409E436E630B790A885B1E92B23A
:101AD00003EB83039A4003685D6B2A435A6327E054
:101AE00005680D2A12D22E6BD21F02EB82029340A0
:101AF0009E432E630B790A88DB1F92B203EB8303AC
:101B00009A4003681D6B2A431A6311E0EE6A0D3A8E
:101B100002EB820293409E43EE620B790A880D3BF2
:101B200092B203EB83039A400368DD6A2A43DA62C8
:101B3000164B0568144A9D4206D10D68122D03D13B
:101B4000556845F48005556005689D4218D10B68BD
:101B5000102B01D0112B13D1536843F400035360B1
:101B6000096810290CD10A490A4A0968B1FBF2F147
:101B700001EB8101490000E0491E00910029FBD1E1
:101B800080F83C40002078BD002301400020014047
:101B90002800002040420F000068C06C704770B5FC
:101BA00004004FF0000503D0206C002610B107E0C0
:101BB000012070BD204600F01DF8666484F83C608A
:101BC000206CC00610D4206C20F4885040F0020035
:101BD00020642046FFF718FE6664206C20F00200A7
:101BE00040F00100206400E0012584F83C602846B4
:101BF00070BD000010B586B0044614216846FEF79B
:101C0000EAFD1149206888421CD110480021026871
:101C100042F480720260006800F4807005900B4806
:101C20001438026842F001020260006800F001000E
:101C30000590012000900320CDE901016946044888
:101C400000F086F906B010BD002001404438024083
:101C5000000002402DE9F041044600680D4681680D
:101C60004FF0000749050BD58068C00508D5206CEA
:101C700040F02000206484F83C700120BDE8F08131
:101C800000F046FA064613E0681C11D025B100F0BA
:101C90003FFA801BA8420BD920680068800707D450
:101CA000206C40F00400206484F83C700320E5E7D9
:101CB000206800688007E7D521686FF0120008608F
:101CC000206C40F4007020642068816811F0405F4F
:101CD00013D1217E89B9C16A11F4700F02D08068D6
:101CE00040050AD4206C20F480702064206CC0046D
:101CF00003D4206C40F0010020640020BEE7000007
:101D000018B50021009190F83C20012A07D001224B
:101D100080F83C2002689368DB0702D011E00220C3
:101D200018BD936843F001039360244A244B126862
:101D3000B2FBF3F202EB420200E0521E0092002AD4
:101D4000FBD102689368DB072ED0036C40F201647C
:101D5000A34343F48073036453685B0505D5036CA8
:101D600023F4005343F480530364036CDB0404D571
:101D7000436C23F00603436400E0416480F83C10A8
:101D800010496FF02203136049680068C90602D049
:101D90000D49884210D1816811F0405F0CD18168F3
:101DA00041F08041816007E0016C41F01001016465
:101DB000416C41F001014164002018BD2800002061
:101DC00040420F0000230140002001402DE9F04176
:101DD0000446876D00F09CF9064694F8350000250E
:101DE000022806D08020606584F834500120BDE8C8
:101DF000F0812068016821F01601016020684169C6
:101E000021F080014161206C08B9A06C20B12068EC
:101E1000016821F0080101602068016821F00101DA
:101E200001600CE000F074F9801B052807D9202020
:101E30006065032084F8350084F83450D7E72068C3
:101E40000068C007EED194F85C103F208840B8606D
:101E5000012084F8350084F834500020C7E790F85A
:101E60003510022903D080214165012070470521EA
:101E700080F835100068016821F001010160002040
:101E80007047000070B5044600F042F90546601C3A
:101E900002D004480078044400F03AF9401BA04204
:101EA000FAD370BD1C0000202DE9F04387B0142147
:101EB0006846FEF790FC2148016800293AD10121CB
:101EC00001601F480024016841F0010101600068C1
:101ED0003C2700F001004FF00C080097CDE904808A
:101EE000032602250396DFF85C90CDE9015469468C
:101EF000484600F02DF802AA694682E85001CDE973
:101F00000075114800F024F86803CDE9000502AA25
:101F10000A2782E8D00069460C4800F019F84FF40F
:101F2000C250CDE9000502AA694682E8D0004846C1
:101F300000F00EF807B0BDE8F083000010000020AC
:101F4000383802400008024000000240000402400D
:101F50002DE9F84FDFF890A1002201240AF1040BCB
:101F600003254FF00F090BF1040E00BF0B6804FAB4
:101F700002F63340B3426ED10F7907F00307012F09
:101F800001D0022F16D187684FEA420805FA08FCF3
:101F900027EA0C07D1F80CC00CFA08FC4CEA070C35
:101FA000C0F808C04768B7430E79C6F300169640DC
:101FB0003E4346600E79F643B6070AD0C6684FEA3C
:101FC000420C05FA0CF7BE438F6807FA0CF737434B
:101FD000C7600E7906F00306022E10D1D60800EB7A
:101FE0008608D8F8206057074FEAD76C09FA0CF733
:101FF000BE430F6907FA0CF73743C8F8207006682C
:102000004FEA420C05FA0CF7BE430F7907F00307BD
:1020100007FA0CF7374307604E6816F4403F5CD070
:10202000324E376847F480473760366822F003073E
:1020300006F4804600962E4E07EB060CDCF8086886
:1020400097074FEA177809FA08F7BE43294FB842B5
:1020500002D1002710E040E0274FB84201D101270C
:102060000AE0264FB84201D1022705E0244FB842CA
:1020700001D1032700E0072707FA08F73743CCF818
:102080000878DAF800605746D1F804C09E435FEA4A
:10209000CC3C00D51E433E60DBF800605F46D1F8C3
:1020A00004C09E435FEA8C3C00D51E433E60DEF8D0
:1020B00000607746D1F804C09E435FEACC2C00D57F
:1020C0001E433E60084F0C373E68D1F804C09E4363
:1020D0005FEA8C2C00D51E433E60521C102AFFF490
:1020E00045AFBDE8F88F0000003C01404438024095
:1020F000003001400000024000040240000802409D
:10210000000C02400AB1816170470904FBE700003E
:1021100001488068704700001C00002070B5040072
:1021200004D094F83D00002510B106E0012070BDF8
:1021300084F83C50204600F0EDFF242084F83D0058
:102140002068C16821F40051C160204601F064FE9E
:102150002068016921F4904101612068416921F002
:10216000220141612068416941F008014161206814
:10217000C16841F40051C1602564202084F83D000D
:1021800084F83E00002070BD024881680278114446
:10219000816070471C0000200B4810B5016841F4B5
:1021A00000710160016841F480610160016841F4DF
:1021B00080710160032000F08DF80F2000F006F818
:1021C00000F03EF8002010BD003C024010B5014672
:1021D00088B00022192000F05DF8192000F04CF8BA
:1021E00013480024016841F001010160006805A95D
:1021F00000F001000690684600F018F900F046F97A
:102200000C490D4AB0FBF1F10C48491E026040F246
:10221000E732C0E90324C0E9011400F0AFFB10B1BC
:10222000012008B010BD054800F0D6FBF9E700001A
:102230004438024040420F0000000140C815002011
:102240000C4882B0016841F480410160006800F4EC
:10225000804000900748001F016841F080510160F4
:102260000068002200F0805000900F21901E02B004
:1022700000F010B844380240002809DB00F01F02CB
:10228000012191404009800000F1E020C0F80011D8
:1022900070470000F0B40E4B1B680C46C3F30223DA
:1022A000C3F10705042D00D90425191D072901D202
:1022B000002300E0DB1E012606FA05F1491E21403D
:1022C00099409E40761E16403143F0BC01F0A1BEFD
:1022D0000CED00E0064900F0070208684FF6FF0326
:1022E000184040EA0220034A10430860704700008B
:1022F0000CED00E00000FA052DE9F0470E46050060
:1023000065D0DFF81481D8F80000F7B200F00700BC
:10231000B04207D288F80070D8F8000000F007003B
:10232000B04254D128683D4C810712D5400703D5EF
:10233000206840F4E05020602878000703D520682A
:1023400040F4604020602068A96820F0F000084355
:1023500020602878C0072DD03049686808390128E6
:1023600012D0022813D0032811D009688907002948
:102370002DDA216821F0030101432160FFF7C8FE37
:10238000814641F2883A0EE009688903EFE709685F
:102390008901ECE7FFF7BCFEA0EB0901514502D92A
:1023A0000320BDE8F0872068696800F00C00B0EBFE
:1023B000810FEFD1D8F80010404601F00701B1427B
:1023C00007D90770006800F00700B04201D0012073
:1023D000E7E72878400705D52068E96820F4E05051
:1023E000084320602878000706D52068296920F472
:1023F000604040EAC100206000F058F82168084AB7
:10240000C1F30311515CC8400649086006480068E2
:10241000FFF7DCFE0020C4E7003C02400838024021
:10242000ECB6020828000020200000200F220260E5
:102430000C4A136803F003034360136803F0F003CE
:102440008360136803F4E053C36012684FF4E053F1
:1024500003EAD20202610448006800F00700086045
:102460007047000008380240003C0240044805491B
:1024700000680968044AC1F38221515CC840704772
:102480002800002008380240FCB60208044805492C
:1024900000680968044AC1F34231515CC840704782
:1024A0002800002008380240FCB60208154810B584
:1024B000006810F00C02144813D04110042A0FD009
:1024C000082A0ED10F4C241F2268236802F03F0215
:1024D0005B0207D52068C0F38810A0FB010106E06D
:1024E000084610BD2168C1F38811A1FB000100233B
:1024F000FDF769FF2168C1F30141491C4900B0FBA8
:10250000F1F010BD083802400024F4002DE9F84F26
:1025100004006ED02078DFF86093C007A9F10405AD
:102520004AD009F104000168C1F38101012908D0F2
:102530000068C0F3810002280AD1D9F800004002E7
:1025400006D52868800337D560680028E1D033E0DD
:102550006068B0F5803F10D0B0F5A02F286810D08B
:1025600020F480302860286820F48020286060688B
:10257000A8B1FFF7CDFD06460DE0286840F4803095
:10258000F4E740F480202860F7E700BFFFF7C0FDC4
:10259000801B642873D828688003F7D50CE0FFF708
:1025A000B7FD064605E000BFFFF7B2FD801B6428BB
:1025B000F0D828688003F7D42078DFF8C08280073D
:1025C0004FF0000A3ED5AC48001D016811F00C0F19
:1025D00008D00068C0F3810002280BD1D9F80000B0
:1025E000400207D42868800716D5E068012800D18A
:1025F00012E03CE1E068B8B10120C8F80000FFF744
:1026000087FD064605E000BFFFF782FD801B02281C
:10261000C0D828688007F7D52868216920F0F8001D
:1026200040EAC10028600DE0C8F800A0FFF770FD87
:10263000064604E0FFF76CFD801B02281FD82868BF
:102640008007F7D42078000722D58B4E8C4861692B
:10265000703671B101210160FFF75AFD074604E0B1
:10266000FFF756FDC01B022809D830688007F7D550
:102670000EE0C0F800A0FFF74BFD074605E082E042
:10268000FFF746FDC01B02287DD830688007F7D4CD
:102690002078400768D5DFF8E0B100270BF13C0B4C
:1026A000DBF80000C0000BD4DBF8001041F08051D3
:1026B000CBF80010DBF80000012700F080500090FC
:1026C000704E3068C00510D4306840F480703060BF
:1026D000FFF71EFD009005E0FFF71AFD0099401A74
:1026E000022850D83068C005F6D5634EA0686C3615
:1026F00001280FD00528306810D020F0010030608C
:10270000306820F004003060A068B8B1FFF700FD29
:1027100000900FE0306840F00100F4E740F0040062
:102720003060F7E7FFF7F4FC0099411A41F2883076
:10273000814268D830688007F4D50EE0FFF7E8FCE6
:10274000009007E0FFF7E4FC0099411A41F288305D
:10275000814258D830688007F4D42FB1DBF80010DC
:1027600021F08051CBF80010A069D8B34249091D6F
:102770000968C1F3810102294CD00228504607D0D4
:10278000C8F8600000E03EE0FFF7C2FC04463DE010
:102790004746C8F86000FFF7BBFC064605E000BFEF
:1027A000FFF7B6FC801B02282DD828688001F7D4DB
:1027B000F4E907010843E168334A490802EB0141A3
:1027C000A26841EA82110843217C40EA0160217D30
:1027D00040EA0171C9F8001001203866FFF798FC43
:1027E000044606E045E000BFFFF792FC001B02280C
:1027F00009D828688001F7D53BE000BFFFF788FCC7
:10280000001B022802D90320BDE8F88F2868800148
:10281000F4D42EE00128F7D0D9F80000E26900F4E2
:102820008001914223D1226A00F03F0191421ED1E2
:1028300047F6C071626A0140B1EB821F17D1A26AEC
:102840004FF0FF3300F4403103EB5202B1EB024F83
:102850000DD194F82C2000F07061B1EB026F06D11D
:1028600094F8301000F0E040B0EB017F01D001207F
:10287000CAE70020C8E700000438024000004742D1
:10288000800E4742007000400000FFFF70B5154603
:102890000E46040003D094F8490010B107E001206F
:1028A00070BD002084F84800204600F01AF804F1BA
:1028B00008012068FFF760F83146A2682068FFF73A
:1028C00097F8D4E901022946236BFFF735F8A16890
:1028D000206850F8212042F0010240F82120002019
:1028E00070BDFFF7E1BA70477047000070B590F80F
:1028F0003C20012A32D0012480F83C40022280F89A
:102900003D2003685A689D6822F070060A683243C9
:102910005A60134B02689A4214D0B2F1804F11D022
:10292000104B9A420ED0104B9A420BD00F4B9A424A
:1029300008D00F4B9A4205D00E4B9A4202D00E4B54
:102940009A4204D1496825F080031943916080F8C8
:102950003D40002180F83C10084670BD022070BD4B
:10296000000001400004004000080040000C00404E
:1029700000040140004001400018004010B5040070
:1029800003D094F83D0010B107E0012010BD0020F5
:1029900084F83C00204600F01EF8022084F83D0038
:1029A000211D206801F074F8012084F8460084F8A5
:1029B0003E0084F83F0084F8400084F8410084F829
:1029C000420084F8430084F8440084F8450084F809
:1029D0003D00002010BD704790F83D10012901D046
:1029E00001207047022180F83D100168CA6842F05A
:1029F0000102CA6000681149884214D0B0F1804FCA
:102A000011D00F4988420ED00E4988420BD00E4992
:102A1000884208D00D49884205D00D49884202D02D
:102A20000C49884204D1816801F00701062903D0CE
:102A3000016841F001010160002070470000014081
:102A40000004004000080040000C00400004014069
:102A50000040014000180040704770B5044600680F
:102A600001694FF00005C943890715D4C168C943FE
:102A7000890711D4E91E016101202077206880694F
:102A80008007204602D0FFF7E7FF04E000F0C0F81F
:102A9000204600F065F9257720680169C943490798
:102AA00017D4C168C943490713D46FF00401016109
:102AB000022020772068806910F4407F204602D0F1
:102AC000FFF7CAFF04E000F0A3F8204600F048F941
:102AD000257720680169C943090716D4C168C9432D
:102AE000090712D46FF008010161042020772068E3
:102AF000C0698007204602D0FFF7AEFF04E000F077
:102B000087F8204600F02CF9257720680169C94331
:102B1000C90617D4C168C943C90613D46FF01001A0
:102B20000161082020772068C06910F4407F2046AA
:102B300002D0FFF791FF04E000F06AF8204600F0B1
:102B40000FF9257720680169C943C90708D1C16811
:102B5000C943C90704D1891E0161204600F066F906
:102B600020680169C943090609D4C168C943090637
:102B700005D46FF0800101612046FFF7B4FE2068A4
:102B80000169C943490609D4C168C943490605D446
:102B90006FF040010161204600F052F920680169A0
:102BA000C94389060BD4C168C943890607D46FF0AD
:102BB000200101612046BDE87040FFF795BE70BD61
:102BC00010B586B0044614216846FDF704FE0D4991
:102BD0002068884214D10C480021026842F00202A9
:102BE0000260006800F00200059040200090022082
:102BF000CDE90101CDE9031069460448FFF7A8F9C2
:102C000006B010BD00080040303802400004024009
:102C1000704770B5044690F83C0000260D46012828
:102C20000FD0012084F83C006AB1042A1DD0082A84
:102C30002FD00C2A3FD00126002084F83C003046DB
:102C400070BD022070BD206800F094FF206881698B
:102C500041F0080181612068816921F004018161EE
:102C6000206881692A69114311E0206800F0B2FFF1
:102C70002068816941F4006181612068816921F4E3
:102C800080618161206881692A6941EA022181614C
:102C9000D2E7206800F0D4FF2068C16941F0080144
:102CA000C1612068C16921F00401C1612068C16966
:102CB0002A69114311E0206800F0F6FF2068C1691D
:102CC00041F40061C1612068C16921F48061C16182
:102CD0002068C1692A6941EA0221C161ACE710B5E7
:102CE000040003D094F83D0010B107E0012010BDAE
:102CF000002084F83C00204600F01EF8022084F8F2
:102D00003D00211D206800F0C3FE012084F846002C
:102D100084F83E0084F83F0084F8400084F84100C5
:102D200084F8420084F8430084F8440084F84500A5
:102D300084F83D00002010BD08B5006806498842AF
:102D400008D10648016841F004010160006800F004
:102D50000400009008BD0000000800404038024018
:102D60007047000010B50446022249B104290ED074
:102D7000082913D094F84100012816D0012010BD75
:102D800094F83E000128F9D184F83E200FE094F831
:102D90003F000128F2D184F83F2008E094F8400079
:102DA0000128EBD184F8402001E084F84120012281
:102DB000206800F0D1FE16492068164A884201D0EA
:102DC000904203D1436C43F400434364206888423B
:102DD00013D0B0F1804F10D00F4988420DD00F4969
:102DE00088420AD00E49884207D0904205D00D494A
:102DF000884202D00C49884204D1816801F0070161
:102E0000062903D0016841F001010160002010BDD6
:102E100000000140000401400004004000080040A0
:102E2000000C0040004001400018004000680349C9
:102E3000884201D1FFF7A8B97047000000000140A7
:102E40007047704770470000F8B50168044608688D
:102E5000CA684B6910F00F0F4FF0000559D003F00E
:102E6000010602F49077374365D0C10705D0D1053C
:102E700003D5216C41F001012164410705D5D90733
:102E800003D0216C41F002012164810705D5D907E7
:102E900003D0216C41F004012164010707D502F041
:102EA0002001314303D0216C41F008012164216CE1
:102EB00000293AD0800604D5900602D5204600F0BD
:102EC0004AFF20684069216CC0F38010090700D4D4
:102ED00060B3204600F018FF20684069400621D505
:102EE0002068143050E8001F21F0400140E8001233
:102EF000002AF5D1A06BA8B16C490165A06BFEF763
:102F0000AEFF002811D0A06B016D01B0BDE8F0400C
:102F1000084783060FD593060DD52046BDE8F84037
:102F200000F019BF2046FFF78DFFF8BD2046FFF7E0
:102F300089FF2564F8BD266B2023012E79D1C606B2
:102F400077D5D60675D50868486800904869400668
:102F500040D5A16B086840680004000CEAD0A28D3F
:102F60008242E7D9E085C869B0F5807F2DD020681E
:102F70000C3050E8001F21F4807140E80012002A54
:102F8000F5D12068143050E8001F21F0010140E81D
:102F90000012002AF5D12068143050E8001F21F0FB
:102FA000400140E80012002AF5D184F83E30256344
:102FB00020680C3050E8001F21F0100140E800129A
:102FC000002AF5D1A06BFEF701FFA08DE18D401A1C
:102FD00081B229E0A08DE18D401A81B2E08D0028F8
:102FE000A8D00029A6D020680C3050E8002F22F489
:102FF000907240E80026002EF5D12068143050E889
:10300000002F22F0010240E80026002EF5D184F8BE
:103010003E30256320680C3050E8002F22F010026B
:1030200040E80023002BF5D12046FFF70AFFF8BD4A
:10303000FFE705062BD5150629D594F83D00212874
:10304000F5D1A068B0F5805F01D12069B0B1206AE8
:10305000411C2162216800784860E08C401E000419
:10306000000CE084E3D12068C16821F08001C160D8
:103070002068C16841F04001C160D8E7206A00883B
:10308000C0F308004860206A801C2062E5E7400623
:10309000CDD55006CBD5CA68204622F04002CA6082
:1030A00084F83D3000F0FFF8C1E70000F93C00086B
:1030B00070B5040004D094F83D00002510B106E07E
:1030C000012070BD84F83C50204600F023F82420F5
:1030D00084F83D002068C16821F40051C160204699
:1030E00000F09AFE2068016921F490410161206896
:1030F000416921F02A0141612068C16841F4005111
:10310000C1602564202084F83D0084F83E00002042
:1031100070BD000030B587B0044614216846FDF745
:103120005AFB274D22680021264803230724AA4280
:1031300025D1244A1432156845F01005156012682F
:1031400002F010020592026842F00102026000687B
:1031500001AA00F00100059058020090022082E8C8
:103160001B0069461848FEF7F3FE002205212520C2
:10317000FFF790F82520FFF77FF807B030BD134D1B
:10318000AA42FAD10F4A1032156845F4802515601D
:10319000126802F480220592026842F00402026082
:1031A000006801AA00F0040005904FF480600090D0
:1031B000122082E81B0069460548FEF7C9FEDCE7DD
:1031C000001001403038024000000240004800403A
:1031D00000080240064801228188491C89B281808A
:1031E000A0F6FC7001440248083000F09BBE0000CD
:1031F000381500202DE9F843044690F83D001F469D
:1032000016460D4620284CD1C5B1BEB194F83C00FD
:10321000012846D0012084F83C004FF00008C4F893
:103220004080212084F83D00FEF772FFA68481468D
:10323000E684A068B0F5805F03D004E00120BDE81B
:10324000F883206928B12E465FF0000584F83C80A1
:103250000EE00026FAE78021204600F07EFEA0B9AD
:10326000AEB116F8010B21684860E08C401EE08486
:10327000E08C4B464FF0000200970028EBD14FF056
:103280004001204600F069FE30B10320D7E735F851
:10329000020BC0F30800E6E7202084F83D00002080
:1032A000CDE70220CBE77047FEE7F8B50E462A21AE
:1032B0001D4617468DF800109DF800104FF0D844B9
:1032C000217000F097F9384600F094F92B208DF822
:1032D00000009DF8000020701436B0B200F08AF9AA
:1032E0001435A8B200F086F92C208DF800009DF866
:1032F00000002070F8BD00EB8000401E80B226F078
:103300004FBD2DE9F84F00F05DF90A20FFF7F3FFFC
:103310006420FEF7B7FD11208DF800009DF8000035
:103320004FF0D84420707820FEF7ACFD36208DF8A1
:1033300000009DF80000207000208DF800009DF82E
:10334000001061703A218DF800109DF80010217076
:1033500005238DF800309DF800106170B2218DF8C2
:1033600000109DF8001021700C218DF800109DF8C0
:10337000002062708DF800109DF8001061708DF8CB
:1033800000009DF80000607033208DF800009DF86B
:10339000001061708DF800009DF800106170B72179
:1033A0008DF800109DF80010217035218DF8001067
:1033B0009DF800106170BB218DF800109DF8001081
:1033C000217032218DF800109DF800106170C2212B
:1033D0008DF800109DF80010217001218DF800106B
:1033E0009DF800106170C3218DF800109DF8001049
:1033F000217015218DF800109DF800206270C42204
:103400008DF800209DF80020227020228DF80020E9
:103410009DF800206270C6228DF800209DF80020E3
:1034200022700F228DF800209DF800206270D025B8
:103430008DF800509DF800202270A4228DF8002005
:103440009DF800206270A1228DF800209DF80020D8
:103450006270E0228DF800209DF8002022708DF827
:1034600000509DF80020627008268DF800609DF8DD
:10347000002062704FF00E0A8DF800A09DF8002029
:10348000627009228DF800209DF8007067708DF839
:1034900000209DF8007067708DF800309DF80030B6
:1034A000637031238DF800309DF8007067708DF8DF
:1034B00000009DF8007067704FF048098DF800908B
:1034C0009DF8007067704FF0170B8DF800B09DF8F5
:1034D0000070677014278DF800709DF800C084F8A4
:1034E00001C08DF800109DF800C084F801C08DF86F
:1034F00000309DF800C084F801C04FF0340C8DF806
:1035000000C09DF8008084F801804FF0E1088DF83C
:1035100000809DF8008084F800808DF800509DF8B0
:10352000005065708DF800609DF8005065708DF852
:1035300000A09DF8005065708DF800209DF80050A7
:1035400065708DF800209DF8002062708DF80010E5
:103550009DF8002062708DF800309DF800206270A8
:103560008DF800009DF8000060708DF800909DF8C7
:10357000000060708DF800B09DF8000060708DF85C
:1035800000709DF8000060708DF800109DF800003C
:1035900060708DF800309DF8000060708DF800C0FC
:1035A0009DF80000607021208DF800009DF800005B
:1035B000207029208DF800009DF800002070BDE8E3
:1035C000F88F000070B50A4D4FF4007400222146B8
:1035D0002846FEF797FD6420FEF754FC01222146A1
:1035E0002846FEF78FFDBDE870406420FEF74ABC18
:1035F0000004024001B581B0BDF80400000A8DF856
:1036000000009DF800104FF0D8404170BDF8041044
:103610008DF800109DF8001041700CBD16F068FB8D
:103620001CF086FD11F08EFE1FF012F91E2020F016
:103630008DFBF9E77FB500241548009401940294AE
:103640001249039401604FF48031C0E90114046110
:10365000047680F820400F49C0E90A140125C561AD
:10366000C46080F830404561FEF799FA08B1FEF772
:1036700061F9CDE90045694605480294FEF7E6F98F
:10368000002801D0FEF756F97FBD00000020014060
:10369000580400200100000F10B50E4A00210E480A
:1036A00020F090FB0D4C0B4A0021206024320C4886
:1036B00020F088FB074A606048320021094820F06A
:1036C00081FB044AA0606C320021074820F07AFB9D
:1036D000E06010BD5CB602081D3900080000002043
:1036E00025390008E13800081D36000800B587B00C
:1036F0001C216846FDF76FF817484FF020414FF442
:103700008052016015494160062181600021C1603D
:10371000016141618161C161C0E90912C162016356
:1037200041638163C163016441640F20CDE90010EE
:10373000022002900390102004901120CDE9050191
:10374000002269460448FFF7A1F8002801D0FEF7DF
:10375000F1F807B000BD0000A0040020040100A0A3
:1037600070B586B014216846FDF735F81D48002471
:10377000016841F004010160016801F00401059154
:10378000016841F080010160016801F0800105914C
:10379000016841F001010160016801F0010105913A
:1037A000016841F0020101600068012200F002009E
:1037B0000D4E5502059029463046FEF7A3FCA801A0
:1037C000CDE90004694630460294FEF7C1FB0121B1
:1037D000CDE90051CDE9021469463046FEF7B8FB49
:1037E00006B070BD303802400004024030B589B0E8
:1037F000002507951C2168460895FCF7ECFF1A4C3C
:103800001848206040F2E730C4E901054010C4E9DF
:1038100003052046A561FFF762FA08B1FEF78AF8B2
:10382000079507A910480895FFF760F808B1FEF75B
:1038300081F860200090F920CDE901050022694659
:1038400009480495FFF7E5F908B1FEF773F8206819
:10385000816921F0080181610348FFF7B1F909B0DE
:1038600030BD000000080040F00400200C4810B5F6
:103870000A4901604FF4E1314160002181600C226E
:10388000C160C0E904128161C161FFF711FC002829
:1038900003D0BDE81040FEF74DB810BD0010014048
:1038A000401500200C4810B50A4901604FF4E13181
:1038B0004160002181600822C160C0E90412816179
:1038C000C161FEF72BFC002803D0BDE81040FEF7D5
:1038D00031B810BD0048004084150020FEE7FEE727
:1038E0000B4C00274FF47A7804F58055AE885EB112
:1038F000AF800122211D074800F014FB43463246E9
:10390000211D0548FFF776FC1E2020F01FFAEDE789
:10391000380500204015002084150020642020F088
:1039200015FAFBE770B52DED068BF0EE008A4CF230
:1039300050359FED179B9FED18AB00BF01F0C2FE05
:1039400020EE288A18EE100A27F00AFE53EC192BF5
:1039500027F01CFD53EC1A2B27F0AEFA27F0D2F912
:1039600000EE100A22F0F6FB044618EE100A27F0CB
:10397000F7FD41EC100B0AA053EC102BFCF79AFD5D
:1039800021460DA0FCF796FD284620F0DFF9D5E78B
:103990009A99999999990B40B81E85EB51B87E3F39
:1039A00063757272656E7420766F6C7461676520E2
:1039B000252E32660D0A0000656C656374696369C3
:1039C00074793A25640D0A0010B54FF0E0200069C3
:1039D00026F0D2FF012803D0BDE8104026F022BD1A
:1039E00010BD000030B593B034216846FCF7F3FEFB
:1039F00014210DA8FCF7EFFE1C480025016841F0DA
:103A000080510160006800F08050129018480168F1
:103A100041F4404101600068022400F440401290EB
:103A200001200090000401908001CDE906400420AF
:103A300008906420CDE909040B9468460C94FEF7C5
:103A400065FD08B172B6FEE70DA90F2081E83100CF
:103A50004FF48050CDE9100503210DA8FEF74CFC72
:103A6000002801D072B6FEE713B030BD40380240E6
:103A7000007000400248016841F470010160704725
:103A800088ED00E00148FEF7E8BF0000C8150020FF
:103A9000F0B50268254C264D264E274F274B4FF098
:103AA000804CA04209D0604507D0A84205D0B04262
:103AB00003D0B84201D0984204D122F0700E4A6877
:103AC00042EA0E02A0421BD0604519D0A84217D08E
:103AD000B04215D0B84213D0984211D0184DA84228
:103AE0000ED0184DA8420BD0174DA84208D0174D44
:103AF000A84205D0164DA84202D0164DA84203D1C7
:103B000022F44075CA682A434D6922F080022A4394
:103B100002608A68C2620A688262A04201D098424A
:103B200001D10969016301214161F0BD000001403B
:103B30000004004000080040000C00400004014068
:103B4000004001400044014000480140001800408E
:103B5000001C00400020004010B501F01F030121AF
:103B6000046A99408C430462016A9A4011430162DD
:103B700010BD0000F0B5026A22F001020262036A81
:103B800042688469124E24F073050C682C4323F0BC
:103B900002058B682B430D4DA84201D0B04205D1E0
:103BA00023F00807CB683B4323F00403A84201D06D
:103BB000B04205D14D6922F4407215438A692A4307
:103BC00042608461496841630362F0BD00000140C6
:103BD00000040140F0B5026A22F010020262026A9B
:103BE000436884690D6824F4E64444EA05248D683A
:103BF00022F0200242EA05120F4D104EA84201D0D9
:103C0000B04206D1CF6822F0800242EA071222F0C9
:103C10004002A84201D0B04207D14D6923F440636D
:103C200043EA85038D6943EA8503436084614968FB
:103C300081630262F0BD0000000001400004014009
:103C4000F0B5026A22F480720262026A4368C469B3
:103C500022F4007224F073050C68124E2C438D6818
:103C600042EA05220E4DA84201D0B04206D1CF68EB
:103C700022F4006242EA072222F48062A84201D0C4
:103C8000B04207D14D6923F4405343EA05138D69CF
:103C900043EA05134360C4614968C1630262F0BD31
:103CA000000001400004014030B5026A22F4805255
:103CB0000262046A4268C3690D6823F4E64343EA7A
:103CC00005238D6824F4005444EA0534084DA842C5
:103CD00002D0084DA84204D14D6922F4804242EA44
:103CE00085124260C36149680164046230BD00000E
:103CF000000001400004014010B5806B0021C18527
:103D0000C184FFF79FF810BD01680C3151E8002F06
:103D100022F4907241E80023002BF5D101681431A0
:103D200051E8002F22F0010241E80023002BF5D1D9
:103D3000016B012909D101680C3151E8002F22F0F3
:103D4000100241E80023002BF5D1202180F83E101D
:103D500000210163704708B590F83E10222901D078
:103D6000022008BD82684FF480539A4201D1016954
:103D700021B1816A9A421BD04AB10AE00268816A85
:103D80005268C2F308020A80816A891C08E002694D
:103D900072B10268526802F07F020A70816A491C9F
:103DA0008162C18D491E0904090CC18503D019E047
:103DB00002685268F1E70168CA6822F02002CA600E
:103DC0000168CA6822F48072CA6001684A6922F0F8
:103DD00001024A61202180F83E10016B012903D0C5
:103DE000FFF7F8F9002008BD0021016301680C31DC
:103DF00051E8002F22F0100241E80023002BF5D1FA
:103E000001680A68D20602D50A6849680091818D66
:103E1000FFF717F8E6E7000070B50446006801698F
:103E2000E26821F44051114301612169A068E2690F
:103E300008436169114308432168CA6849F20C6369
:103E40009A430243CA6020684169A26921F4407123
:103E50001143416131492068884202D0304988428B
:103E600002D1FEF713FB01E0FEF700FBE26900233D
:103E7000192164253226B2F5004F626828D0A0FBD4
:103E80000101930F9200FCF79EFA0146B0FBF5F09A
:103E90006FF01802504301EB800006EB0010B0FBFE
:103EA000F5F000F0F002B1FBF5F002EB0012B1FB0F
:103EB000F5F06FF01803584301EB800006EB00109B
:103EC000B0FBF5F000F00F0021681044886070BD71
:103ED000A0FB010192185B41FCF775FA0146B0FBAB
:103EE000F5F00201B1FBF5F06FF01803584301EB58
:103EF000800006EBC000B0FBF5F000F0F80002EB2C
:103F00004002B1FBF5F0584301EB800006EBC00026
:103F1000B0FBF5F000F00700D6E70000001001400C
:103F20000014014081628285C28500210164222241
:103F300080F83E2080F83C100168CA6842F4807224
:103F4000CA6001684A6942F001024A610068C168BA
:103F500041F02001C160002070472DE9F0419846F2
:103F600017460E460446069D27E0681C25D02DB155
:103F7000FEF7CEF8A0EB0800A8421ED920680C304E
:103F800050E8001F21F4D07140E80012002AF5D15A
:103F90002068143050E8001F21F0010140E80012B1
:103FA000002AF5D1202084F83D0084F83E0000204E
:103FB00084F83C000320BDE8F0812068006836EA00
:103FC000000004D00020B842CFD00020F3E7012049
:103FD000F9E700000148FEF737BF00004015002058
:103FE000FEE703B401984100009850EAC12018BFD1
:103FF00004204A0D18BF40F0010040F2FF72B2EBFE
:10400000515F08BF40F00200012808BF052002B040
:1040100070470907090E002804DB00F1E02080F852
:104020000014704700F00F0000F1E02080F8141D2C
:10403000704770B5044600256FF02F0608E0206831
:10404000411C2160007805EB850106EB4101451814
:104050002068007800F004F80028F0D1284670BDF0
:104060003038092801D801207047002070473038C7
:104070000A2801D2012070470020704710B5402166
:10408000074800F0F1FB00221E2106481EF0AEFB9F
:10409000054CA06002F042FA0020207010BD000024
:1040A00060600020C56500081802002070B5B1F9F5
:1040B0000030B2F90040A34200DC23460380B1F98E
:1040C0000250B2F90240A54200DD2C464480B1F90D
:1040D0000460B2F90450AE4200DA35468580B1F989
:1040E0000610B2F90620914200DB1146C180012082
:1040F000AB4201DC8C4200DD002070BDF8B50D46FE
:104100000446B0F90000B1F900101646884247DBBA
:10411000B4F90210B5F90220914241DBB4F9041060
:10412000B5F9042091423BDCB4F90610B5F906203C
:10413000914235DC96B3ADF800006088ADF802001E
:1041400032466946284600F099F8002827D0A08812
:10415000ADF800006088ADF8020032466946284696
:1041600000F08CF800281AD02088ADF80000E08814
:10417000ADF8020032466946284600F07FF8002874
:104180000DD0A088ADF80000E088ADF802003246FE
:104190006946284600F072F8002800D00120F8BDDA
:1041A0000020F8BDB0F90020B1F904309A4213DCC8
:1041B000B0F90420B1F900309A420DDBB0F90220C9
:1041C000B1F906309A4207DCB0F90600B1F90210E5
:1041D000884201DB0120704700207047F8B50D468A
:1041E0000446B0F90400B1F900101646884243DBDA
:1041F000B4F90600B5F9021088423DDBB4F90000BD
:10420000B5F90410884237DCB4F90210B5F906207C
:10421000914231DC76B3ADF800006088ADF8020061
:1042200032466946284600F029F818BBA088ADF848
:1042300000006088ADF8020032466946284600F06A
:104240001DF8B8B92088ADF80000E088ADF802008C
:1042500032466946284600F011F858B9A088ADF8F2
:104260000000E088ADF8020032466946284600F0BA
:1042700005F808B10020F8BD0120F8BD2DE9FC418A
:1042800014460E46B1F90020B0F9001005468A42E6
:104290003ADBB5F90400824236DCB6F90270B5F9B2
:1042A0000220974230DBB5F906309F422CDC002C0F
:1042B00075DD401A9A1A401C521C00B212B200EB73
:1042C000D07002EBD27240105210904200DB1046C8
:1042D000844200DD0446ADF8001028880022204406
:1042E000ADF804006888ADF80200688831462044C3
:1042F000ADF806006846FFF7C1FF40B1BDF8040005
:104300002044ADF804003FE00020BDE8FC81E888CF
:104310000022001BADF80200E888ADF80600314627
:104320006846FFF7ABFF28B1BDF804002044ADF8A4
:10433000040011E0A8880022001BADF80000A88846
:10434000ADF8040031466846FFF798FF50B1BDF85C
:104350000000001BADF80000BDF80200001BADF826
:10436000020016E06888ADF8020068880022204448
:10437000ADF8060031466846FFF780FF70B1BDF822
:104380000000001BADF80000BDF806002044ADF8A9
:104390000600314668461BF0AFFEB6E7FFE7012096
:1043A000B3E710B5B1F90040B2F900309C4200DA31
:1043B00023460380B1F90240B2F902309C4200DA90
:1043C00023464380B1F90440B2F904309C4200DD39
:1043D00023468380B1F90610B2F90620914200DC31
:1043E0001146C18010BD0000FEB507461EF0A4F9BD
:1043F0000025354C0646009537B1F86860603846B0
:104400001EF0C2FA606802E011F098F9606000697D
:104410001BF066FD6068406908B11BF061FD6068D3
:10442000C0691BF05DFD6068006A1BF059FD6068A3
:104430000169E1B31BF00AFF21F022FA6068B0F8CD
:10444000501199B30168097C890715D511F0D4F989
:10445000401E07B2606811F089F9401E03B20022C5
:10446000114601A800970EF06DFD606801A9026871
:10447000D26B516005F074FC60684FF4807130308D
:1044800017F0E8F86068202100F5987017F0E2F85E
:104490006068A0F8505130461EF048F900906068FE
:1044A0000068436A13B122680099984700E007E06A
:1044B00016F042FF00F036F8BDE8FE4000F006B806
:1044C000A0F85051FEBD0000D800002070B50A4D84
:1044D000002400BFC4EBC40655F8260008B116F04E
:1044E0009FFF05EB86001C2117F0B4F8641CE4B2B2
:1044F000042CEFD370BD00003C61002008494968DE
:104500000AE04A68824202D00A68824203D10A7EE7
:1045100042F001020A7649690029F2D17047000091
:10452000AC000020704700000421014800F09CB955
:10453000546000201C21014800F096B96C600020F6
:104540002DE9FF411D000B46DDE90A670446A2F193
:104550000102A3F101034FF0000112B218B202D11F
:10456000B6F5807F2BD0039101910291ADF80C003C
:104570000091ADF80400ADF80A20ADF80E203B46DE
:104580003246294668461BF017FD3B46324629460F
:1045900001A81BF011FD3B463246294602A81BF03C
:1045A0000BFD3B463246294603A81BF005FDBDF92D
:1045B0000030BDF90420934207DA1D4606E0218051
:1045C0006180A080E280BDE8FF811546BDF908004A
:1045D000BDF90C10884201DA064600E00E46B542ED
:1045E00005DA934201DA194604E0114602E08842F6
:1045F00000DA0146891E2180BDF90030BDF9042092
:10460000934201DD1D4600E01546BDF90800BDF9E5
:104610000C10884201DD064600E00E46B54205DD7D
:10462000934201DD194604E0114602E0884200DDB4
:104630000146891CA180BDF90230BDF906209342D4
:1046400001DA1D4600E01546BDF90A00BDF90E105D
:10465000884201DA064600E00E46B54205DA93428A
:1046600001DA194604E0114602E0884200DA014608
:10467000891E6180BDF90230BDF90620934201DD3B
:104680001D4600E01546BDF90A10BDF90E00814235
:1046900001DD0E4600E00646B54205DD934201DD30
:1046A000184604E0104602E0814200DD0846801C06
:1046B000E08088E72DE9F04115460E460746114C8B
:1046C0001EF03AF880462B4632463946204614F012
:1046D000E9FF20B10020A062E06950B110E02C2178
:1046E000204616F0B7FF4FF00040A0620020BDE862
:1046F000F08140461EF01AF8E06108B90120E0613F
:104700002046F4E79060002010B51421074800F01F
:10471000ABF814F08DFF40B10549016005494160D7
:10472000054981600549C16010BDFEE77860002041
:104730005D900108D993010851950108299001085D
:104740007FB50E46040003D110F0F8FF040028D016
:1047500094F82800400724D4002506B3ADF8005093
:10476000ADF80250204611F001F8401EADF80400EB
:10477000204611F041F8401EADF806006A46314669
:1047800002A8FFF793FC00280BD02068017C890762
:1047900008D5DDE90001C4E90C01012029E0A4F8F5
:1047A00050517FBD82690AB102A9904700260AE0F4
:1047B00004EBC601002202A83031FFF79FFC00285D
:1047C000EFD1761CB6B2B4F85001B042F0D880B246
:1047D000202804D204EBC00002A9303004E0A4F881
:1047E000505104F1300069460EF0EEFAB4F8500171
:1047F000401CA4F8500160680028D2D01EF0D0F808
:104800007FBD70B5054600F012F804460CE0214665
:10481000284600F01EF806462146284600F071F8AA
:10482000204616F0FDFD3446002CF0D170BD002866
:1048300000D04068704700B503460022FFF7F7FF3D
:1048400003E01846521C00F004F80100F9D11046AC
:1048500000BD0068091D4058704700684058704707
:10486000002800D08068704700224260C91C21F0F7
:10487000030182600160704770B50446006808302B
:1048800016F042FD050013D00146002220461FF01D
:10489000CBF92946204662681FF0C0F9616819B15A
:1048A0002A4620461FF0C0F96560A06800B9A560DF
:1048B000284670BD70B504460068083016F024FD27
:1048C000050013D00146002220461FF0A7F9294613
:1048D0002046A2681FF0A8F9A16819B12A4620460F
:1048E0001FF09CF9A560606800B96560284670BD3E
:1048F00028B1416809B9806808B1002070470120DB
:10490000704770B504000DD0FFF791FF0022884278
:10491000204608D1FFF79DFF6060011E01D00022F4
:104920001EE0A26070BDFFF79BFF8842206808442C
:104930000AD10168A16029B12046BDE8704000227B
:104940001FF06CB9626070BD05682046FFF781FFFB
:1049500006460246294620461FF060F92A4631469F
:104960002046BDE870401FF05FB910B504460068EE
:1049700082680AB12146904720680068002801D06B
:104980002060F5E710BD8068002801D0B0F916005E
:10499000704710B5044600216D2219F0A7FA00B245
:1049A00040B9204600216C2219F0A0FA00B2B0F5FF
:1049B000807F01D0022010BD0021204619F02EF981
:1049C000FF2805D10021204619F0AEF80028F2D0CA
:1049D000012010BD77B581B00E46050017D06122C9
:1049E00019F084FA040012D0206880B128463146BC
:1049F000622219F07BFA10F0FF0208D023682046EB
:104A0000039998470090BDF80000ADF80C0003989A
:104A100004B070BD2DE9F047074690B0408C189E59
:104A200040F00400788490463A8499468A46328958
:104A3000384619F05BFA0546A7F8209032895146AE
:104A4000384619F053FA0446788CA54220F0040049
:104A5000788403D12904B1EB044F68D0A7F82080F3
:104A600032895146384619F041FA05468046A7F882
:104A70002090514638460CF0ABFB318900682A463D
:104A80001CF0E6FC30890B2823D147F6FF794D4511
:104A900001D04C451DD1384619F0D6FB00EBD07043
:104AA0004510384619F0D0FB00EBD0704010C845D7
:104AB00006D1691C431C994200DA00E01946884679
:104AC0004C4506D1691C421C914201DA6C1C00E085
:104AD00014461948FFF7D0FE05002BD02F60C5E91A
:104AE00003843089A8806846C5F808A00DF084FCCE
:104AF0001248FF21CDE9005011480290114803905F
:104B000000200790CDE9080130880A9070889DF850
:104B10003E1040420B90F0680690002060F30001C8
:104B20008DF83E103069059068460DF0D9FC10B044
:104B3000BDE8F087FEE70000846000205D98020871
:104B4000419A02089D99020814210148FFF78CBE82
:104B5000846000202DE9F84F0025904689460646DE
:104B60002C460427E6E000BFF06807EBC40140587C
:104B700081017CD480B230EA090112D05FF00002DA
:104B800030EA08000FD00020824270D0F0686A46F8
:104B9000102150F8340082461CF03CFA002871D1F4
:104BA00003E00122ECE70120EEE76A4611215046BE
:104BB0001CF030FA002865D16A46122150461CF0DC
:104BC00029FA00285ED16A46132150461CF022FAC9
:104BD000002857D16A46152150461CF01BFA0028C0
:104BE00050D16A46142150461CF014FAF0BB6A46B4
:104BF0000A2150461CF00EFAC0BB6A466A21504694
:104C00001CF008FA90BB6A466B2150461CF002FA71
:104C100060BB6A46012150461CF0FCF930BB6A4675
:104C2000042150461CF0F6F900BB6A4602215046AA
:104C30001CF0F0F9D0B96A46032150461CF0EAF99D
:104C4000A0B96A46052150461CF0E4F970B96A46DD
:104C5000062150461CF0DEF940B96A463221504622
:104C60001CF0D8F910B96A466D2101E00AE060E055
:104C700050461CF0CFF928B96A466C2150461CF00A
:104C8000C9F910B10320BDE8F88F6A466821504683
:104C90001CF0C0F9F0BB6A46692150461CF0BAF915
:104CA000C0BB6A466D2150461CF0B4F990BB6A4601
:104CB0006C2150461CF0AEF960BB6A463721504665
:104CC0001CF0A8F930BB6A46382150461CF0A2F906
:104CD00000BB6A46352150461CF09CF9D0B96A46A3
:104CE000402150461CF096F9A0B96A46452150462D
:104CF0001CF090F970B96A46412150461CF08AF9BF
:104D000040B96A46422150461CF084F910B96A46FF
:104D1000432100E009E050461CF07CF928B96A46BE
:104D2000492150461CF076F908B1022501E005B989
:104D30000125641C708CC0F3C500A0423FF614AF7F
:104D40002846A0E70148406870470000D8000020CE
:104D50007047C0F30410072800D9072070470000EF
:104D6000A0F57F41FF3905D0002804D0702803D278
:104D700008490AE00F2070470749703880B2096877
:104D800029B1064A5268904201D2085C704700205F
:104D9000704700009AF60208440200205C020020DE
:104DA00010B518210348FFF75FFD03490120087083
:104DB00010BD000030600020640200202DE9F041A9
:104DC00090460C46050015D0FBF767FC0A4F0646D7
:104DD0002146BA68284690470446BA6828194146D1
:104DE00090470146701A03E06218AA5C2A55641CB9
:104DF000A042F9D2BDE8F081780200202DE9F0410F
:104E0000094D90460E466A681C460746194690476B
:104E1000306020B120686A68384400219047C8F8A3
:104E20000000BDE8F0810000780200202DE9F04F7D
:104E300087B08A46DDE910581F4693460446002194
:104E400005B129805CB12078002809D0BAF1000FA3
:104E500005D0002618F0060F15D0002004E0002031
:104E600007B0BDE8F08F401C215C0A2904D00D2951
:104E700002D00029F7D100E0401C002DF0D04FF007
:104E8000FF312980ECE75FEA887001D541F6FF77B2
:104E9000894608468DF81410049127E00498CDF84F
:104EA000189068B34FF0000C05AA06ABCDF80CC003
:104EB000CDF80080CDE9013220443B465A465146A8
:104EC0001DF0AAFE06997A1A314417B20EB288B1C3
:104ED00004990144049120780A280BD00D2809D0A8
:104EE000605C0A280FD00D280DD00846205C08B160
:104EF000002FD3DC049848B105B12E800498AFE7A9
:104F00004FF0010CD0E7481C0490F3E7064A04A9CF
:104F1000204652689047002DF0D0014600225046AE
:104F200013F075FC06B2E8E7780200202DE9F041A5
:104F30001746884606001ED0002F1CD0FBF7ADFB9D
:104F400004463846FBF7A9FB050014D00B4A2C4455
:104F50004146926830469047411903E0621BB25CBB
:104F60003255641EA142F9D930442A463946BDE87B
:104F7000F04116F031BBBDE8F0810000780200205E
:104F800000230278232902D0012A0DD00FE02AB194
:104F90000021012A04D0022A04D008E0012101E006
:104FA000017004E0017001E0202902D001231846BD
:104FB00070470221F6E72DE9F0410E468046024691
:104FC0000021334608461EF065F804460027401CC1
:104FD00016F09AF9050008D02F5533464246611C59
:104FE0001EF058F82846BDE8F081FEE72DE9F047AD
:104FF0001E4614460D468246DDF8209015E000BF9F
:105000004FEA540808FB0657394650464A4690472F
:10501000002808DD44F30000C0EB540407EB06054C
:10502000A4F1010401E005DA4446002CE8D1204651
:10503000BDE8F0873846FBE72DE9FC5F9B460CABEB
:105040008A468146DDE9116093E81210DDE90F57C9
:105050005FEA80784FF030031AD45EB15FEAC0781F
:1050600008D000F00C0858EA0C0803D0761E01E0C6
:105070000B55641CBC4204D2202CF9D301E00B5523
:10508000641C5FEAC07803D0B44201D2202CF6D36E
:105090005FEAC06825D55FEA40580AD44CB1BC42EB
:1050A00001D0B44205D1641E03D0102D03D1641E7B
:1050B00004E0102D02D0022D0AD00EE0850603D4A4
:1050C000202C1ED2782506E0202C1AD2582502E08A
:1050D000202C16D262250D55641C202C11D20B55A4
:1050E000641C202C0DD2BCF1000F01D02D2306E052
:1050F000430701D52B2302E0030702D520230B55DC
:10510000641CCDE900BAC846154681468B46AA46BE
:10511000800714D1274607E02A46DDE900316D1CDF
:105120002020C446E0477F1CB742F5D307E02A465B
:105130006D1C641EDDE900311BF80400C047002C23
:10514000F5D15FEA897006D409E02A46DDE900312D
:105150006D1C2020C047A5EB0A00B042F5D32846BD
:10516000BDE8FC9F2DE9F04F8FB099468B46DDE9F5
:105170001818DDE91C63DDE91A47924686460022CD
:1051800009B923F01003580507AD00D5C9B1B1FB2B
:10519000F4F004FB1010C0B20A2801D2303009E04C
:1051A0005FEA836C02D54FF0410C01E04FF0610CD7
:1051B00060440A38B1FBF4F1A854521C09B1202A0A
:1051C000E5D3CDF80880CDE90563CDE90052CDE9FE
:1051D00003474B46524659467046FFF72DFF0FB026
:1051E000BDE8F08F2DE9FF4F8FB01CACDDE92395B2
:1051F00094E8030820AC94E8C004002450EA0102BB
:1052000001D125F010056A050DF11C0802D550EA00
:10521000010217D032463B46FBF7D5F8D2B20A2A34
:1052200001D2303206E0AB0601D5412300E0612314
:105230001A440A3A08F80420641C50EA010201D01A
:10524000202CE7D3CDE90084CDF808B0CDE9059551
:10525000CDE9036A0FAF97E80F00FFF7EDFE13B03B
:10526000BDE8F08F9A4200D288547047704770476B
:105270002DE9FF4F89B005460A9800249246002880
:1052800000D1FE4D8FE1252804D02246641C5346F0
:105290000A990BE2491C4FF0000808460C9101786E
:1052A0002B2919D004DC202919D0232904D119E095
:1052B0002D290ED0302909D00026C8B2FEF7D0FE25
:1052C000B0B10CA8FEF7B5FE06461FE048F001019C
:1052D0000AE048F0020107E048F0040104E048F069
:1052E000080101E048F01001401C88460C90D6E708
:1052F0000C9908782A2809D1169840C81690002ED3
:1053000002DA48F002087642491C0C910C984FF0E2
:10531000000B01782E2919D1401C0C9048F48068AC
:105320000078FEF79DFE20B10CA8FEF782FE8346B2
:105330000CE00C9A10782A2808D1169802C816900A
:10534000002900DC0021521C8B460C920C9801783D
:105350006C290AD004DC68290FD06A2919D128E009
:10536000742929D07A2914D126E0401C0C900178A8
:1053700048F480786C291CD00BE0401C0C9001781C
:1053800048F08008682904D148F04001401C884654
:105390000C9002460078692822D015DC62281FD0C4
:1053A0000DDC252871D050281AD058287FF46DAF15
:1053B00016E048F40071E9E748F48071E6E76328F5
:1053C00078D06428F2D10BE0732874D004DC6F2805
:1053D00006D07028EAD103E0752801D07828E5D1FD
:1053E00078280DD058280BD070280BD0502809D021
:1053F0006F2816D0622816D00A2128F0100016E077
:10540000102107E05078102148F48878562804D1FC
:10541000521C0C921078582807D01078502804D0CD
:1054200006E0082109E0022107E048F0200080465C
:105430001078692803D0642801D028F00C085FEAAE
:10544000485001D528F00108107869281ED064283A
:105450001CD0562864D05FEA885072D5169804ABE9
:10546000C01D002283E806080292CDE9076820F0FB
:1054700007005346F0E80212CDE9001216902246CA
:1054800028460A99FFF7AEFE89E00AE15FEA8850F4
:1054900024D5169804AFC01D20F00703F3E80202DC
:1054A0001693002387E80A08CDE90768002A03DA83
:1054B000012102E080E0A6E00021002302911946CC
:1054C0001B1A914101DA114603E00021404261EBD1
:1054D000020153462246CDE90001D1E75FEAC850F8
:1054E00004D5169804C80FE0524215E05FEA486000
:1054F00003D5169810F8042B06E05FEA0860F0D593
:10550000169830F8042B12B21690CDE9021BCDE9A3
:105510000468D00F002AE7DDCDE9002053461EE0E5
:105520001698AAEB040202C816904868006800901A
:105530000A980B6801192846FFF79AFE04442FE0E9
:10554000FFE75FEAC8500CD5CDE9021BCDE904683E
:1055500016980021534604C8CDE900211690224632
:1055600019E05FEA486003D5169810F8042B08E0AC
:105570005FEA0860169803D530F8042B92B200E079
:1055800004C816900020CDE90020CDE9021BCDE92A
:1055900004685346224628460A99FFF7E3FD04466D
:1055A0000C98401C0C900C99087800287FF46BAE86
:1055B00054457DD222467DE001275FEA887006D5FA
:1055C00009E02246641C534620200A99A847384621
:1055D0007F1CB042F5D316992246641C11F8040BC7
:1055E000169153460A99A8475FEA887006D4D7E710
:1055F0002246641C534620200A99A84738467F1C3F
:10560000B042F5D3CCE7169850F8049B16904B4661
:10561000BBF1000001D0014601E04FF0FF314846E8
:1056200000E0401C02780AB1491EFAD2C71A5FEAAC
:10563000485003D558465F4500D307465FEA887057
:1056400006D512E02246641C534620200A99A8473A
:1056500038467F1CB042F5D307E000BF224609F16F
:105660000109641C53460A99A84799F8000040B103
:105670005FEA4851F2D5BBF1010B01E06D52000821
:10568000ECD25FEA887006D48AE72246641C53464F
:1056900020200A99A84738467F1CB042F5D37FE7FF
:1056A00006E02246641C534625200A99A84777E75E
:1056B000AAF10102534600200A99A8470DB02046DE
:1056C000BDE8F08F10B50E48FCF71AFB32210C48EC
:1056D000FCF7C0FA0A48FCF75FFA25F045FD9FED9C
:1056E000091B53EC112B25F053FD9FED081B53ECC8
:1056F000112B25F0E1FB25F005FB00EE100A10BD93
:10570000580400206666666666660A40000000006F
:1057100000FEAF4010B502004FF000000CD04B1E51
:10572000194200D0FEE70A44521E9A43B2F5803F68
:1057300002D20C2A01D9104610BD0C2010BD08441D
:105740004A1E401E9043114200D0FEE77047000001
:105750002DE9F0410F4601210025044641862E46E1
:105760000BE01B49FBF75EF810B16D1CADB202E017
:10577000608E401C6086761CB6B257F8260010B1C9
:1057800001780029EDD1208EA8421ED0A06A002603
:1057900010B115F045FEA662E06A10B115F040FEAA
:1057A000E662E80015F0B0FDA06238B1680015F0BF
:1057B000ABFDE06218B1A16A11B102E0FEE7FEE7BD
:1057C0000025690015F046FF2586BDE8F081000040
:1057D000B03701082DE9F84F8146407A0F4600F0B6
:1057E0000700022819D010468046974200DD3A464D
:1057F000164603202A4C2B4A00EB460020F00305F6
:10580000A06811681035411A636805EB010C9C45CE
:1058100005D2416821F0004124E00846E4E79D42BA
:1058200019D892464FF0FF3B48196168884210D959
:10583000002269461C48CDF800B00CF00DFB002298
:1058400069461A480CF008FBA168DAF80000091A4A
:10585000EAE7A068DDE7284615F056FDC0B14168CB
:1058600041F0004188EA6702416089EA0201016073
:10587000416801F04041491C31F08041416086811E
:10588000A0F80E8005D500F110018160BDE8F88F09
:10589000FEE7A16801F1100229448260A160F5E7EA
:1058A000E0000020400200201DFF0008B91E010892
:1058B0002DE9F14F96B00421169819F047FF16987C
:1058C00016F08AFF0746012119F050FFFE4A3846BC
:1058D000A2F1260119F084FF42F26401384619F062
:1058E00095FF00224FF4967138461AF013FA3846A5
:1058F00014F0F0FB0446F5A115F06CFAF249002211
:105900002231204616F03AFB002501260095CDE90C
:10591000015602232A462946204619F033FF38460D
:105920000EF01AFBE84CA63CE06213F079FAE16A4B
:1059300013F030FAB102E06A16F0E5FA4FF003090D
:10594000CDE90096012302961A464946E06A19F00D
:1059500019FF05214FF0500BCDE90016CDE9026B80
:1059600000231A461946E06A0EF006FD4FF0320A8F
:105970000C27CDE90076CDE9026A00231A46022100
:10598000E06A0EF0F9FC0C220021E06A0EF012FD34
:105990000C21E06A0EF039FD00231A46CF49E06A77
:1059A00016F073FAE07810B1012803D007E04FF445
:1059B000407101E04FF40071E06A0EF0AEFD00228C
:1059C0000521E06A1AF02EF900221146E06A1AF069
:1059D000ECF9E06A1CF092FE01460022E06A0EF04B
:1059E00043FAA06350210A201AF0DEFB02B2A16B39
:1059F000E06A0EF0EEFC50210A201AF0D5FB02B24C
:105A0000A16BE06A0EF0E5FC50210A201AF0CCFBF5
:105A100002B2A16BE06A0EF0DCFC50210A201AF001
:105A2000C3FB02B2A16BE06A0EF0D3FC50210A2046
:105A30001AF0BAFB02B2A16BE06A0EF0CAFC502168
:105A40000A201AF0B1FB02B2A16BE06A0EF0C1FCB1
:105A500050210A201AF0A8FB02B2A16BE06A0EF0F6
:105A6000B8FC50210A201AF09FFB02B2A16BE06A39
:105A70000EF0AFFC50210A201AF096FB02B2A16B87
:105A8000E06A0EF0A6FC50210A201AF08DFB02B24B
:105A9000A16BE06A0EF09DFC50210A201AF084FBF5
:105AA00002B2A16BE06A0EF094FC50210A201AF0B9
:105AB0007BFB02B2A16BE06A0EF08BFC50210A2046
:105AC0001AF072FB02B2A16BE06A0EF082FC16982B
:105AD00016F082FE4FF40001149016F014FA012122
