:020000040800F2
:1000000000BB0120950300082F580008AD4A0008E6
:100010002D580008B52B0008CD5F00080000000037
:10002000000000000000000000000000D5020008F1
:10003000B72B00080000000031030008B559000884
:10004000AF030008AF030008AF030008AF030008C8
:10005000AF030008AF030008B92B0008AF03000886
:10006000AF030008AF030008AF030008AF030008A8
:10007000AF030008AF030008AF030008AF03000898
:10008000AF030008AF030008AF030008AF03000888
:10009000AF030008AF030008AF030008BF2B000840
:1000A000AF030008715A0008AF030008AF0300084F
:1000B000AF030008AF030008AF030008AF03000858
:1000C000AF030008AF030008AF030008AF03000848
:1000D000AF030008C15F0008AF030008AF030008CA
:1000E000AF030008AF030008AF030008AF03000828
:1000F000AF030008AF030008AF030008AF03000818
:1001000000000000AF030008AF030008AF030008C1
:100110000000000000000000AF030008AF0300086B
:10012000AF030008AF030008AF030008AF030008E7
:10013000AF030008AF030008AF030008AF030008D7
:10014000AF030008AF030008AF030008AF030008C7
:10015000AF030008AF030008AF030008AF030008B7
:10016000AF030008AF03000800000000000000001B
:10017000000000000000000000000000000000007F
:10018000AF030008AF0300080000000000000000FB
:10019000AF030008AF0300080000000000000000EB
:1001A000000000000000000000000000000000004F
:1001B000AF0300080000000000000000AF030008CB
:1001C000AF03000800F002F800F075F80AA090E80C
:1001D000000C82448344AAF10107DA4501D100F002
:1001E0006AF8AFF2090EBAE80F0013F0010F18BF5A
:1001F000FB1A43F0010318475C6003007C600300B6
:100200000A444FF0000C10F8013B13F0070408BF3C
:1002100010F8014B1D1108BF10F8015B641E05D0DA
:1002200010F8016B641E01F8016BF9D113F0080F8F
:100230001EBF10F8014BAD1C0C1B09D16D1E58BF21
:1002400001F801CBFAD505E014F8016B01F8016B58
:100250006D1EF9D59142D6D37047000000230024CB
:1002600000250026103A28BF78C1FBD8520728BFC6
:1002700030C148BF0B60704766292EF0998564290C
:1002800000F05081782900F08981002070471FB567
:100290002EF0D6FC01F08CF90400002000212DF096
:1002A0001DF9401C6060002000212DF001F9E06084
:1002B0001FBD10B510BD01F0BFFC1146FFF7E7FFF1
:1002C00025F076FC01F016FF03B4FFF7F2FF03BC44
:1002D00007F023FE2C4B19680868B0E8F04F80F354
:1002E0000988BFF36F8F4FF0000080F311887047CB
:1002F0000000000008480068006880F308884FF09C
:10030000000080F3148862B661B6BFF34F8FBFF36D
:100310006F8F00DF00BF00BF08ED00E0DFF80C00CA
:10032000016841F470010160704700BF88ED00E092
:10033000EFF30980BFF36F8F134B1A681EF0100F95
:1003400008BF20ED108A20E9F04F106009B44FF08B
:10035000500080F31188BFF34F8FBFF36F8F2CF0E5
:100360009DF94FF0000080F3118809BC19680868F6
:10037000B0E8F04F1EF0100F08BFB0EC108A80F309
:100380000988BFF36F8F704750000020EFF305809E
:10039000704700000948804709480047FEE7FEE72C
:1003A000FEE7FEE7FEE7FEE7FEE7FEE7FEE7FEE725
:1003B00004480549054A064B70470000615A000889
:1003C000C5010008009B012000BB012000AB0120FB
:1003D00000AB0120704753EA020C00F069802DE960
:1003E000F04B4FF00006002B1FBFB3FA83F503FA62
:1003F00005F424FA05F65E4012BF1643B2FA82F500
:1004000002FA05F4C5F120051EBF22FA05FC44EAF4
:100410000C04203556EA044C4FEA144418BF641CFF
:100420004FF000084FF00009904271EB030C39D3F4
:10043000002919BFB1FA81F701FA07F6B0FA80F77F
:1004400000FA07F6C7F120071EBF20FA07FC46EAAC
:100450000C062037B6FBF4FCA7EB0507103F07F0AE
:100460001F0BCBF120060CFA0BFB2CFA06F644BF4F
:10047000B3460026202FA4BF5E464FF0000B5BEA78
:10048000060C08BF4FF0010B19EB0B09ABFB027C0C
:1004900048EB0608C01B06FB02CC0BFB03CC71EB40
:1004A0000C01C1E70B46024641464846BDE8F08BC9
:1004B00013B54FF000004FF00001AFF30080BDE82E
:1004C0001C40704710B54C1084EA530404D54042D8
:1004D000C1F1000138BF491E1B4204D55242C3F18D
:1004E000000338BF5B1EFFF776FF14F0804F04D087
:1004F0004042C1F1000138BF491E14F0004F04D042
:100500005242C3F1000338BF5B1E10BD0FB4044953
:1005100010B503AA029800F021FD10BC5DF814FB91
:100520003C0000202DE9F0410646002410687529A2
:10053000314616A510D0AFF30080002802DA404201
:1005400013A507E031688A0701D512A502E0490723
:1005500004D511A5012401E0AFF3008000210A2297
:1005600006F1240709E0B0FBF2FCB0FBF2F302FB5A
:100570001C00303078541846491C0028F3D123461B
:100580002A463046BDE8F04100F07FBA0000000086
:100590002D0000002B0000002000000070B5044674
:1005A0000D4621461068AFF300802188090502D569
:1005B0000F4A7A4402E00E4A7A440E32002104F1D6
:1005C000240305E000F00F060009965D5E54491C07
:1005D0000028F7D120780023000704D5702D02D021
:1005E00009B1022311322046BDE8704000F04DBA37
:1005F0005E5603002DE9F05F894604464FF0000A7D
:10060000DFF824B1FB44C0F820A02046E168884709
:1006100000287DD0252806D0D4E901219047206A02
:10062000401C2062F1E700255F462046E1688847CC
:100630002028064607DB312E05D2B81910F8200C09
:1006400008B10543F1E7A80701D525F00405C4F872
:100650001CA00027C4F818A02A2E09D0304606F0A6
:1006600084F938B304EB8708303EC8F8186019E005
:1006700059F8041B204604EB87029161E168884722
:10068000012F064618D1E069002820DA25F0200560
:100690001DE0D8F8180000EB800006EB4000303871
:1006A000C8F818002046E1688847064606F05DF95C
:1006B0000028EED1012F0AD02E2E08D12046E16865
:1006C00088477F1C0646022F45F02005C4DBA06941
:1006D000002803DA404245F00105A061E80701D097
:1006E00025F01005A6B1A6F14100192802D8203640
:1006F00045F400654A463146204625604D46FFF7E1
:10070000BBFD60B1012807D0ED1D25F0070000E01A
:1007100007E000F1080978E705F1040975E73046BC
:100720007AE7206ABDE8F09F345603000FB400B5A5
:100730008DB010A9099000910B904FF0FF300A90F6
:1007400000200C90064878440690064878446A4693
:1007500007900F9909A800F095FE0DB05DF814FB05
:100760005B0D0000730D000070B5064600F07EF9C9
:100770000468054630460A22002100F0B3FE2C60D2
:1007800070BD401ECAB210F8011F8A4202D0002973
:10079000F9D10020704730B505460B462A4613F8BC
:1007A000014B12F8010B08B1A042F8D01CB100288F
:1007B00002D06D1CF1E7284630BD40EA010310B5B8
:1007C0009B070FD1042A0DD310C808C9121F9C42E1
:1007D000F8D020BA19BA884201D9012010BD4FF0D3
:1007E000FF3010BD1AB1D30703D0521C07E0002020
:1007F00010BD10F8013B11F8014B1B1B07D110F87D
:10080000013B11F8014B1B1B01D1921EF1D118467F
:1008100010BD40EA0103024630B59B0710D14FF0EE
:10082000013400E008C208C91D1B9D4315EAC41F1E
:10083000F8D013F0FF0102F8011B0DD01B0AF8E7F6
:1008400011F8013B002B02F8013B05D011F8013BE8
:10085000002B02F8013BF3D130BD10B5431C02E080
:1008600010F8011B71B18107FAD14FF0013202C8B3
:100870008C1A8C4314EAC211F9D0C01A0A0603D0AC
:10088000C01E10BDC01A10BD0A0401D0801E10BDCC
:100890000902FCD0401E10BD032A40F2308010F047
:1008A000030C00F0158011F8013BBCF1020F62440B
:1008B00098BF11F801CB00F8013B38BF11F8013B9C
:1008C000A2F1040298BF00F801CB38BF00F8013B49
:1008D00011F0030300F02580083AC0F0088051F8B9
:1008E000043B083A51F804CBA0E80810F5E7121DC4
:1008F0005CBF51F8043B40F8043BAFF30080D207E3
:1009000024BF11F8013B11F801CB48BF11F8012BAE
:1009100024BF00F8013B00F801CB48BF00F8012BD1
:10092000704710B5203AC0F00B80B1E81850203A5B
:10093000A0E81850B1E81850A0E81850BFF4F5AF7F
:100940005FEA027C24BFB1E81850A0E8185044BF09
:1009500018C918C0BDE810405FEA827C24BF51F876
:10096000043B40F8043B08BF7047D20728BF31F86A
:10097000023B48BF11F8012B28BF20F8023B48BFBB
:1009800000F8012B704702F0FF0343EA032242EA1A
:10099000024200F0E1BD4FF0000200B5134694465C
:1009A0009646203922BFA0E80C50A0E80C50B1F1C7
:1009B0002001BFF4F7AF090728BFA0E80C5048BFDB
:1009C0000CC05DF804EB890028BF40F8042B08BF79
:1009D000704748BF20F8022B11F0804F18BF00F875
:1009E000012B70474FF0013C50F8042B51F8043BA9
:1009F0009A4221D1A2EB0C03934313EACC1317D1F3
:100A000050F8042B51F8043B9A4215D1A2EB0C0389
:100A1000934313EACC130BD150F8042B51F8043B49
:100A20009A4209D1A2EB0C03934313EACC13DBD017
:100A30004FF00000704700BFD01A01BAB1FA81F13F
:100A400001F0180122FA01F0CB40C1F12001DBB224
:100A5000C0B2C01A2CFA01F3D11A914311EAC311A2
:100A6000E6D170477047704770477047004870473D
:100A7000A09A012010B5FFF7F9FF006810BD10B56E
:100A80000446FFF7F3FF046010BD2DE9F0470D4663
:100A900099469246044600F124080168880604D568
:100AA000E06921F01001216000E00120A84201DD91
:100AB000471B00E00027A1697A1902EB0900081A18
:100AC000A0612078C00602D42046AFF30080002643
:100AD00008E0D4E901211AF806009047206A401C7A
:100AE000761C20624E45F4DB2078C0060AD52046ED
:100AF000AFF3008006E0D4E9012130209047206A5E
:100B0000401C2062381EA7F10107F4DC07E0D4E99D
:100B1000012118F805009047206A401C2062281E19
:100B2000A5F10105F3DC2046AFF300802078000634
:100B300002D50220BDE8F0870120FBE770472DE9D0
:100B4000FF4F0C461E464FF0FF378BB0D2E9000135
:100B5000DDF860800A908A46C1F30A5505B93D4622
:100B6000002108462EF014F9BAF1000F00F44000FD
:100B700005DA00EB80004FF4400101EA50004FEA33
:100B80009059B9F1010F00DDB9460A9850EA4A00C0
:100B90000ED044F61050A5F2FF3545432F14B8F19E
:100BA000000F1ED07542291E1EDDC9F100021CE097
:100BB000B8F1010F4FF0000001D0302103E0F24303
:100BC00005E02154401CB042FBDB304600220021EE
:100BD00021540B99C1F80880C1E900200FB0BDE88D
:100BE000F08FBD1B6D1CDEE74A4600DA694206A89D
:100BF00000F0ACFF06AB93E8070003AB83E8070007
:100C000050460A9901F00DFB8DE80700A0F5005051
:100C10001F3800900398002D0ADD42F21F014A465A
:100C20000844002303A90390684601F0B9FD09E0D8
:100C3000A0F500504A461F38002303A903906846D8
:100C400001F0D8FD8DE807000004000C03D04FF040
:100C5000FF30410800E01046B8F1000F03D0002239
:100C6000009215461EE0751E05D400F0A5FC30323A
:100C700062556D1EF9D5B3460122084302D0002209
:100C80007F1C04E02078302801D100227F1E002A3A
:100C9000099784D01DE0112D07DA00F08DFC303269
:100CA00062556D1C50EA0102F5D1084302D000984C
:100CB000C8B10EE00021681E05E0235C625C63544D
:100CC0002254401E491C8142F7DBAB46A81B401E44
:100CD0000990002004F80B000B98099AC0F80880CE
:100CE000C0E9002B7AE711264FF0000857E72DE9FD
:100CF000F04F88460446D21D22F0070191B0D1E999
:100D00000001CDE90A0105F062F902460B98C00F17
:100D100001D02D2007E02068810701D52B2002E0BB
:100D2000202101EAC000032A099001D0072A05DB2F
:100D300003464146204600F0BFFC0BE120788006C8
:100D400001D5E06900E00620B8F1650F814606D0C4
:100D5000B8F1660F18D0B8F1670F70D131E00020FC
:100D6000B9F1110F009001DB112301E009F101033A
:100D70000AAA01A90CA8FFF7E2FEDDE90C70002623
:100D800009F10105834647E001204B4600904FF0F2
:100D900000470AAA01A90CA8FFF7D1FEDDE90DB0B2
:100DA0000C995D46002610B909F101000D18B9EB48
:100DB000050003D4C0F1FF3609F10105A5EB0900D8
:100DC0002BE0B9F1010F01DA4FF001090020B9F170
:100DD000110F0090484601DD112300E003460AAAE6
:100DE00001A90CA8FFF7ABFEDDE90C704D4600260B
:100DF0008346207800070AD4AB4500DA5D4601A897
:100E0000012D04DD411911F8011C302907D04F458F
:100E100002DA17F1040F04DA012082460FE06D1E9A
:100E2000EEE7002F02DCED1B3E4403E0781CA842F5
:100E300000DD7D1CB81B00F1010A4FF0004720784F
:100E4000000703D4AA4501DB4FF0FF3A0021B7F1B8
:100E5000004F0DF143088DF8431024D002202B23BE
:100E6000002F01DA7F422D230A21021EA0F101008A
:100E700000DC5FB197FBF1FC97FBF1F201FB1C7CFE
:100E800017460CF1300C08F801CDEEE7A8F101008F
:100E900003702188090501D5452100E06521A0F1F5
:100EA000010800F8011C09980FA9A1EB0807FF1D14
:100EB00000B10120411901EBEA70A1693844081A18
:100EC000401EA0612078C00602D42046AFF3008007
:100ED000099828B1D4E901219047206A401C20627A
:100EE0002078C00622D52046AFF300801EE0002EF9
:100EF00004DBB34502DD01A8805D00E03020D4E9C9
:100F000001219047206A401C2062761CAAF1010052
:100F10005FEA000A0AD100F04BFBC0680168405C40
:100F2000D4E901219047206A401C2062281EA5F1C7
:100F30000105DCDC07E0D4E9012118F8010B90473A
:100F4000206A401C2062381EA7F10107F3DC20460E
:100F5000AFF30080032011B041E60000074B70B5ED
:100F60000D467B4400F095FB0446284600F060FEE9
:100F700010B14FF0FF3070BD204670BDE718010082
:100F80002DE9FF4F06468BB00878FF2806D0491C94
:100F90002D2805D000244FF0000908E000200CE0C7
:100FA0000124F8E709EB8903491C00EB43090878A1
:100FB000FF28F7D114B1C9F100008146107800254F
:100FC0002C46AA4629462D2801D02B2804D1521C94
:100FD0002D2813D0002082468B461078FF280FD092
:100FE0004FF0000C0A21521CA5FB017804FB018183
:100FF00005FB0C11C5194BEB0104EEE70120EAE7F4
:10100000002108462DF0C4FEBAF1000F02D000EB1B
:1010100080004008C0F38157012F01DD4FF0FF37FA
:101020000E9955EA040009EB01080BD04FF00209B4
:1010300018F5FA7F16DA4FEACA70002F706008DDE3
:10104000012007E04FEACA70C6E900B00FB0BDE862
:10105000F08F00203060FFF709FDC0F800901821E4
:10106000084616E0B8F5FA7F18DD002F02DAF748D7
:10107000784401E0F6487844D0E90010C6E9001051
:1010800040EACA707060FFF7F1FCC0F800901421CC
:1010900008460FB0BDE8F04F2DF07ABE002108469B
:1010A0002DF076FEB8F10001099002DAC7F10002D6
:1010B00000E03A4601DAC8F1000106A800F046FD5A
:1010C00006AB93E8070003AB83E8070044F23E0059
:1010D0005BEA04010090584604D144F21E012C46FC
:1010E0005D460091210C0904014306D100992404B6
:1010F00044EA15442D041039009104F07F41014366
:1011000006D10099240244EA15642D0208390091A1
:1011100004F07041014306D10099240144EA15749A
:101120002D01091F009104F04041014306D10099AF
:10113000A40044EA9574AD00891E009104F00041BA
:10114000084304D100986D196441401E00904FF08F
:1011500001033A466846B8F1000FCDE9014503A9FD
:1011600002DD01F05CFB01E001F02FFBBAF1000FA2
:1011700004460D4601D084F00044002108462DF0BD
:1011800007FE099940F2FF77484010F00C0F07D195
:1011900024F00040284303D0C4F30A50B84212D1CF
:1011A000FFF764FCC0F80090C4F30A50B8420AD1BB
:1011B000A8487844D0E90010C6E9001004F00041C6
:1011C0000843706042E7C6E900543FE72DE9FF4F4E
:1011D0001F464FF0000A4FF0FF38454691B0D7E95F
:1011E0000146CDF83CA000F0E3F9C0680168405C1E
:1011F0001090B96912986D1C8847396A81468847F2
:101200000028F6D1B9F1FF3F0AD0002E24F4D064B3
:1012100011DDB9F12B0F08D0B9F12D0F0BD102E080
:10122000404615B013E744F48064B96912986D1C08
:101230008847761E8146600504A901D52D2000E06F
:101240002B20002E01F1010B0DF130088DF810005C
:101250003FDDB9F1690F08D0B9F1490F05D0B9F1F7
:101260006E0F02D0B9F14E0F1CD13B4601A800957C
:1012700080E85002DDE912126FF002002DF082FECC
:10128000C11CCED10EE0B96912986D1C8847814609
:101290001398761E44F4007405600F98401C002ECD
:1012A0000F9016DDB9F1300FEDD0B9F1780F02D003
:1012B000B9F1580F0DD10F9801280AD13B46CDE95D
:1012C0000054DDE91212001F02962DF059FEC11CD8
:1012D000A7D1109989453ED144F0800406E01399C6
:1012E000681CAAF1010A44F400740860B9696D1C15
:1012F0001298761E884730288146F0D02BE010994E
:10130000894505D1200603D4761E44F0800418E0F8
:10131000484605F02AFB08B3761E0DF123018B45E4
:1013200044F4007408D2A9F130000BF8010B200638
:1013300007D5AAF1010003E0200602D40AF101005A
:101340008246A00502D51399681C0860B9691298F5
:101350006D1C88478146002ED1DC53E0002E51DD04
:10136000B9F1650F02D0B9F1450F4BD1A00549D5B0
:10137000B9696D1C1298761E24F440748847002EBB
:1013800081460CDD2B2804D0B9F12D0F07D144F490
:101390008074B96912986D1C8847761E8146E005F5
:1013A00001D52D2100E02B2108F8011BCDF800808C
:1013B00021E0761E0DF13901884544F400740CD209
:1013C000A9F1300010F0FF0088F8000002D1009968
:1013D000884509D908F1010806E0E00501D51E4855
:1013E00001E042F20F708246B96912986D1C88477D
:1013F000814613980560002E04DD484605F0B5FAD5
:101400000028D6D1F96912988847FF2053468BF8F7
:10141000000088F8000000200A900B9004AA0CA994
:101420000AA8FFF7ADFDA00502D46FF00100F8E6B1
:1014300014F0240F12D0E0071CD13868DDE90A123D
:10144000031D3B600068C0E9001213E0085203006E
:10145000FA510300BE500300F1D8FFFF0AA9684605
:1014600004F0E2FEE00705D13868009A011D3960FA
:10147000006802602846D4E60268114413780160CF
:1014800018467047D160054979445161044979444F
:10149000116200211161114600F04EB9EDFFFFFF0E
:1014A000E3010000426842B1016811F8013B23B139
:1014B000521EC0E90012184670470121C160881E03
:1014C000704742685AB1C368016843B983688B4268
:1014D00005D0491E521CC0E90012002070474FF091
:1014E000FF3070472DE9F04791460F46804604468D
:1014F000002614F8015B2DB100F052F80068405D41
:10150000C007F6D12B2D02D02D2D18D0641E4A46CF
:101510003946204600F0CAFA27B13968A14201D104
:10152000C7F800804FF0020471050BD54042002837
:1015300003DDFFF79BFA0460A007BDE8F08746F4DF
:101540008066E4E70028F8DAFFF790FA04606FF0AD
:101550000040F2E74FF000020429C0F0128010F0C2
:10156000030C3FF41AAACCF1040CBCF1020F18BF13
:1015700000F8012BA8BF20F8022BA1EB0C01FFF70C
:101580000CBA5FEAC17C24BF00F8012B00F8012BE4
:1015900048BF00F8012B704700487047A09A01200F
:1015A00010B500F005F8001D10BD00BF31BF0200EE
:1015B00000487047C09A012030B5B0F10A024FEAE6
:1015C000900E71F100034EEA817EB0EB0E0061EBEC
:1015D00091014FEA101E4EEA017E10EB0E0041EB26
:1015E00011114FEA102E4EEA016E10EB0E0041EB86
:1015F00011214FEA104E4EEA014E10EB0E0041EB66
:101600001141401841F100014FEAD00040EA417019
:101610004FEAD10110EB80054FEA810444EA90744F
:1016200044EB01046D1944EB0404521BA3414FF039
:10163000000348BF0A3200D530BD401C41F1000113
:1016400030BD00001FB584B000200A9C06AB04AA80
:1016500002A90094AFF3008018B1DDE9020108B0DF
:1016600010BD0348204000F04EFD00200146F6E783
:101670000000207C10B50446FFF792FF0068005D73
:1016800000F0010010BD000001694A1C02610878E9
:10169000704700B58FB0CDE90131002105910549B2
:1016A0007944CDE9031011466846FEF7A3FF0FB059
:1016B00000BD0000E5FFFFFF2DE9F0411F46044695
:1016C00003260168072A01F4006004DB08B116A5AF
:1016D00005E016A503E008B115A500E015A521F069
:1016E00010002060A069C01EA0610FB1401EA06163
:1016F0002046AFF300804FB1D4E90121384690472E
:10170000206A401C2062C01C206206E0206AFAE7C2
:10171000D4E9012115F8010B9047761EF8D2204636
:10172000AFF30080BDE8F0814E414E006E616E0067
:10173000494E4600696E66002DE9F34F4FF0000AEE
:101740000C4656468DB001200C9001F10C000B9018
:1017500062690B9801219047051E2DD0252D2CD0B4
:10176000216A8847C0B162690B9801219047216ABC
:1017700088470028F7D16269411E0B98904700E026
:10178000761CA1690D988847216A88470028F7D1FF
:10179000E1690D988847DBE7A1690D988847A84261
:1017A000074601D1761CD3E7E1690D9888477F1C75
:1017B00002D1BAF1000F6FD06CE162690B9800277B
:1017C0003D46394690472A2804D162690B98012189
:1017D00090470125DFF8D08262690B98012190477C
:1017E000A0F130010A290AD24745E5DC07EB870161
:1017F00000EB4107303FDFD445F01005ECE7E90688
:1018000001D46FF000476C280AD04C2814D0682807
:1018100015D06A280DD074281CD07A281AD01DE063
:1018200062690B98012190476C2802D045F00405AD
:1018300014E045F002050DE045F020050AE062697C
:101840000B9801219047682802D045F0080505E073
:1018500045F4006562690B9801219047C4E901577E
:1018600065283DD019DC58287AD00CDC452837D0C3
:1018700004DC252826D041289ED131E046282FD0EF
:10188000472899D12CE05B2877D0612828D063289D
:101890007CD0642823D15AE0F7E06F2848D008DCD8
:1018A00066281DD067281BD0692821D06E2816D144
:1018B00027E0702845D0732868D0752847D078284D
:1018C0000DD14DE0A1690D988847252805463FF4C4
:1018D00069AFE1690D9888476D1C3FF46AAFD9E0A4
:1018E0000D9923466A466FF001002DF047FBC6E0D4
:1018F00045F0400023464FF000026060A80736D450
:101900003EE0E8077FF447AF2068011D21600068D2
:10191000290501D506701BE7290701D5068017E7C1
:10192000A90703D5F117C0E9006111E706600FE7C9
:1019300045F0400023464FF008026060A80716D427
:101940001EE040F60E0125EA0100606016E045F059
:10195000400023464FF00A026060A80707D40FE05A
:1019600045F040006060A80708D5234610220D9975
:101970006FF00100AFF3008081E007E01022234602
:101980000D996FF00100AFF3008078E04FF000098F
:1019900063284F46C8464B46CB4602D05B2807D04B
:1019A00039E02079C00601D40120A060012732E08F
:1019B0006269D4F80CB00B98012190475E2807D1DA
:1019C0004FF0010949466269D4F80CB00B98904772
:1019D000216939B900210A4603AB43F82120491C8B
:1019E0000829FADBD8B3216949B308F10108626913
:1019F0000B98012190475D28F4D1B9F1000F09D06F
:101A0000002003A951F82020D24341F82020401C97
:101A10000828F7DB03AB2069002820794FEA4070E3
:101A20001ED05B462246CDF80080CDE901970D9986
:101A300000286FF0010020DAAFF300801FE0C1172B
:101A400003AA00EBD1614B1121F01F0102EB8302CD
:101A5000411A13680120884003431360C7E719E067
:101A60000D99224600286FF00100009702DAAFF3CB
:101A7000008004E0AFF3008001E0AFF300800028B5
:101A80000ADA401C06D10C9820B14FF0FF300FB09D
:101A9000BDE8F08F5046FAE7E90701D10AF1010AE3
:101AA000064400200C9053E6CCCCCC0C2DE9F05F22
:101AB000824615468B4600270AF10104B946007894
:101AC000302801D09DB113E014F8010B01277828CC
:101AD00003D0582801D045B10AE00DB1102D07D12F
:101AE000002714F8010B102502E0082500E00A2564
:101AF0000026B0460EE005FB080005FB06F10127B5
:101B00001FFA80F801EB1046B6F5803F00D3B946C6
:101B100014F8010B294600F0B4F80028EBDABBF109
:101B2000000F05D00FB1641E00E05446CBF8004012
:101B3000B9F1000F06D0FEF799FF02210160C81E1F
:101B4000BDE8F09F48EA0640FAE700002DE9F047BB
:101B5000814616468AB0354878440DC88DE80D0098
:101B600032487844801C03AC0DC884E80D0041F66F
:101B70009B300844372190FBF1F290FBF1F5A5F181
:101B8000800501FB12041B3C02D56442012000E0E9
:101B90000020DFF898A080460027FA44AAF1BE0A88
:101BA0000EE0E0070AD03246684607EB4701012302
:101BB0000AEB810100F01EFE8DE8070064107F1C17
:101BC000002CEED1194F7F44AE3F19E0E80715D045
:101BD00007EB04100DF1180A90E80E008AE80E00D9
:101BE000C068F04201D1981908903246012306A935
:101BF00003A800F0FFFD03AB83E807006D10641C31
:101C0000002DE3D14FF0010332466946B8F1000FD1
:101C100003A802D000F0C4FD01E000F0EBFDC9E92B
:101C20000001C9F808200AB0BDE8F0877041030040
:101C3000007B00F0800070477546FFF7ADFCAE46B4
:101C400005006946534620F00700854618B020B5C8
:101C5000FEF7AEFBBDE820404FF000064FF0000756
:101C60004FF000084FF0000B21F00701AC46ACE844
:101C7000C009ACE8C009ACE8C009ACE8C0098D46B1
:101C800070473A2800D2303820F02002412A01D390
:101C9000A2F13700884201D34FF0FF3070470000B7
:101CA0002DE9FF4F1F464FF03C0987B04FF000422F
:101CB000DDE9141001F10108DDF858A002EA4050F6
:101CC0000390002005908346054604460490B969B8
:101CD000461E08988847AAF1010A0290BAF1000F3F
:101CE0003BDD02982E2815D01021FFF7CAFF0028EF
:101CF0002EDB4FF0010B0599014317D0B9F1000F0E
:101D00000BDB4A46C11700F005FA05430C43A9F165
:101D1000040905E0012004900BE008B145F001053D
:101D200001200590049820B9361D02E0049800B106
:101D3000361FB969089808F101088847BBF1000F00
:101D4000AAF1010A0290C9D00999C1F80080C5E73B
:101D50000298702808D0502806D0F969089888475A
:101D6000BBF1000F14D04FE0002002900120BBF126
:101D7000000F049009D0B969089808F10108884754
:101D8000AAF10109B9F1000F07DCF9690898884741
:101D90006FF001000BB0BDE8F08F2B2804D02D2888
:101DA0000CD14FF0FF300490B969089808F1010890
:101DB0008847A9F10109B9F1000FE6DD411CE4D023
:101DC0000A21FFF75EFF0028DFDB029908F1010816
:101DD00001EB810100EB41000290B9690898884746
:101DE0000A21FFF74EFF099AA9F10109B9F1000F85
:101DF000C2F8008001DD0028E7DAF9690898884711
:101E00000499029800FB016655EA040004D004F02E
:101E10004041090002D006E0039898E0A40044EA9B
:101E20009574AD00B61E04F00041080002D16D1992
:101E30006441761E159810F0240F03D04FF00B0963
:101E40005C4803E04FF028096FF07D00824656455C
:101E500007DAAAEB06018944B9F1410F01DD4FF021
:101E6000410901200021A9F1010200F053F90246C5
:101E700028400B462140084301D0012100E0002109
:101E8000501E029143F1FF3128402140084301D008
:101E9000012000E000200299834651EA0B014FD057
:101EA000002108462CF074FF039900F4400039B17A
:101EB00000EB80004FF4400100EBD07001EA6000BD
:101EC0008015012802DD4FF0FF3000E013D0401CE8
:101ED00036D0029860B3BBF1000F0CD14A46012006
:101EE000002100F017F928402140084301D00120CB
:101EF00000E00020E0B101204A46002100F00AF98C
:101F0000034640190A4661412D1A8C4111D3B9F19B
:101F1000400F09DD159810F0240F02D0AAF1340605
:101F200003E0AAF1170600E0761C00254FF00044FC
:101F300006E05B1E42F1FF3220EA030521EA0204BB
:101F4000CAF10100B04206DA1B4903980843019028
:101F5000002000900EE0039AC4F3D321E80A0A435C
:101F6000164940EA44500A433146CDE9000268462A
:101F700004F063F9159810F0240F0BD01598C007E2
:101F800015D13868DDE90012031D3B600068C0E927
:101F900000120CE002A8694604F046F91598C00743
:101FA00005D13868029A011D396000680260404618
:101FB000F0E6000002FCFFFF0000F07F0000F03FB1
:101FC0002DE9FF4F92461D4685B04FF00041DDE9F7
:101FD000124BDDE914727F1E01EA4B50414940F07B
:101FE000FF4940EA0108002122F02000492804911D
:101FF00002D04E2828D04CE03BA0012607C88DE82F
:102000000700A9690698641C88477F1E014606D40C
:102010001DF8060018B121F0200181420BD0E969BA
:1020200006988847032E34D0082E32D06FF0010076
:1020300009B0BDE8F08F761C032E01D0082EE0D148
:10204000601CCAF80000DCE7A9690698641C884790
:102050007F1E2AD420F02000412826D1A9690698A5
:10206000641C88477F1E20D420F020004E281CD1FD
:10207000A9690698641C88477F1E48F4002849F423
:102080008009CAF8004001D4282806D0E9690698DA
:1020900088475FEACB7012D022E0A9690698641CD9
:1020A00088477F1E01D4002803DAE969069888472B
:1020B000BCE72928F1D1641CCAF80040E9E71BF00D
:1020C000240F07D028680499031D2B600068C0E91D
:1020D000001805E02868021D2A600068C0F800901A
:1020E0002046A5E70000F07F494E46494E49545925
:1020F0000000000010B50446AFF300802046BDE8A4
:102100001040FEF7E1B810B500F01CF8BDE8104033
:1021100000F013B8B2F120030AD5C2F1200301FA8E
:1021200002F120FA03F300FA02F041EA03017047DA
:1021300000FA03F14FF000007047002801D005F0CD
:10214000ECBE704710B5022803D0410103D50DA1A4
:1021500012E0002010BD010101D50FA10CE0C1006B
:1021600001D511A108E0810001D512A104E04000D1
:1021700001D513A100E0002115A000F039F80120DD
:1021800010BD0000496E76616C6964204F70657205
:102190006174696F6E00000044697669646520426D
:1021A00079205A65726F00004F766572666C6F77A2
:1021B00000000000556E646572666C6F7700000069
:1021C000496E657861637420526573756C740000A4
:1021D0005349474650453A2041726974686D6574A9
:1021E000696320657863657074696F6E3A200000DA
:1021F00070B505460C460A2000E06D1C05F08EFE09
:1022000035B128780028F8D102E0641C05F086FE7C
:1022100014B120780028F8D1BDE870400A2005F0FC
:102220007DBE5FEA400C08BF91F0000F4FEA8C239F
:102230004FEAC12243EA51514FEA1C5018BF00F542
:10224000F0404FEA300018BF41F000415FEA6C5C9B
:1022500000F02980BCF1FF3F08BF40F0804070478C
:10226000130C06BF12044FF0100C4FF0000C130EAD
:1022700004BF12020CF1080C130F04BF12010CF181
:10228000040C930F04BF92000CF1020CD30F04BF97
:1022900052000CF1010C11464FF00002A0F11F009A
:1022A000A0EB0C00704711F0004F08BF704731F0F1
:1022B00000413FF4D5AF0B0C06BF09044FF0100CE2
:1022C0004FF0000C0B0E04BF09020CF1080C0B0FB1
:1022D00004BF09010CF1040C8B0F04BF89000CF141
:1022E000020CCB0F04BF49000CF1010CCCF1200310
:1022F000A0EB0C0022FA03F302FA0CF241EA03010C
:1023000000F10100704720F07F4C80EA030023F0C9
:102310007F47ACEB070303F57C5300F0004003F16B
:10232000FF032DE980494FEA154B09B44FEA1443E6
:1023300025EA0B4E24EA03480FF2042606EB132786
:1023400049083E785FEA320203FB0667C7F50007DB
:1023500007FB06F64FEA54374FEAD64606F1020667
:1023600007FB066CCCF1005C4FEA1C472CEA074CDB
:1023700007FB06F40CFB06F504EB15464FEA961630
:1023800034BF00204FF000404FEAD13706FB07FC76
:102390004FEA1C4C0CFB0BF7D21B03FB0CF761EB59
:1023A00007010CFB0EF7B0EB074072EB17420CFB7A
:1023B00008F734BFA2EB0742B2EB074261EB1741CB
:1023C0004FEA0C444FEA910706FB07FC4FEA1C4C0E
:1023D0000CFB0BF7B0EBC74072EB573203FB0CF76B
:1023E00034BFA2EBC742B2EBC74261EB57310CFBE3
:1023F0000EF7B0EBC70072EB57720CFB08F734BF57
:10240000A2EBC702B2EBC70261EB5771039F4FEA21
:10241000816141EA921104EBCC044FEAD1374FEAD3
:10242000826206FB07FC42EA90124FEA80604FEAA4
:102430001C4C0CFB0BF7D21B03FB0CF761EB0701E9
:102440000CFB0EF7B0EB074072EB17420CFB08F7E2
:1024500034BFA2EB0742B2EB074261EB17414FEAF0
:102460008C554FEA910704EB9C2406FB07FC4FEACE
:102470001C4C0CFB0BF7B0EBC74072EB573203FB65
:102480000CF734BFA2EBC742B2EBC74261EB573146
:102490000CFB0EF7B0EBC70072EB57720CFB08F7A2
:1024A00034BFA2EBC702B2EBC70261EB577115EB69
:1024B0004C254FEA816141EA92114FEA82624FEA6C
:1024C000D13742EA901206FB07FC44F100044FEAC0
:1024D00080604FEA1C4C0CFB0BF7D21B03FB0CF784
:1024E00061EB07010CFB0EF7B0EB074072EB1742F4
:1024F0000CFB08F734BFA2EB0742B2EB074261EBDB
:10250000174115EB1C154FEA813141EA92414FEA20
:10251000823242EA90424FEA80304FEA0C7644F130
:10252000000448EA03434EEA0B484FF0000EB2EBBA
:10253000080C71EB030724BF624639464EEB0E0EC2
:102540004FF0000B0018524149414BEB0B0BB2EB23
:10255000080C71EB03077BF1000B24BF6246394680
:102560004EEB0E0E4FF0000B0018524149414BEB61
:102570000B0BB2EB080C71EB03077BF1000B24BFD4
:10258000624639464EEB0E0E51EA020718BF46F07E
:10259000010616EB0E7655F1000254F1000103D549
:1025A000BDE88901BDE80088BDE88901BDE80048B3
:1025B000B619524141EB0101A3F10103704780803C
:1025C0007F7E7D7C7B7A797877767675747372718D
:1025D00071706F6E6E6D6C6C6B6A6A696868676645
:1025E00066656464636362616160605F5F5E5E5DD7
:1025F0005D5C5C5B5B5A5A5959585857575656554B
:1026000055555454535352525251515050504F4FAC
:102610004F4E4E4D4D4D4C4C4C4B4B4B4A4A4A49FC
:10262000494948484847474747464646454545443F
:1026300044444443434343424242424141410000F7
:1026400046EA0646A3F570534FEA164646EA425656
:102650004FEAD22242EA415210B54FEAD121A3F10A
:10266000010300F02FF820F0004000F1020C00F010
:10267000004701EB00501146BCF5006F40EA07002F
:1026800000D210BDBAF1000F0AD01CB503B44FF050
:1026900004004FF004012CF07BFB0FBCBDE81040A0
:1026A0004FF00001BBF1010FB9BF04484FF0FF31FB
:1026B0000348002140EA070010BD00BFFFFFEF7F85
:1026C0000000F07F002B9C4630D477002BD01CB547
:1026D0004FEA370703B44FF010004FF01001BAF182
:1026E000000F06D0BCF1000FDCBF40F0080040F046
:1026F00008012CF04DFB0FBCBDE810400BF1010BA5
:10270000BBF1010F08BF5FEA170722BF12F10102F8
:1027100011F101014FF0004143F1000300F00040CE
:1027200043EA00007047F9D35708D0E746EA064667
:1027300013F1400F4FEA16461FDD13F1200FDFBFE4
:1027400016430A46002120335B42BED0C3F1200766
:1027500046EA064602FA07F74FEA164646EA070631
:10276000C3F1200722FA03F201FA07F721FA03F175
:102770004FF0000342EA0702A7E746EA020646EAEC
:1027800006464FEA164646EA0106BCBF46EA06463A
:10279000360C4FF000034FF000024FF0000194E7B9
:1027A0002DE9804C9A46934670B491E8380007C8EA
:1027B00031EA400C48BF34EA430C03D5FFF7A3FDD0
:1027C000FFF780FFF0BCBDE8008C2DE9804C9A46F5
:1027D000934670B491E8380007C831EA400C48BF0E
:1027E00034EA430C03D5FFF78EFDFFF729FFF0BC59
:1027F000BDE8008C2DE9804C9A46934670B491E870
:10280000380007C810F0804F08BF13F0804F03D185
:1028100000F01AF8FFF756FFF0BCBDE8008C2DE978
:10282000804C9A46934670B491E8380007C810F07F
:10283000804F08BF13F0804F03D100F005F8FFF779
:10284000FFFEF0BCBDE8008C20F07F4780EA03006B
:1028500023F07F4C07EB0C03A3F57C5300F0004002
:10286000A3F1FE0392F0000F00F0B38095F0000F8B
:1028700000F077802DE901494FEA11404FEA1446F4
:1028800021EA004800FB06FC24EA064708FB06F69E
:1028900007FB08F800FB07F718EB06484CEB164C53
:1028A0004FEA124B18EB07484FEA15464CEB17401E
:1028B00022EA0B4E0BFB06FC25EA06470EFB06F64A
:1028C00007FB0EFE0BFB07F71EEB064E4CEB164C00
:1028D0004FF000061EEB074E4CEB174B18EB0B08A6
:1028E00040F1000018EB0E0B58EB000840F100001F
:1028F0008F1A4FF000013CBFC943661B14BFB5EBF4
:10290000040C00213CBFC943F61B4FEA17444EEAB2
:102910008E0E27EA04454FEA1C4704FB07622CEAA7
:10292000074C05FB07F70CFB05F604FB0CFC16EB4C
:10293000074642EB174216EB0C4642EB1C421BEBE0
:10294000060658EB0202414146EA9E0601D5BDE863
:102950000189B619524141EB0101A3F10103BDE820
:1029600001894FEA14454FEA114724EA054621EA56
:10297000074C05FB07F406FB07F70CFB06F105FB0C
:102980000CFC11EB074144EB17444FEA124711EBE3
:102990000C4144EB1C4422EA074C05FB07F206FB02
:1029A00007F70CFB06F605FB0CFC16EB074642EBA3
:1029B000174216EB0C4642EB1C456A1854F1000115
:1029C00048BF7047B619524141EB0101A3F1010321
:1029D000704795F0000F37D04FEA11424FEA144785
:1029E00021EA024624EA074C02FB07F106FB07F73F
:1029F0000CFB06F402FB0CFC14EB074441EB174103
:102A00004FEA154714EB0C4441EB1C4125EA074CF7
:102A100002FB07F506FB07F70CFB06F602FB0CFCB6
:102A200016EB074645EB174516EB0C4645EB1C42EB
:102A3000121951F1000148BF7047B619524141EBDC
:102A40000101A3F1010370474FEA14454FEA114712
:102A500024EA054621EA074C05FB07F106FB07F7C8
:102A60000CFB06F24FF0000605FB0CFC12EB0742D4
:102A700041EB174112EB0C4251EB1C4148BF704730
:102A8000921841EB0101A3F101037047464910B5CB
:102A90004A6822F440324A604A6843681A434A60EE
:102AA00001684A6822F480724A6001684A680369D2
:102AB00042EA03224A6001684A6822F040724A6092
:102AC00001684A6883681A434A6001688A6822F488
:102AD00000628A6001688A68C3681A438A60816AF2
:102AE0006FF07062D14201688A6822F070628A6079
:102AF00001688A680CD0836A1A438A6001688A6810
:102B000022F040528A6001688A68C36A1A4301E071
:102B100022F040528A6001688A6822F002028A60CC
:102B200001688A68037E42EA43028A6090F82010B6
:102B3000002901684A680FD042F400624A600168C7
:102B40004A6822F460424A6001684A68174C436A46
:102B500004EB43331A4301E022F400624A60016847
:102B6000CA6A22F47002CA620168CA6A838B104C76
:102B700004EB03531A43CA6201688A6822F40072A4
:102B80008A6001688A6890F8303042EA43228A609D
:102B900001688A6822F480628A6001688A684069F4
:102BA00042EA8020886010BD0023014000E0FFFF62
:102BB0000000F0FFFEE77047012000F027BB10B5D2
:102BC0004FF4807000F022FBBDE810404FF400701D
:102BD00000F01CBB72B6FEE770B5B3F5804F05D0B0
:102BE0006FF0704140F82210002070BD50F8224074
:102BF000084B8E891C40D1E9003543EA05138D68E6
:102C000089692D0245EA06452B430B43234340F8CF
:102C10002230E9E70000F0CFF0B50C6850F824301E
:102C20001A4A1340D1E90125D1E903672A433E43FB
:102C300032434E693243CE6932430E6A32434E6AA2
:102C400032438E6A3243CE6A32430E6B32434E6B4E
:102C50003243CE6B32438E6B32431A43082D01D17F
:102C600042F0400240F824204A6BB2F5801F05D1A3
:102C70000A684AB1026842F4801202600A681AB116
:102C80000268896B0A4302600020F0BD8004C0FF27
:102C9000F0B500EB8204626802F04045D1E9002300
:102CA00042EA03128B688E891B0243EA06431A43E9
:102CB0000E8A0D4B03EB065632430E7D5F0107EB88
:102CC000066632438E6932432A4362600268D2024A
:102CD00007D54268098A22F4700203EB01511143BF
:102CE00041600020F0BD00000000F0FF78B5002436
:102CF000009490F83C20012A19D0012280F83C2051
:102D00000A6807230568092A13D9EE680A3A02EB14
:102D1000420293409E43EE600B788A680A3B03EBC5
:102D200043039A400368DD682A43DA6010E002201A
:102D300078BD2E6902EB420293409E432E610B78D0
:102D40008A6803EB43039A4003681D692A431A61AA
:102D50004A681F23072A13D205686E6B521E02EBC6
:102D6000820293409E436E630B790A885B1E92B287
:102D700003EB83039A4003685D6B2A435A6327E0A1
:102D800005680D2A12D22E6BD21F02EB82029340ED
:102D90009E432E630B790A88DB1F92B203EB8303F9
:102DA0009A4003681D6B2A431A6311E0EE6A0D3ADC
:102DB00002EB820293409E43EE620B790A880D3B40
:102DC00092B203EB83039A400368DD6A2A43DA6216
:102DD000164B0568144A9D4206D10D68122D03D189
:102DE000556845F48005556005689D4218D10B680B
:102DF000102B01D0112B13D1536843F400035360FF
:102E0000096810290CD10A490A4A0968B1FBF2F194
:102E100001EB8101490000E0491E00910029FBD12E
:102E200080F83C40002078BD002301400020014094
:102E30004C00002040420F000068C06C704770B525
:102E400004004FF0000503D0206C002610B107E00D
:102E5000012070BD204600F01DF8666484F83C60D7
:102E6000206CC00610D4206C20F4885040F0020082
:102E700020642046FFF70AFE6664206C20F0020002
:102E800040F00100206400E0012584F83C60284601
:102E900070BD000010B586B0044614216846FDF7E9
:102EA0007AFD1149206888421CD11048002102682F
:102EB00042F480720260006800F4807005900B4854
:102EC0001438026842F001020260006800F001005C
:102ED0000590012000900320CDE9010169460448D6
:102EE00000F0A0F906B010BD0020014044380240B7
:102EF000000002402DE9F041044600680D4681685B
:102F00004FF0000749050BD58068C00508D5206C37
:102F100040F02000206484F83C700120BDE8F0817E
:102F200000F064FA064613E0681C11D025B100F0E9
:102F30005DFA801BA8420BD920680068800707D47F
:102F4000206C40F00400206484F83C700320E5E726
:102F5000206800688007E7D521686FF012000860DC
:102F6000206C40F4007020642068816811F0405F9C
:102F700013D1217E89B9C16A11F4700F02D0806823
:102F800040050AD4206C20F480702064206CC004BA
:102F900003D4206C40F0010020640020BEE7000054
:102FA00018B50021009190F83C20012A07D0012299
:102FB00080F83C2002689368DB0702D011E0022011
:102FC00018BD936843F001039360244A244B1268B0
:102FD000B2FBF3F202EB420200E0521E0092002A22
:102FE000FBD102689368DB072ED0036C40F20164CA
:102FF000A34343F48073036453685B0505D5036CF6
:1030000023F4005343F480530364036CDB0404D5BE
:10301000436C23F00603436400E0416480F83C10F5
:1030200010496FF02203136049680068C90602D096
:103030000D49884210D1816811F0405F0CD1816840
:1030400041F08041816007E0016C41F010010164B2
:10305000416C41F001014164002018BD4C0000208A
:1030600040420F0000230140002001402DE9F041C3
:103070000446876D00F0BAF9064694F8350000253D
:10308000022806D08020606584F834500120BDE815
:10309000F0812068016821F0160101602068416913
:1030A00021F080014161206C08B9A06C20B120683A
:1030B000016821F0080101602068016821F0010128
:1030C00001600CE000F092F9801B052807D9202050
:1030D0006065032084F8350084F83450D7E7206811
:1030E0000068C007EED194F85C103F208840B860BB
:1030F000012084F8350084F834500020C7E790F8A8
:103100003510022903D08021416501207047052137
:1031100080F835100068016821F00101016000208D
:103120007047000070B5044600F060F90546601C69
:1031300002D004480078044400F058F9401BA04233
:10314000FAD370BD400000202DE9F04387B0142170
:103150006846FDF720FC2148016800293AD1012189
:1031600001601F480024016841F00101016000680E
:103170003C2700F001004FF00C080097CDE90480D7
:10318000032602250396DFF85C90CDE901546946D9
:10319000484600F047F802AA694682E85001CDE9A6
:1031A0000075114800F03EF86803CDE9000502AA59
:1031B0000A2782E8D00069460C4800F033F84FF443
:1031C000C250CDE9000502AA694682E8D00048460F
:1031D00000F028F807B0BDE8F083000034000020BC
:1031E000383802400008024000000240000402405B
:1031F000054900228A6008804868002802D008310A
:1032000029F045BD70470000D0000020044910B5EA
:103210000A68024202D00860FFF7EAFF10BD000012
:10322000143C01402DE9F84FDFF890A10022012461
:103230000AF1040B03254FF00F090BF1040E00BF38
:103240000B6804FA02F63340B3426ED10F7907F0EF
:103250000307012F01D0022F16D187684FEA4208D9
:1032600005FA08FC27EA0C07D1F80CC00CFA08FC98
:103270004CEA070CC0F808C04768B7430E79C6F39C
:10328000001696403E4346600E79F643B6070AD0D4
:10329000C6684FEA420C05FA0CF7BE438F6807FA7E
:1032A0000CF73743C7600E7906F00306022E10D1E3
:1032B000D60800EB8608D8F8206057074FEAD76C8D
:1032C00009FA0CF7BE430F6907FA0CF73743C8F841
:1032D000207006684FEA420C05FA0CF7BE430F79DE
:1032E00007F0030707FA0CF7374307604E6816F438
:1032F000403F5CD0324E376847F4804737603668CD
:1033000022F0030706F4804600962E4E07EB060CCB
:10331000DCF8086897074FEA177809FA08F7BE4300
:10332000294FB84202D1002710E040E0274FB842B1
:1033300001D101270AE0264FB84201D1022705E05A
:10334000244FB84201D1032700E0072707FA08F706
:103350003743CCF80878DAF800605746D1F804C053
:103360009E435FEACC3C00D51E433E60DBF8006024
:103370005F46D1F804C09E435FEA8C3C00D51E43F3
:103380003E60DEF800607746D1F804C09E435FEAF5
:10339000CC2C00D51E433E60084F0C373E68D1F858
:1033A00004C09E435FEA8C2C00D51E433E60521C35
:1033B000102AFFF445AFBDE8F88F0000003C014043
:1033C0004438024000300140000002400004024046
:1033D00000080240000C02400069084000D00120B3
:1033E00070470AB1816170470904FBE701488068B2
:1033F000704700004000002070B5040004D094F82D
:103400003D00002510B106E0012070BD84F83C505D
:10341000204601F081FA242084F83D002068C1682C
:1034200021F40051C160204602F0ECFC20680169E3
:1034300021F4904101612068416921F0220141613C
:103440002068416941F0080141612068C16841F488
:103450000051C1602564202084F83D0084F83E00BE
:10346000002070BD70B5040025D094F83D00002503
:1034700020B984F83C50204600F04CFA242084F80F
:103480003D002068016821F00101016020680168A9
:1034900041F4004101602068016821F400410160AD
:1034A00000F0E0FB4D4A6168914201D84C4900E0D0
:1034B0004C49884201D2012070BD4B492368B0FBC2
:1034C000F1F15E6826F03F060E435E60636893424A
:1034D00006D94FF4967359434FF47A73B1FBF3F165
:1034E0002368491C1E6A26F03F0631431962616851
:1034F000914210D84900401EB0FBF1F2521CC2F3B9
:103500000B02042A01D2042022E0B0FBF1F0401C9F
:10351000C0F30B001CE0A268F2B301EBC10303EBA4
:103520000116431EB3FBF6F35B1C43F480431B05FB
:1035300049D092B301EBC10202EB0111401EB0FB76
:10354000F1F0401CC0F30B0040F4804040F4004018
:103550002168CA694CF6FF739A431043C861D4E9E5
:10356000071001432068026822F0C0021143016085
:10357000D4E9030101432068826848F2FF339A438B
:1035800011438160D4E9050108432168CA6822F02B
:10359000FF021043C86001E00EE016E020680168F9
:1035A00041F0010101602564202084F83D0025637D
:1035B00084F83E50002070BD01EB4106431EB3FB72
:1035C000F6F35B1CB3E70120C2E701EB4101401EAB
:1035D000B0FBF1F0401CC0F30B00B7E7A086010080
:1035E00080841E0000093D0040420F002DE9FF4F7E
:1035F00083B09A46DDE9119793460446DDF8408092
:10360000FFF7F4FE054694F83D00202870D11923F9
:10361000012271492046009501F058FB0028F5D1A0
:1036200094F83C00012863D0012084F83C00206815
:103630000168C90703D1016841F0010101602068F8
:10364000016821F400610160222084F83D004020DF
:1036500084F83E0000262664C4F82480A4F82A904A
:10366000608D20855D48E062CDE9007553465A467D
:103670002046049901F032FA00287CD1208DD0B187
:10368000012821D00228206824D041698069009057
:10369000208D032869D801282BD0514902283B46A8
:1036A0004FF00002009559D08846204601F00EFBED
:1036B000002860D13CE0206841698169009101687F
:1036C00041F40071016077E02068016821F48061B5
:1036D0000160F0E7016821F4806101602068016801
:1036E00041F400610160206841698069009063E0F5
:1036F0006FE02A463946204601F067FB98BB2068F8
:103700000069616A08704EE02068016841F4007148
:10371000016020680069616A0870606A401C60622C
:10372000218D491E2185618D491E6185216838E002
:103730002068016821F48061016020680069616A85
:103740000870606A401C6062208D401E2085608D7C
:10375000401E60853B46002241460095204601F010
:10376000B5FA00B9D0E706E0FFE72A463946204619
:1037700001F02BFB18B1012007B0BDE8F08F2068E5
:103780000069616A0870606A401C6062218D491E90
:103790002185618D491E618521684A69D24352079E
:1037A0000AD409690170606A401C6062208D401E65
:1037B0002085608D401E6085208D00287FF468AFD5
:1037C000202084F83D0084F83E6084F83C600020AE
:1037D000D2E70220D0E70000020010000000FFFF47
:1037E000040001002DE9FF4F83B09A46DDE91197EF
:1037F00093460446DDF84080FFF7F8FD054694F84F
:103800003D0020287FD11923012240492046009500
:1038100001F05CFA002876D194F83C00012872D0BF
:10382000012084F83C0020680168C90703D10168C1
:1038300041F0010101602068016821F4006101602C
:10384000212084F83D00402084F83E0000262664B4
:10385000C4F82480A4F82A90608D20852C48E0626A
:10386000CDE9007553465A462046049901F0B4F953
:1038700070B930E02A463946204601F0D9FA58B1ED
:10388000206C042804D12068016841F400710160B3
:10389000012007B0BDE8F08F606A216800780861F8
:1038A000606A401C6062218D491E89B22185628D4B
:1038B000521E628522685369DB435B070BD469B1F2
:1038C00000781061606A401C6062208D401E208577
:1038D000608D401E6085208D0028CBD12A46394658
:1038E000204601F0CDF90028CAD154F83D0B0168FB
:1038F00041F400710160202004F81E09E677667724
:103900000020C6E7FFE70220C3E700000200100026
:103910000000FFFF10B586B0044614216846FDF78D
:103920003AF814492068884221D11348016841F0CF
:10393000020101600068694600F0020005904FF442
:10394000C07000901220019001200290032003908B
:10395000042004900948FFF765FC0748103001680F
:1039600041F400110160006800F40010059006B0F9
:1039700010BD0000005400403038024000040240F6
:10398000024881680278114481607047400000203D
:103990000B4810B5016841F400710160016841F401
:1039A00080610160016841F480710160032000F0D2
:1039B0008DF8042000F006F800F03EF8002010BD5D
:1039C000003C024010B5014688B00022192000F0EA
:1039D0005DF8192000F04CF813480024016841F00C
:1039E00001010160006805A900F001000690684629
:1039F00000F018F900F046F90C490D4AB0FBF1F15E
:103A00000C48491E026040F2E732C0E90324C0E9D5
:103A1000011400F0AFFB10B1012008B010BD054843
:103A200000F0D6FBF9E700004438024040420F00A6
:103A300000000140A01500200C4882B0016841F44C
:103A400080410160006800F4804000900748001F3A
:103A5000016841F0805101600068002200F0805050
:103A600000900F21901E02B000F010B844380240C0
:103A7000002809DB00F01F0201219140400980006D
:103A800000F1E020C0F8001170470000F0B40E4BC8
:103A90001B680C46C3F30223C3F10705042D00D9AC
:103AA0000425191D072901D2002300E0DB1E012691
:103AB00006FA05F1491E214099409E40761E1640A7
:103AC0003143F0BC02F09BBA0CED00E0064900F077
:103AD000070208684FF6FF03184040EA0220034A35
:103AE00010430860704700000CED00E00000FA058C
:103AF0002DE9F0470E46050065D0DFF81481D8F8AF
:103B00000000F7B200F00700B04207D288F800705A
:103B1000D8F8000000F00700B04254D128683D4CAE
:103B2000810712D5400703D5206840F4E05020609B
:103B30002878000703D5206840F4604020602068A2
:103B4000A96820F0F000084320602878C0072DD035
:103B5000304968680839012812D0022813D0032898
:103B600011D00968890700292DDA216821F00301A5
:103B700001432160FFF73AFC814641F2883A0EE0AA
:103B800009688903EFE709688901ECE7FFF72EFC74
:103B9000A0EB0901514502D90320BDE8F087206858
:103BA000696800F00C00B0EB810FEFD1D8F800107D
:103BB000404601F00701B14207D90770006800F0E4
:103BC0000700B04201D00120E7E72878400705D57B
:103BD0002068E96820F4E050084320602878000756
:103BE00006D52068296920F4604040EAC1002060C1
:103BF00000F058F82168084AC1F30311515CC8402D
:103C00000649086006480068FFF7DCFE0020C4E7AC
:103C1000003C024008380240E0F002084C0000205E
:103C2000440000200F2202600C4A136803F00303D3
:103C30004360136803F0F0038360136803F4E053F8
:103C4000C36012684FF4E05303EAD20202610448F1
:103C5000006800F007000860704700000838024064
:103C6000003C02400448054900680968044AC1F361
:103C70008221515CC84070474C0000200838024047
:103C8000F0F002080448054900680968044AC1F3D5
:103C90004231515CC84070474C0000200838024057
:103CA000F0F00208154810B5006810F00C02144836
:103CB00013D04110042A0FD0082A0ED10F4C241F14
:103CC0002268236802F03F025B0207D52068C0F338
:103CD0008810A0FB010106E0084610BD2168C1F371
:103CE0008811A1FB00010023FCF775FB2168C1F3DB
:103CF0000141491C4900B0FBF1F010BD08380240F9
:103D00000024F4002DE9F84F04006ED02078DFF88D
:103D10006093C007A9F104054AD009F104000168C5
:103D2000C1F38101012908D00068C0F38100022895
:103D30000AD1D9F80000400206D52868800337D59B
:103D400060680028E1D033E06068B0F5803F10D0B3
:103D5000B0F5A02F286810D020F4803028602868A3
:103D600020F4802028606068A8B1FFF73FFB06467A
:103D70000DE0286840F48030F4E740F480202860AB
:103D8000F7E700BFFFF732FB801B642873D8286871
:103D90008003F7D50CE0FFF729FB064605E000BFDE
:103DA000FFF724FB801B6428F0D828688003F7D431
:103DB0002078DFF8C08280074FF0000A3ED5AC487B
:103DC000001D016811F00C0F08D00068C0F38100DD
:103DD00002280BD1D9F80000400207D428688007D8
:103DE00016D5E068012800D112E03CE1E068B8B1E6
:103DF0000120C8F80000FFF7F9FA064605E000BF09
:103E0000FFF7F4FA801B0228C0D828688007F7D58E
:103E10002868216920F0F80040EAC10028600DE020
:103E2000C8F800A0FFF7E2FA064604E0FFF7DEFA62
:103E3000801B02281FD828688007F7D42078000745
:103E400022D58B4E8C486169703671B101210160B9
:103E5000FFF7CCFA074604E0FFF7C8FAC01B0228B8
:103E600009D830688007F7D50EE0C0F800A0FFF74A
:103E7000BDFA074605E082E0FFF7B8FAC01B02284A
:103E80007DD830688007F7D42078400768D5DFF800
:103E9000E0B100270BF13C0BDBF80000C0000BD4B5
:103EA000DBF8001041F08051CBF80010DBF8000087
:103EB000012700F080500090704E3068C00510D48B
:103EC000306840F480703060FFF790FA009005E0B1
:103ED000FFF78CFA0099401A022850D83068C005C4
:103EE000F6D5634EA0686C3601280FD005283068DF
:103EF00010D020F001003060306820F00400306005
:103F0000A068B8B1FFF772FA00900FE0306840F097
:103F10000100F4E740F004003060F7E7FFF766FACD
:103F20000099411A41F28830814268D83068800790
:103F3000F4D50EE0FFF75AFA009007E0FFF756FAC3
:103F40000099411A41F28830814258D83068800780
:103F5000F4D42FB1DBF8001021F08051CBF8001021
:103F6000A069D8B34249091D0968C1F3810102293A
:103F70004CD00228504607D0C8F8600000E03EE070
:103F8000FFF734FA04463DE04746C8F86000FFF703
:103F90002DFA064605E000BFFFF728FA801B02282D
:103FA0002DD828688001F7D4F4E907010843E168B7
:103FB000334A490802EB0141A26841EA82110843F1
:103FC000217C40EA0160217D40EA0171C9F80010BE
:103FD00001203866FFF70AFA044606E045E000BF14
:103FE000FFF704FA001B022809D828688001F7D5DA
:103FF0003BE000BFFFF7FAF9001B022802D90320BB
:10400000BDE8F88F28688001F4D42EE00128F7D0AD
:10401000D9F80000E26900F48001914223D1226ABC
:1040200000F03F0191421ED147F6C071626A014023
:10403000B1EB821F17D1A26A4FF0FF3300F4403179
:1040400003EB5202B1EB024F0DD194F82C2000F09B
:104050007061B1EB026F06D194F8301000F0E040CF
:10406000B0EB017F01D00120CAE70020C8E70000C3
:104070000438024000004742800E47420070004072
:104080000000FFFF70B515460E46040003D094F8FB
:10409000490010B107E0012070BD002084F84800FD
:1040A000204600F01AF804F108012068FEF7B4FD7C
:1040B0003146A2682068FEF7EBFDD4E901022946EB
:1040C000236BFEF789FDA168206850F8212042F09B
:1040D000010240F82120002070BDFFF735B870477D
:1040E0007047000070B590F83C20012A32D00124BE
:1040F00080F83C40022280F83D2003685A689D68A1
:1041000022F070060A6832435A60134B02689A42E2
:1041100014D0B2F1804F11D0104B9A420ED0104BF8
:104120009A420BD00F4B9A4208D00F4B9A4205D0BF
:104130000E4B9A4202D00E4B9A4204D1496825F0A8
:1041400080031943916080F83D40002180F83C10C5
:10415000084670BD022070BD000001400004004010
:1041600000080040000C00400004014000400140F5
:104170000018004010B5040003D094F83D0010B1C1
:1041800007E0012010BD002084F83C00204600F02C
:104190001EF8022084F83D00211D206801F06EFC0D
:1041A000012084F8460084F83E0084F83F0084F83B
:1041B000400084F8410084F8420084F8430084F809
:1041C000440084F8450084F83D00002010BD70478D
:1041D00090F83D10012901D001207047022180F89C
:1041E0003D100168CA6842F00102CA6000681149C6
:1041F000884214D0B0F1804F11D00F4988420ED0C0
:104200000E4988420BD00E49884208D00D49884299
:1042100005D00D49884202D00C49884204D18168FA
:1042200001F00701062903D0016841F00101016096
:1042300000207047000001400004004000080040DA
:10424000000C004000040140004001400018004004
:10425000704770B50446006801694FF00005C94316
:10426000890715D4C168C943890711D4E91E0161C2
:1042700001202077206880698007204602D0FFF760
:10428000E7FF04E000F0C0F8204600F065F925776C
:1042900020680169C943490717D4C168C943490760
:1042A00013D46FF004010161022020772068806937
:1042B00010F4407F204602D0FFF7CAFF04E000F070
:1042C000A3F8204600F048F9257720680169C94322
:1042D000090716D4C168C943090712D46FF0080151
:1042E0000161042020772068C0698007204602D041
:1042F000FFF7AEFF04E000F087F8204600F02CF94D
:10430000257720680169C943C90617D4C168C94324
:10431000C90613D46FF010010161082020772068CE
:10432000C06910F4407F204602D0FFF791FF04E0FF
:1043300000F06AF8204600F00FF92577206801693F
:10434000C943C90708D1C168C943C90704D1891E37
:104350000161204600F066F920680169C943090639
:1043600009D4C168C943090605D46FF08001016111
:104370002046FFF7B4FE20680169C943490609D405
:10438000C168C943490605D46FF040010161204668
:1043900000F058F920680169C94389060BD4C16847
:1043A000C943890607D46FF0200101612046BDE8AA
:1043B0007040FFF795BE70BD10B586B0044614215D
:1043C0006846FCF7E8FA0D492068884214D10C4889
:1043D0000021026842F002020260006800F0020060
:1043E0000590402000900220CDE90101CDE90310A5
:1043F00069460448FEF716FF06B010BD00080040ED
:104400003038024000040240704770B5044690F80E
:104410003C0000260D4601280FD0012084F83C0006
:104420006AB1042A1DD0082A2FD00C2A3FD00126B9
:10443000002084F83C00304670BD022070BD20682A
:1044400001F08EFB2068816941F0080181612068DC
:10445000816921F004018161206881692A69114321
:1044600011E0206801F0ACFB2068816941F4006133
:1044700081612068816921F480618161206881699E
:104480002A6941EA02218161D2E7206801F0CEFB6E
:104490002068C16941F00801C1612068C16921F04B
:1044A0000401C1612068C1692A69114311E02068D3
:1044B00001F0F0FB2068C16941F40061C16120682E
:1044C000C16921F48061C1612068C1692A6941EA3A
:1044D0000221C161ACE710B5040003D094F83D009F
:1044E00010B107E0012010BD002084F83C002046F8
:1044F00000F01EF8022084F83D00211D206801F024
:10450000BDFA012084F8460084F83E0084F83F009C
:1045100084F8400084F8410084F8420084F84300A5
:1045200084F8440084F8450084F83D00002010BD64
:1045300008B500680649884208D10648016841F07C
:1045400004010160006800F00400009008BD000054
:1045500000080040403802407047000010B5044693
:10456000022249B104290ED0082913D094F8410041
:10457000012816D0012010BD94F83E000128F9D181
:1045800084F83E200FE094F83F000128F2D184F82F
:104590003F2008E094F840000128EBD184F8402047
:1045A00001E084F841200122206801F0CBFA16498D
:1045B0002068164A884201D0904203D1436C43F4EC
:1045C000004343642068884213D0B0F1804F10D07C
:1045D0000F4988420DD00F4988420AD00E498842BF
:1045E00007D0904205D00D49884202D00C4988423C
:1045F00004D1816801F00701062903D0016841F068
:1046000001010160002010BD0000014000040140D4
:104610000004004000080040000C00400040014041
:104620000018004010B500680549884206D1FFF720
:10463000A7F9BDE81040012020F0C4BD10BD000066
:10464000000001407047704770470000F8B50168EE
:1046500004460868CA684B6910F00F0F4FF0000558
:1046600059D003F0010602F49077374365D0C107B3
:1046700005D0D10503D5216C41F00101216441072A
:1046800005D5D90703D0216C41F0020121648107CF
:1046900005D5D90703D0216C41F00401216401073D
:1046A00007D502F02001314303D0216C41F008010D
:1046B0002164216C00293AD0800604D5900602D5E9
:1046C000204601F03EFB20684069216CC0F3801059
:1046D000090700D460B3204601F00CFB2068406954
:1046E000400621D52068143050E8001F21F0400119
:1046F00040E80012002AF5D1A06BA8B16C49016511
:10470000A06BFEF7FCFC002811D0A06B016D01B07E
:10471000BDE8F040084783060FD593060DD5204627
:10472000BDE8F84001F00DBB2046FFF78DFFF8BD56
:104730002046FFF789FF2564F8BD266B2023012E54
:1047400079D1C60677D5D60675D508684868009031
:104750004869400640D5A16B086840680004000C19
:10476000EAD0A28D8242E7D9E085C869B0F5807FA2
:104770002DD020680C3050E8001F21F4807140E8F3
:104780000012002AF5D12068143050E8001F21F0F3
:10479000010140E80012002AF5D12068143050E8E9
:1047A000001F21F0400140E80012002AF5D184F8F2
:1047B0003E30256320680C3050E8001F21F01001C6
:1047C00040E80012002AF5D1A06BFEF74FFCA08D47
:1047D000E18D401A81B229E0A08DE18D401A81B2AD
:1047E000E08D0028A8D00029A6D020680C3050E821
:1047F000002F22F4907240E80026002EF5D12068A8
:10480000143050E8002F22F0010240E80026002E6C
:10481000F5D184F83E30256320680C3050E8002F35
:1048200022F0100240E80023002BF5D12046FFF7CC
:104830000AFFF8BDFFE705062BD5150629D594F824
:104840003D002128F5D1A068B0F5805F01D1206935
:10485000B0B1206A411C2162216800784860E08C78
:10486000401E0004000CE084E3D12068C16821F000
:104870008001C1602068C16841F04001C160D8E793
:10488000206A0088C0F308004860206A801C20620B
:10489000E5E74006CDD55006CBD5CA68204622F0C4
:1048A0004002CA6084F83D3000F0FFF8C1E7000024
:1048B000E55C000870B5040004D094F83D000025C4
:1048C00010B106E0012070BD84F83C50204600F095
:1048D00023F8242084F83D002068C16821F40051A9
:1048E000C160204601F08EFA2068016921F49041F0
:1048F00001612068416921F02A0141612068C16895
:1049000041F40051C1602564202084F83D0084F802
:104910003E00002070BD000030B587B00446142171
:104920006846FCF738F8274D226800212648032303
:104930000724AA4225D1244A1432156845F01005EF
:104940001560126802F010020592026842F001023E
:104950000260006801AA00F0010005905802009072
:10496000022082E81B0069461848FEF75BFC002223
:1049700005212520FFF78AF82520FFF779F807B0F1
:1049800030BD134DAA42FAD10F4A1032156845F4D2
:1049900080251560126802F480220592026842F0B8
:1049A00004020260006801AA00F0040005904FF4C0
:1049B00080600090122082E81B0069460548FEF7DF
:1049C00031FCDCE7001001403038024000000240BA
:1049D0000048004000080240064801228188491C26
:1049E00089B28180A0F6FC7001440248083001F0D1
:1049F0008FBA0000101500202DE9F843044690F806
:104A00003D001F4616460D4620284CD1C5B1BEB10B
:104A100094F83C00012846D0012084F83C004FF077
:104A20000008C4F84080212084F83D00FEF7DEFC39
:104A3000A6848146E684A068B0F5805F03D004E0D8
:104A40000120BDE8F883206928B12E465FF00005FB
:104A500084F83C800EE00026FAE78021204601F031
:104A600072FAA0B9AEB116F8010B21684860E08C6B
:104A7000401EE084E08C4B464FF000020097002877
:104A8000EBD14FF04001204601F05DFA30B1032038
:104A9000D7E735F8020BC0F30800E6E7202084F8DA
:104AA0003D000020CDE70220CBE77047FEE701681C
:104AB0004A69D24352050FD46FF480624A610021E3
:104AC00040F8301F202242738173026942F00402D1
:104AD0000261017301207047002070472DE9F84FF3
:104AE0000446006889460B9D01689846174641F4C4
:104AF000806101602068016841F480710160009567
:104B00004FF0011B0022594620460A9B00F0DEF8B8
:104B10004FF4007A40B120680068C00501D5C4F8A0
:104B200040A00320BDE8F88F216809F0FE0008616D
:104B30002B46284920460A9A00F0FCF8F0BB206872
:104B40004169806900902A4620460A9900F070F970
:104B500040B1206C04283AD12068016841F400710A
:104B6000016034E0FEB2B8F1010F09D02168380AC3
:104B700008612A4620460A9900F05AF90028E8D12F
:104B8000206806612A4620460A9900F051F900285B
:104B9000DFD12068016841F4807101600095002236
:104BA000594620460A9B00F091F80028B3D12168AD
:104BB00009F0FF0040F00100086100E007E02B462B
:104BC000044920460A9A00F0B5F80028AAD001202E
:104BD000A8E70000020001002DE9F8430446006840
:104BE0000D46DDE9089701689846164641F4807144
:104BF00001604B4600224FF001112046009700F063
:104C000065F848B120680068C00502D54FF400700F
:104C100020640320BDE8F883216805F0FE000861E8
:104C20003B464A461549204600F084F888B920687A
:104C30004169806900903A464946204600F0F8F8FC
:104C400048B1206C042804D12068016841F4007147
:104C500001600120DEE7F5B2B8F1010F09D021684B
:104C6000300A08613A464946204600F0E1F800283B
:104C7000E7D1206805610020CCE7000002000100B8
:104C800070B516460D4604460DE02046FFF70FFFAF
:104C900008B1012070BD681C05D0FEF7A7FB801B82
:104CA000A84207D835B120684069C0434007ECD41A
:104CB000002070BD002044F8300F20216173A073E4
:104CC000216941F0200121612073E2E72DE9F047DD
:104CD0001E4690460D460446C1F30747DDF8209076
:104CE00008E0701C06D0FEF781FBA0EB0900B04283
:104CF0000FD876B12068012F18D0806925EA00000E
:104D00000004000C14D000214145EAD00020BDE889
:104D1000F087002044F8300F20216173A0732169CF
:104D200041F02001216120730120F0E74069E5E7AF
:104D30000121E9E72DE9F0479A4691460E460446DF
:104D400000254FF02008C1F3074725E0206840699F
:104D5000C043400514D42068016841F4007101602B
:104D600021686FF480604861256384F83D8084F891
:104D70003E50206C40F00400206484F83C501FE05A
:104D8000B9F1FF3F08D0FEF731FBA0EB0A0149451E
:104D90000CD8B9F1000F09D02068012F13D0806919
:104DA00026EA00000004000C0BD0CFE744F8305F87
:104DB00084F80D80A573206940F0200020612573E0
:104DC0000120BDE8F0874069EAE72DE9F0410025C0
:104DD00090460E460446202717E04069C043C006AF
:104DE0000CD454F8301B6FF01000486144F810598F
:104DF0006777A577206A2062257717E0FEF7F6FA35
:104E0000A0EB0800B04208D83EB120684169C94310
:104E10004906E2D40020BDE8F08144F8305F6773B2
:104E2000A573206940F02000206125730120F2E77E
:104E300070B516460D4604460DE02046FFF737FED6
:104E400008B1012070BD681C05D0FEF7CFFA801BA9
:104E5000A84207D835B120684069C0430006ECD4A9
:104E6000002070BD002044F8300F20216173A07332
:104E7000216941F0200121612073E2E70322002132
:104E8000012027F075FD284F284CDFF8A4A001254C
:104E9000DFF8A0804FF400794FF4807BAE1E3860BD
:104EA0003146386827F0D4FF012022F021FA20880B
:104EB00001280FD020884946884215D15046FEF778
:104EC0008BFA0028ECD188F8025001210CF032FC5A
:104ED00019A01FE001215046FEF77EFA0028DFD11D
:104EE0001A4805701AA015E0208859468842D7D183
:104EF0005046FEF771FA0028D2D180215046FEF7C5
:104F00006BFA0128404608D00570002130460CF0AD
:104F100011FC13A0FBF7FAFAC2E74570002101204B
:104F20000CF008FC13A0F5E7D4000020D00000200E
:104F300000080240DD00002065356538206B65798A
:104F400020707265737365640D0A0000DC00002038
:104F50006B657920707265737365640D0A000000DB
:104F600065356538207475726E2072696768740DD6
:104F70000A00000065356538207475726E206C6516
:104F800066740D0A00000000F8B50E462A211D4681
:104F900017468DF800109DF800104FF0D84421708E
:104FA00000F09EF9384600F09BF92B208DF80000A8
:104FB0009DF8000020701436B0B200F091F914355D
:104FC000A8B200F08DF92C208DF800009DF80000AB
:104FD0002070F8BD00EB8000401E80B227F028B999
:104FE0002DE9F84F00F064F91E20FFF7F3FF64206D
:104FF000FEF798F811208DF800009DF800004FF0A2
:10500000D84420707820FEF78DF836208DF8000007
:105010009DF800002070C0208DF800009DF8000071
:1050200060703A208DF800009DF800002070052384
:105030008DF800309DF800006070B2208DF80000FF
:105040009DF8000020700C208DF800009DF80010E5
:1050500061708DF800009DF80000607000208DF8F0
:1050600000009DF80000607033208DF800009DF86E
:10507000001061708DF800009DF800106170B7217C
:105080008DF800109DF80010217035218DF800106A
:105090009DF800106170BB218DF800109DF8001084
:1050A000217032218DF800109DF800106170C2212E
:1050B0008DF800109DF80010217001218DF800106E
:1050C0009DF800106170C3218DF800109DF800104C
:1050D000217015218DF800109DF800206270C42207
:1050E0008DF800209DF80020227020228DF80020ED
:1050F0009DF800206270C6228DF800209DF80020E7
:1051000022700F228DF800209DF800206270D025BB
:105110008DF800509DF800202270A4228DF8002008
:105120009DF800206270A1228DF800209DF80020DB
:105130006270E0228DF800209DF8002022708DF82A
:1051400000509DF80020627008268DF800609DF8E0
:10515000002062700E278DF800709DF800206270AC
:1051600009228DF800209DF800C084F801C08DF858
:1051700000209DF800C084F801C08DF800309DF833
:105180000030637031238DF800309DF800C084F842
:1051900001C08DF800009DF800C084F801C04FF0F8
:1051A000480A8DF800A09DF800C084F801C04FF0B7
:1051B000170B8DF800B09DF800C084F801C04FF0C7
:1051C00014098DF800909DF800C084F801C08DF896
:1051D00000109DF800C084F801C08DF800309DF8E3
:1051E00000C084F801C04FF0340C8DF800C09DF869
:1051F000008084F801804FF0E1088DF800809DF870
:10520000008084F800808DF800509DF80050657093
:105210008DF800609DF8005065708DF800709DF865
:10522000005065708DF800209DF8005065708DF875
:1052300000209DF8002062708DF800109DF800207D
:1052400062708DF800309DF8002062708DF80000CB
:105250009DF8000060708DF800A09DF8000060705F
:105260008DF800B09DF8000060708DF800909DF8FA
:10527000000060708DF800109DF8000060708DF8DF
:1052800000309DF8000060708DF800C09DF80000AF
:10529000607021208DF800009DF80000207029200A
:1052A0008DF800009DF800002070BDE8F88F000028
:1052B00070B50A4D4FF40074002221462846FEF7CF
:1052C00090F86420FDF72EFF012221462846FEF7C4
:1052D00088F8BDE870406420FDF724BF0004024058
:1052E00001B581B0BDF80400000A8DF800009DF8FA
:1052F00000104FF0D8404170BDF804108DF8001038
:105300009DF8001041700CBD17F0C0FC1DF0D4FCDE
:105310001DF0F6FC21F0D4FE1FF0E0FF082021F084
:10532000E7FFF9E720F085FF082021F0E1FF4FF4C7
:10533000FA6405E010A0FBF7E9F8204621F0D8FF59
:1053400020F0DAFF0028F5D10FA0FBF7DFF8144CAE
:1053500040F2E2451248183005F063F9010003D02D
:1053600010A0FBF7D3F802E0A0690EF08FFD2846ED
:1053700021F0BEFFEEE700004D50553630353020AD
:105380004572726F720D0A006D70753630353020BF
:10539000696E69742073756363656564210D0A0025
:1053A000000000206D707536303530206461746106
:1053B00020676574206661696C656420282D25640A
:1053C000290D0A001FB54FF6FF73012203A98DE8CE
:1053D0000E0013460246D0210348FEF707F99DF858
:1053E0000C0004B010BD0000740400203EB5400065
:1053F000CDE900320A464FF6FF74014602940123BC
:105400000348FEF7F3F88DF800009DF800003EBD5C
:1054100074040020C006010E1C2000F035B8C00640
:10542000010E1B2000F030B8BC2801D3012110E090
:10543000622801D302210CE02A2801D3032108E0CD
:10544000142801D3042104E00A2801D3052100E037
:1054500006211A2000F018B810B504464FF47A70EF
:10546000844201D9044602E0042C00D20424B0FB9B
:10547000F4F0401EC1B2192000F006F86008BDE843
:105480001040FFF7D1BF000003B583B04FF6FF73A4
:10549000012204A98DE80E0013460246D0210248DD
:1054A000FEF7A0F905B000BD740400203EB5400031
:1054B000CDE900320A464FF6FF74014602940123FB
:1054C0000148FEF78FF93EBD740400207FB500242B
:1054D00015480094019402941249039401604FF41A
:1054E0008031C0E901140461047680F820400F493E
:1054F000C0E90A140125C561C46080F830404561E7
:10550000FDF79DFC08B1FDF765FBCDE90045694657
:1055100005480294FDF7EAFB002801D0FDF75AFB8D
:105520007FBD000000200140DC0300200100000FCF
:1055300010B5154A0021154821F016FF144C124AE7
:105540000021E0612432134821F00EFF0E4A206250
:1055500048320021104821F007FF0B4A60626C328C
:1055600000210E4821F000FF074AA062903200217E
:105570000B4821F0F9FE044AE062B43200210948E8
:1055800021F0F2FE206310BD08F00208095900085E
:105590000000002011590008315800080953000884
:1055A0007D4E00082553000800B587B01C216846D1
:1055B000FBF7F1F917484FF020414FF4805201609A
:1055C00015494160062181600021C160016141618E
:1055D0008161C161C0E90912C162016341638163F4
:1055E000C163016441640F20CDE9001002200290E4
:1055F0000390102004901120CDE905010022694696
:105600000448FEF73FFD002801D0FDF7E3FA07B09C
:1056100000BD000024040020040100A02DE9F04199
:1056200086B014216846FBF7B6F9314800250168B9
:1056300041F004010160016801F004010591016875
:1056400041F080010160016801F08001059101686D
:1056500041F001010160016801F00101059101685B
:1056600041F0020101600068012200F00200DFF851
:1056700084805602059031464046FDF7B2FE40F266
:10568000013000904FF404100124CDE901041A4FB9
:1056900069463846FDF7C6FDE003CDE900056946D9
:1056A00040460295FDF7BEFD8020CDE90005694624
:1056B00002943846FDF7B6FD0220CDE90240CDE95F
:1056C000006469464046FDF7ADFD00220521062035
:1056D000FEF7DCF90620FEF7CBF9002205211720A2
:1056E000FEF7D4F91720FEF7C3F906B0BDE8F08144
:1056F0003038024000040240000802400D4810B556
:105700000B4901600C49416000214FF480428160E7
:10571000C0E9031241618161C1610162FDF7A2FE2E
:10572000002803D0BDE81040FDF754BA10BD0000BA
:105730000054004074040020A086010030B589B0F8
:10574000002507951C2168460895FBF724F91A4C9B
:10575000184820606320C4E9010540F2F310C4E951
:1057600003052046A561FEF7B6FE08B1FDF732FA43
:10577000079507A910480895FEF7B4FC08B1FDF796
:1057800029FA60200090F920CDE901050022694640
:1057900009480495FEF739FE08B1FDF71BFA2068A9
:1057A000816921F0080181610348FEF705FE09B017
:1057B00030BD000000080040C80400200C4810B5AF
:1057C0000A4901604FF4E1314160002181600C22FF
:1057D000C160C0E904128161C161FFF76BF8002864
:1057E00003D0BDE81040FDF7F5B910BD0010014031
:1057F000181500200C4810B50A4901604FF4E1313A
:105800004160002181600822C160C0E90412816109
:10581000C161FDF7F1FD002803D0BDE81040FDF7A0
:10582000D9B910BD004800405C150020FEE7FEE736
:1058300008B52D4C2D4E04F11007B08800284ED02D
:105840002B49415C0A294AD12949491E415C0D294D
:1058500045D12080264D0020B080ED1E0122291D5B
:10586000244800F055FB4FF47A732288291D224802
:10587000FFF7C2F81C4B00970C33A3F10802281D58
:10588000616927E060680FF0C3FCF0EE400A84ED28
:10589000020AFDEEE00AB7EE000A012010EE901AAF
:1058A00023F02AFED4ED040A94ED030A284623F0DF
:1058B0008DFDA06829F00EF941EC100B0FA053EC00
:1058C000102BFAF723FE084B00970C33A3F10802C4
:1058D000002061690DF03CFE10F0FF05D2D10A20D6
:1058E00021F006FDA9E700000000002010150020AF
:1058F00013050020181500205C15002072737369D1
:105900003A252E31660D0A00642021F0F1FCFBE7F8
:1059100070B52DED068BF0EE008A43F2D4059FEDB5
:10592000179B9FED18AB00BF02F0AEFD20EE288A5A
:1059300018EE100A29F0CEF853EC192B28F0C8FD08
:1059400053EC1A2B28F08EF827F0EAFD00EE100A2F
:1059500023F066F9044618EE100A29F0BBF841EC72
:10596000100B0AA053EC102BFAF7D0FD21460DA026
:10597000FAF7CCFD284621F0BBFCD5E79A99999916
:1059800099990B40B81E85EB51B87E3F63757272D2
:10599000656E7420766F6C7461676520252E3266A3
:1059A0000D0A0000656C65637469636974793A2552
:1059B000640D0A0010B54FF0E020006927F08CFB61
:1059C000012803D0BDE8104026F0BCBF10BD000088
:1059D00030B593B034216846FAF7DDFF14210DA8E5
:1059E000FAF7D9FF1C480025016841F08051016099
:1059F000006800F0805012901848016841F440415E
:105A000001600068022400F44040129001200090E0
:105A1000000401908001CDE9064004200890642034
:105A2000CDE909040B9468460C94FEF76BF908B1B4
:105A300072B6FEE70DA90F2081E831004FF48050C7
:105A4000CDE9100503210DA8FEF752F8002801D07A
:105A500072B6FEE713B030BD40380240007000401F
:105A60000248016841F470010160704788ED00E070
:105A70000148FEF7EEBB0000A0150020F0B502685B
:105A8000254C264D264E274F274B4FF0804CA042E9
:105A900009D0604507D0A84205D0B04203D0B84233
:105AA00001D0984204D122F0700E4A6842EA0E02F8
:105AB000A0421BD0604519D0A84217D0B04215D0E3
:105AC000B84213D0984211D0184DA8420ED0184DAC
:105AD000A8420BD0174DA84208D0174DA84205D0B8
